{
	"contracts/KipuBank.sol": {
		"KipuBank": {
			"abi": [
				{
					"inputs": [
						{
							"internalType": "uint256",
							"name": "_withdrawalLimit",
							"type": "uint256"
						},
						{
							"internalType": "uint256",
							"name": "_bankCap",
							"type": "uint256"
						}
					],
					"stateMutability": "nonpayable",
					"type": "constructor"
				},
				{
					"inputs": [],
					"name": "BankCapExceeded",
					"type": "error"
				},
				{
					"inputs": [],
					"name": "InsufficientBalance",
					"type": "error"
				},
				{
					"inputs": [],
					"name": "InvalidAmount",
					"type": "error"
				},
				{
					"inputs": [
						{
							"internalType": "bytes",
							"name": "errorData",
							"type": "bytes"
						}
					],
					"name": "WithdrawalFailed",
					"type": "error"
				},
				{
					"inputs": [],
					"name": "WithdrawalLimitExceeded",
					"type": "error"
				},
				{
					"anonymous": false,
					"inputs": [
						{
							"indexed": true,
							"internalType": "address",
							"name": "user",
							"type": "address"
						},
						{
							"indexed": false,
							"internalType": "uint256",
							"name": "amount",
							"type": "uint256"
						}
					],
					"name": "Deposit_Eth",
					"type": "event"
				},
				{
					"anonymous": false,
					"inputs": [
						{
							"indexed": true,
							"internalType": "address",
							"name": "user",
							"type": "address"
						},
						{
							"indexed": false,
							"internalType": "uint256",
							"name": "amount",
							"type": "uint256"
						}
					],
					"name": "Withdrawal_Eth",
					"type": "event"
				},
				{
					"inputs": [
						{
							"internalType": "address",
							"name": "",
							"type": "address"
						}
					],
					"name": "balances",
					"outputs": [
						{
							"internalType": "uint256",
							"name": "",
							"type": "uint256"
						}
					],
					"stateMutability": "view",
					"type": "function"
				},
				{
					"inputs": [],
					"name": "bankCap",
					"outputs": [
						{
							"internalType": "uint256",
							"name": "",
							"type": "uint256"
						}
					],
					"stateMutability": "view",
					"type": "function"
				},
				{
					"inputs": [],
					"name": "deposit",
					"outputs": [],
					"stateMutability": "payable",
					"type": "function"
				},
				{
					"inputs": [],
					"name": "getBalance",
					"outputs": [
						{
							"internalType": "uint256",
							"name": "",
							"type": "uint256"
						}
					],
					"stateMutability": "view",
					"type": "function"
				},
				{
					"inputs": [],
					"name": "totalDeposits",
					"outputs": [
						{
							"internalType": "uint256",
							"name": "",
							"type": "uint256"
						}
					],
					"stateMutability": "view",
					"type": "function"
				},
				{
					"inputs": [],
					"name": "totalWithdrawals",
					"outputs": [
						{
							"internalType": "uint256",
							"name": "",
							"type": "uint256"
						}
					],
					"stateMutability": "view",
					"type": "function"
				},
				{
					"inputs": [
						{
							"internalType": "uint256",
							"name": "amount",
							"type": "uint256"
						}
					],
					"name": "withdrawal",
					"outputs": [],
					"stateMutability": "nonpayable",
					"type": "function"
				},
				{
					"inputs": [],
					"name": "withdrawalLimit",
					"outputs": [
						{
							"internalType": "uint256",
							"name": "",
							"type": "uint256"
						}
					],
					"stateMutability": "view",
					"type": "function"
				}
			],
			"devdoc": {
				"author": "Michel Massaad",
				"details": "Implementa limites por transacción, limite global de depositos, errores personalizados y patron checks-effects-interactions",
				"errors": {
					"WithdrawalFailed(bytes)": [
						{
							"params": {
								"errorData": "datos del error de la transferencia"
							}
						}
					]
				},
				"events": {
					"Deposit_Eth(address,uint256)": {
						"params": {
							"amount": "cantidad depositada en wei",
							"user": "dirección del usuario que depositó"
						}
					},
					"Withdrawal_Eth(address,uint256)": {
						"params": {
							"amount": "cantidad retirada en wei",
							"user": "dirección del usuario que retiró"
						}
					}
				},
				"kind": "dev",
				"methods": {
					"constructor": {
						"params": {
							"_bankCap": "Límite global de depósitos",
							"_withdrawalLimit": "Límite de retiro por transacción"
						}
					},
					"deposit()": {
						"details": "Verifica que el depósito sea mayor a 0 y que no supere el límite globalIncrementa el contador total de depósitos"
					},
					"getBalance()": {
						"returns": {
							"_0": "Balance en wei"
						}
					},
					"withdrawal(uint256)": {
						"details": "Verifica límite de retiro por transacción y saldo suficienteIncrementa el contador total de retiros",
						"params": {
							"amount": "Monto a retirar en wei"
						}
					}
				},
				"title": "KipuBank",
				"version": 1
			},
			"evm": {
				"assembly": "    /* \"contracts/KipuBank.sol\":340:4718  contract KipuBank {\r... */\n  mstore(0x40, 0xc0)\n    /* \"contracts/KipuBank.sol\":2209:2347  constructor(uint256 _withdrawalLimit, uint256 _bankCap) {\r... */\n  callvalue\n  dup1\n  iszero\n  tag_1\n  jumpi\n  0x00\n  dup1\n  revert\ntag_1:\n  pop\n  mload(0x40)\n  sub(codesize, bytecodeSize)\n  dup1\n  bytecodeSize\n  dup4\n  codecopy\n  dup2\n  dup2\n  add\n  0x40\n  mstore\n  dup2\n  add\n  swap1\n  tag_2\n  swap2\n  swap1\n  tag_3\n  jump\t// in\ntag_2:\n    /* \"contracts/KipuBank.sol\":2294:2310  _withdrawalLimit */\n  dup2\n    /* \"contracts/KipuBank.sol\":2276:2310  withdrawalLimit = _withdrawalLimit */\n  0x80\n  dup2\n  dup2\n  mstore\n  pop\n  pop\n    /* \"contracts/KipuBank.sol\":2331:2339  _bankCap */\n  dup1\n    /* \"contracts/KipuBank.sol\":2321:2339  bankCap = _bankCap */\n  0xa0\n  dup2\n  dup2\n  mstore\n  pop\n  pop\n    /* \"contracts/KipuBank.sol\":2209:2347  constructor(uint256 _withdrawalLimit, uint256 _bankCap) {\r... */\n  pop\n  pop\n    /* \"contracts/KipuBank.sol\":340:4718  contract KipuBank {\r... */\n  jump(tag_6)\n    /* \"#utility.yul\":7:150   */\ntag_8:\n    /* \"#utility.yul\":64:69   */\n  0x00\n    /* \"#utility.yul\":95:101   */\n  dup2\n    /* \"#utility.yul\":89:102   */\n  mload\n    /* \"#utility.yul\":80:102   */\n  swap1\n  pop\n    /* \"#utility.yul\":111:144   */\n  tag_10\n    /* \"#utility.yul\":138:143   */\n  dup2\n    /* \"#utility.yul\":111:144   */\n  tag_11\n  jump\t// in\ntag_10:\n    /* \"#utility.yul\":7:150   */\n  swap3\n  swap2\n  pop\n  pop\n  jump\t// out\n    /* \"#utility.yul\":156:663   */\ntag_3:\n    /* \"#utility.yul\":235:241   */\n  0x00\n    /* \"#utility.yul\":243:249   */\n  dup1\n    /* \"#utility.yul\":292:294   */\n  0x40\n    /* \"#utility.yul\":280:289   */\n  dup4\n    /* \"#utility.yul\":271:278   */\n  dup6\n    /* \"#utility.yul\":267:290   */\n  sub\n    /* \"#utility.yul\":263:295   */\n  slt\n    /* \"#utility.yul\":260:379   */\n  iszero\n  tag_13\n  jumpi\n    /* \"#utility.yul\":298:377   */\n  tag_14\n  tag_15\n  jump\t// in\ntag_14:\n    /* \"#utility.yul\":260:379   */\ntag_13:\n    /* \"#utility.yul\":418:419   */\n  0x00\n    /* \"#utility.yul\":443:507   */\n  tag_16\n    /* \"#utility.yul\":499:506   */\n  dup6\n    /* \"#utility.yul\":490:496   */\n  dup3\n    /* \"#utility.yul\":479:488   */\n  dup7\n    /* \"#utility.yul\":475:497   */\n  add\n    /* \"#utility.yul\":443:507   */\n  tag_8\n  jump\t// in\ntag_16:\n    /* \"#utility.yul\":433:507   */\n  swap3\n  pop\n    /* \"#utility.yul\":389:517   */\n  pop\n    /* \"#utility.yul\":556:558   */\n  0x20\n    /* \"#utility.yul\":582:646   */\n  tag_17\n    /* \"#utility.yul\":638:645   */\n  dup6\n    /* \"#utility.yul\":629:635   */\n  dup3\n    /* \"#utility.yul\":618:627   */\n  dup7\n    /* \"#utility.yul\":614:636   */\n  add\n    /* \"#utility.yul\":582:646   */\n  tag_8\n  jump\t// in\ntag_17:\n    /* \"#utility.yul\":572:646   */\n  swap2\n  pop\n    /* \"#utility.yul\":527:656   */\n  pop\n    /* \"#utility.yul\":156:663   */\n  swap3\n  pop\n  swap3\n  swap1\n  pop\n  jump\t// out\n    /* \"#utility.yul\":750:827   */\ntag_20:\n    /* \"#utility.yul\":787:794   */\n  0x00\n    /* \"#utility.yul\":816:821   */\n  dup2\n    /* \"#utility.yul\":805:821   */\n  swap1\n  pop\n    /* \"#utility.yul\":750:827   */\n  swap2\n  swap1\n  pop\n  jump\t// out\n    /* \"#utility.yul\":956:1073   */\ntag_15:\n    /* \"#utility.yul\":1065:1066   */\n  0x00\n    /* \"#utility.yul\":1062:1063   */\n  dup1\n    /* \"#utility.yul\":1055:1067   */\n  revert\n    /* \"#utility.yul\":1079:1201   */\ntag_11:\n    /* \"#utility.yul\":1152:1176   */\n  tag_26\n    /* \"#utility.yul\":1170:1175   */\n  dup2\n    /* \"#utility.yul\":1152:1176   */\n  tag_20\n  jump\t// in\ntag_26:\n    /* \"#utility.yul\":1145:1150   */\n  dup2\n    /* \"#utility.yul\":1142:1177   */\n  eq\n    /* \"#utility.yul\":1132:1195   */\n  tag_27\n  jumpi\n    /* \"#utility.yul\":1191:1192   */\n  0x00\n    /* \"#utility.yul\":1188:1189   */\n  dup1\n    /* \"#utility.yul\":1181:1193   */\n  revert\n    /* \"#utility.yul\":1132:1195   */\ntag_27:\n    /* \"#utility.yul\":1079:1201   */\n  pop\n  jump\t// out\n    /* \"contracts/KipuBank.sol\":340:4718  contract KipuBank {\r... */\ntag_6:\n  mload(0x80)\n  mload(0xa0)\n  codecopy(0x00, dataOffset(sub_0), dataSize(sub_0))\n  0x00\n  assignImmutable(\"0x81e080ffc23e8b8d44dd829bc823229e92b893eb1d8f624419d3f5682eb97fc3\")\n  0x00\n  assignImmutable(\"0xd4d1a59767271eefdc7830a772b9732a11d503531d972ab8c981a6b1c0e666e5\")\n  return(0x00, dataSize(sub_0))\nstop\n\nsub_0: assembly {\n        /* \"contracts/KipuBank.sol\":340:4718  contract KipuBank {\r... */\n      mstore(0x40, 0x80)\n      jumpi(tag_1, lt(calldatasize, 0x04))\n      shr(0xe0, calldataload(0x00))\n      dup1\n      0x7ddfe78d\n      gt\n      tag_10\n      jumpi\n      dup1\n      0x7ddfe78d\n      eq\n      tag_6\n      jumpi\n      dup1\n      0x835fc6ca\n      eq\n      tag_7\n      jumpi\n      dup1\n      0xd0e30db0\n      eq\n      tag_8\n      jumpi\n      dup1\n      0xecbea24d\n      eq\n      tag_9\n      jumpi\n      jump(tag_1)\n    tag_10:\n      dup1\n      0x12065fe0\n      eq\n      tag_2\n      jumpi\n      dup1\n      0x27e235e3\n      eq\n      tag_3\n      jumpi\n      dup1\n      0x60464627\n      eq\n      tag_4\n      jumpi\n      dup1\n      0x7d882097\n      eq\n      tag_5\n      jumpi\n    tag_1:\n      0x00\n      dup1\n      revert\n        /* \"contracts/KipuBank.sol\":4613:4713  function getBalance() external view returns (uint256) {\r... */\n    tag_2:\n      callvalue\n      dup1\n      iszero\n      tag_11\n      jumpi\n      0x00\n      dup1\n      revert\n    tag_11:\n      pop\n      tag_12\n      tag_13\n      jump\t// in\n    tag_12:\n      mload(0x40)\n      tag_14\n      swap2\n      swap1\n      tag_15\n      jump\t// in\n    tag_14:\n      mload(0x40)\n      dup1\n      swap2\n      sub\n      swap1\n      return\n        /* \"contracts/KipuBank.sol\":1242:1285  mapping(address => uint256) public balances */\n    tag_3:\n      callvalue\n      dup1\n      iszero\n      tag_16\n      jumpi\n      0x00\n      dup1\n      revert\n    tag_16:\n      pop\n      tag_17\n      0x04\n      dup1\n      calldatasize\n      sub\n      dup2\n      add\n      swap1\n      tag_18\n      swap2\n      swap1\n      tag_19\n      jump\t// in\n    tag_18:\n      tag_20\n      jump\t// in\n    tag_17:\n      mload(0x40)\n      tag_21\n      swap2\n      swap1\n      tag_15\n      jump\t// in\n    tag_21:\n      mload(0x40)\n      dup1\n      swap2\n      sub\n      swap1\n      return\n        /* \"contracts/KipuBank.sol\":1422:1453  uint256 public totalWithdrawals */\n    tag_4:\n      callvalue\n      dup1\n      iszero\n      tag_22\n      jumpi\n      0x00\n      dup1\n      revert\n    tag_22:\n      pop\n      tag_23\n      tag_24\n      jump\t// in\n    tag_23:\n      mload(0x40)\n      tag_25\n      swap2\n      swap1\n      tag_15\n      jump\t// in\n    tag_25:\n      mload(0x40)\n      dup1\n      swap2\n      sub\n      swap1\n      return\n        /* \"contracts/KipuBank.sol\":1333:1361  uint256 public totalDeposits */\n    tag_5:\n      callvalue\n      dup1\n      iszero\n      tag_26\n      jumpi\n      0x00\n      dup1\n      revert\n    tag_26:\n      pop\n      tag_27\n      tag_28\n      jump\t// in\n    tag_27:\n      mload(0x40)\n      tag_29\n      swap2\n      swap1\n      tag_15\n      jump\t// in\n    tag_29:\n      mload(0x40)\n      dup1\n      swap2\n      sub\n      swap1\n      return\n        /* \"contracts/KipuBank.sol\":1063:1103  uint256 public immutable withdrawalLimit */\n    tag_6:\n      callvalue\n      dup1\n      iszero\n      tag_30\n      jumpi\n      0x00\n      dup1\n      revert\n    tag_30:\n      pop\n      tag_31\n      tag_32\n      jump\t// in\n    tag_31:\n      mload(0x40)\n      tag_33\n      swap2\n      swap1\n      tag_15\n      jump\t// in\n    tag_33:\n      mload(0x40)\n      dup1\n      swap2\n      sub\n      swap1\n      return\n        /* \"contracts/KipuBank.sol\":3515:4025  function withdrawal(uint256 amount) external reentrancyGuard {\r... */\n    tag_7:\n      callvalue\n      dup1\n      iszero\n      tag_34\n      jumpi\n      0x00\n      dup1\n      revert\n    tag_34:\n      pop\n      tag_35\n      0x04\n      dup1\n      calldatasize\n      sub\n      dup2\n      add\n      swap1\n      tag_36\n      swap2\n      swap1\n      tag_37\n      jump\t// in\n    tag_36:\n      tag_38\n      jump\t// in\n    tag_35:\n      stop\n        /* \"contracts/KipuBank.sol\":2906:3260  function deposit() external payable {\r... */\n    tag_8:\n      tag_39\n      tag_40\n      jump\t// in\n    tag_39:\n      stop\n        /* \"contracts/KipuBank.sol\":1157:1189  uint256 public immutable bankCap */\n    tag_9:\n      callvalue\n      dup1\n      iszero\n      tag_41\n      jumpi\n      0x00\n      dup1\n      revert\n    tag_41:\n      pop\n      tag_42\n      tag_43\n      jump\t// in\n    tag_42:\n      mload(0x40)\n      tag_44\n      swap2\n      swap1\n      tag_15\n      jump\t// in\n    tag_44:\n      mload(0x40)\n      dup1\n      swap2\n      sub\n      swap1\n      return\n        /* \"contracts/KipuBank.sol\":4613:4713  function getBalance() external view returns (uint256) {\r... */\n    tag_13:\n        /* \"contracts/KipuBank.sol\":4658:4665  uint256 */\n      0x00\n        /* \"contracts/KipuBank.sol\":4685:4693  balances */\n      dup1\n        /* \"contracts/KipuBank.sol\":4685:4705  balances[msg.sender] */\n      0x00\n        /* \"contracts/KipuBank.sol\":4694:4704  msg.sender */\n      caller\n        /* \"contracts/KipuBank.sol\":4685:4705  balances[msg.sender] */\n      0xffffffffffffffffffffffffffffffffffffffff\n      and\n      0xffffffffffffffffffffffffffffffffffffffff\n      and\n      dup2\n      mstore\n      0x20\n      add\n      swap1\n      dup2\n      mstore\n      0x20\n      add\n      0x00\n      keccak256\n      sload\n        /* \"contracts/KipuBank.sol\":4678:4705  return balances[msg.sender] */\n      swap1\n      pop\n        /* \"contracts/KipuBank.sol\":4613:4713  function getBalance() external view returns (uint256) {\r... */\n      swap1\n      jump\t// out\n        /* \"contracts/KipuBank.sol\":1242:1285  mapping(address => uint256) public balances */\n    tag_20:\n      mstore(0x20, 0x00)\n      dup1\n      0x00\n      mstore\n      keccak256(0x00, 0x40)\n      0x00\n      swap2\n      pop\n      swap1\n      pop\n      sload\n      dup2\n      jump\t// out\n        /* \"contracts/KipuBank.sol\":1422:1453  uint256 public totalWithdrawals */\n    tag_24:\n      sload(0x02)\n      dup2\n      jump\t// out\n        /* \"contracts/KipuBank.sol\":1333:1361  uint256 public totalDeposits */\n    tag_28:\n      sload(0x01)\n      dup2\n      jump\t// out\n        /* \"contracts/KipuBank.sol\":1063:1103  uint256 public immutable withdrawalLimit */\n    tag_32:\n      immutable(\"0xd4d1a59767271eefdc7830a772b9732a11d503531d972ab8c981a6b1c0e666e5\")\n      dup2\n      jump\t// out\n        /* \"contracts/KipuBank.sol\":3515:4025  function withdrawal(uint256 amount) external reentrancyGuard {\r... */\n    tag_38:\n        /* \"contracts/KipuBank.sol\":2503:2508  false */\n      0x00\n        /* \"contracts/KipuBank.sol\":2495:2508  flag != false */\n      iszero\n      iszero\n        /* \"contracts/KipuBank.sol\":2495:2499  flag */\n      0x03\n      0x00\n      swap1\n      sload\n      swap1\n      0x0100\n      exp\n      swap1\n      div\n      0xff\n      and\n        /* \"contracts/KipuBank.sol\":2495:2508  flag != false */\n      iszero\n      iszero\n      eq\n        /* \"contracts/KipuBank.sol\":2491:2518  if (flag != false) revert() */\n      tag_47\n      jumpi\n        /* \"contracts/KipuBank.sol\":2510:2518  revert() */\n      0x00\n      dup1\n      revert\n        /* \"contracts/KipuBank.sol\":2491:2518  if (flag != false) revert() */\n    tag_47:\n        /* \"contracts/KipuBank.sol\":2575:2579  true */\n      0x01\n        /* \"contracts/KipuBank.sol\":2568:2572  flag */\n      0x03\n      0x00\n        /* \"contracts/KipuBank.sol\":2568:2579  flag = true */\n      0x0100\n      exp\n      dup2\n      sload\n      dup2\n      0xff\n      mul\n      not\n      and\n      swap1\n      dup4\n      iszero\n      iszero\n      mul\n      or\n      swap1\n      sstore\n      pop\n        /* \"contracts/KipuBank.sol\":3601:3602  0 */\n      0x00\n        /* \"contracts/KipuBank.sol\":3591:3597  amount */\n      dup2\n        /* \"contracts/KipuBank.sol\":3591:3602  amount == 0 */\n      eq\n        /* \"contracts/KipuBank.sol\":3587:3626  if (amount == 0) revert InvalidAmount() */\n      iszero\n      tag_49\n      jumpi\n        /* \"contracts/KipuBank.sol\":3611:3626  InvalidAmount() */\n      mload(0x40)\n      0x2c5211c600000000000000000000000000000000000000000000000000000000\n      dup2\n      mstore\n      0x04\n      add\n      mload(0x40)\n      dup1\n      swap2\n      sub\n      swap1\n      revert\n        /* \"contracts/KipuBank.sol\":3587:3626  if (amount == 0) revert InvalidAmount() */\n    tag_49:\n        /* \"contracts/KipuBank.sol\":3650:3665  withdrawalLimit */\n      immutable(\"0xd4d1a59767271eefdc7830a772b9732a11d503531d972ab8c981a6b1c0e666e5\")\n        /* \"contracts/KipuBank.sol\":3641:3647  amount */\n      dup2\n        /* \"contracts/KipuBank.sol\":3641:3665  amount > withdrawalLimit */\n      gt\n        /* \"contracts/KipuBank.sol\":3637:3699  if (amount > withdrawalLimit) revert WithdrawalLimitExceeded() */\n      iszero\n      tag_50\n      jumpi\n        /* \"contracts/KipuBank.sol\":3674:3699  WithdrawalLimitExceeded() */\n      mload(0x40)\n      0x4e6a369600000000000000000000000000000000000000000000000000000000\n      dup2\n      mstore\n      0x04\n      add\n      mload(0x40)\n      dup1\n      swap2\n      sub\n      swap1\n      revert\n        /* \"contracts/KipuBank.sol\":3637:3699  if (amount > withdrawalLimit) revert WithdrawalLimitExceeded() */\n    tag_50:\n        /* \"contracts/KipuBank.sol\":3723:3731  balances */\n      0x00\n        /* \"contracts/KipuBank.sol\":3723:3743  balances[msg.sender] */\n      dup1\n        /* \"contracts/KipuBank.sol\":3732:3742  msg.sender */\n      caller\n        /* \"contracts/KipuBank.sol\":3723:3743  balances[msg.sender] */\n      0xffffffffffffffffffffffffffffffffffffffff\n      and\n      0xffffffffffffffffffffffffffffffffffffffff\n      and\n      dup2\n      mstore\n      0x20\n      add\n      swap1\n      dup2\n      mstore\n      0x20\n      add\n      0x00\n      keccak256\n      sload\n        /* \"contracts/KipuBank.sol\":3714:3720  amount */\n      dup2\n        /* \"contracts/KipuBank.sol\":3714:3743  amount > balances[msg.sender] */\n      gt\n        /* \"contracts/KipuBank.sol\":3710:3773  if (amount > balances[msg.sender]) revert InsufficientBalance() */\n      iszero\n      tag_51\n      jumpi\n        /* \"contracts/KipuBank.sol\":3752:3773  InsufficientBalance() */\n      mload(0x40)\n      0xf4d678b800000000000000000000000000000000000000000000000000000000\n      dup2\n      mstore\n      0x04\n      add\n      mload(0x40)\n      dup1\n      swap2\n      sub\n      swap1\n      revert\n        /* \"contracts/KipuBank.sol\":3710:3773  if (amount > balances[msg.sender]) revert InsufficientBalance() */\n    tag_51:\n        /* \"contracts/KipuBank.sol\":3818:3824  amount */\n      dup1\n        /* \"contracts/KipuBank.sol\":3794:3802  balances */\n      0x00\n        /* \"contracts/KipuBank.sol\":3794:3814  balances[msg.sender] */\n      dup1\n        /* \"contracts/KipuBank.sol\":3803:3813  msg.sender */\n      caller\n        /* \"contracts/KipuBank.sol\":3794:3814  balances[msg.sender] */\n      0xffffffffffffffffffffffffffffffffffffffff\n      and\n      0xffffffffffffffffffffffffffffffffffffffff\n      and\n      dup2\n      mstore\n      0x20\n      add\n      swap1\n      dup2\n      mstore\n      0x20\n      add\n      0x00\n      keccak256\n      0x00\n        /* \"contracts/KipuBank.sol\":3794:3824  balances[msg.sender] -= amount */\n      dup3\n      dup3\n      sload\n      tag_52\n      swap2\n      swap1\n      tag_53\n      jump\t// in\n    tag_52:\n      swap3\n      pop\n      pop\n      dup2\n      swap1\n      sstore\n      pop\n        /* \"contracts/KipuBank.sol\":3873:3889  totalWithdrawals */\n      0x02\n      0x00\n        /* \"contracts/KipuBank.sol\":3873:3891  totalWithdrawals++ */\n      dup2\n      sload\n      dup1\n      swap3\n      swap2\n      swap1\n      tag_54\n      swap1\n      tag_55\n      jump\t// in\n    tag_54:\n      swap2\n      swap1\n      pop\n      sstore\n      pop\n        /* \"contracts/KipuBank.sol\":3902:3943  _transferEth(payable(msg.sender), amount) */\n      tag_56\n        /* \"contracts/KipuBank.sol\":3923:3933  msg.sender */\n      caller\n        /* \"contracts/KipuBank.sol\":3936:3942  amount */\n      dup3\n        /* \"contracts/KipuBank.sol\":3902:3914  _transferEth */\n      tag_57\n        /* \"contracts/KipuBank.sol\":3902:3943  _transferEth(payable(msg.sender), amount) */\n      jump\t// in\n    tag_56:\n        /* \"contracts/KipuBank.sol\":3998:4008  msg.sender */\n      caller\n        /* \"contracts/KipuBank.sol\":3983:4017  Withdrawal_Eth(msg.sender, amount) */\n      0xffffffffffffffffffffffffffffffffffffffff\n      and\n      0x1096078fec844c999d38c0781933b78fee8144838b20e0de2e1808397bee1c\n        /* \"contracts/KipuBank.sol\":4010:4016  amount */\n      dup3\n        /* \"contracts/KipuBank.sol\":3983:4017  Withdrawal_Eth(msg.sender, amount) */\n      mload(0x40)\n      tag_58\n      swap2\n      swap1\n      tag_15\n      jump\t// in\n    tag_58:\n      mload(0x40)\n      dup1\n      swap2\n      sub\n      swap1\n      log2\n        /* \"contracts/KipuBank.sol\":2609:2614  false */\n      0x00\n        /* \"contracts/KipuBank.sol\":2602:2606  flag */\n      0x03\n      0x00\n        /* \"contracts/KipuBank.sol\":2602:2614  flag = false */\n      0x0100\n      exp\n      dup2\n      sload\n      dup2\n      0xff\n      mul\n      not\n      and\n      swap1\n      dup4\n      iszero\n      iszero\n      mul\n      or\n      swap1\n      sstore\n      pop\n        /* \"contracts/KipuBank.sol\":3515:4025  function withdrawal(uint256 amount) external reentrancyGuard {\r... */\n      pop\n      jump\t// out\n        /* \"contracts/KipuBank.sol\":2906:3260  function deposit() external payable {\r... */\n    tag_40:\n        /* \"contracts/KipuBank.sol\":2970:2971  0 */\n      0x00\n        /* \"contracts/KipuBank.sol\":2957:2966  msg.value */\n      callvalue\n        /* \"contracts/KipuBank.sol\":2957:2971  msg.value == 0 */\n      eq\n        /* \"contracts/KipuBank.sol\":2953:2995  if (msg.value == 0) revert InvalidAmount() */\n      iszero\n      tag_60\n      jumpi\n        /* \"contracts/KipuBank.sol\":2980:2995  InvalidAmount() */\n      mload(0x40)\n      0x2c5211c600000000000000000000000000000000000000000000000000000000\n      dup2\n      mstore\n      0x04\n      add\n      mload(0x40)\n      dup1\n      swap2\n      sub\n      swap1\n      revert\n        /* \"contracts/KipuBank.sol\":2953:2995  if (msg.value == 0) revert InvalidAmount() */\n    tag_60:\n        /* \"contracts/KipuBank.sol\":3045:3052  bankCap */\n      immutable(\"0x81e080ffc23e8b8d44dd829bc823229e92b893eb1d8f624419d3f5682eb97fc3\")\n        /* \"contracts/KipuBank.sol\":3033:3042  msg.value */\n      callvalue\n        /* \"contracts/KipuBank.sol\":3010:3018  balances */\n      0x00\n        /* \"contracts/KipuBank.sol\":3010:3030  balances[msg.sender] */\n      dup1\n        /* \"contracts/KipuBank.sol\":3019:3029  msg.sender */\n      caller\n        /* \"contracts/KipuBank.sol\":3010:3030  balances[msg.sender] */\n      0xffffffffffffffffffffffffffffffffffffffff\n      and\n      0xffffffffffffffffffffffffffffffffffffffff\n      and\n      dup2\n      mstore\n      0x20\n      add\n      swap1\n      dup2\n      mstore\n      0x20\n      add\n      0x00\n      keccak256\n      sload\n        /* \"contracts/KipuBank.sol\":3010:3042  balances[msg.sender] + msg.value */\n      tag_61\n      swap2\n      swap1\n      tag_62\n      jump\t// in\n    tag_61:\n        /* \"contracts/KipuBank.sol\":3010:3052  balances[msg.sender] + msg.value > bankCap */\n      gt\n        /* \"contracts/KipuBank.sol\":3006:3078  if (balances[msg.sender] + msg.value > bankCap) revert BankCapExceeded() */\n      iszero\n      tag_63\n      jumpi\n        /* \"contracts/KipuBank.sol\":3061:3078  BankCapExceeded() */\n      mload(0x40)\n      0x448f3ca800000000000000000000000000000000000000000000000000000000\n      dup2\n      mstore\n      0x04\n      add\n      mload(0x40)\n      dup1\n      swap2\n      sub\n      swap1\n      revert\n        /* \"contracts/KipuBank.sol\":3006:3078  if (balances[msg.sender] + msg.value > bankCap) revert BankCapExceeded() */\n    tag_63:\n        /* \"contracts/KipuBank.sol\":3115:3124  msg.value */\n      callvalue\n        /* \"contracts/KipuBank.sol\":3091:3099  balances */\n      0x00\n        /* \"contracts/KipuBank.sol\":3091:3111  balances[msg.sender] */\n      dup1\n        /* \"contracts/KipuBank.sol\":3100:3110  msg.sender */\n      caller\n        /* \"contracts/KipuBank.sol\":3091:3111  balances[msg.sender] */\n      0xffffffffffffffffffffffffffffffffffffffff\n      and\n      0xffffffffffffffffffffffffffffffffffffffff\n      and\n      dup2\n      mstore\n      0x20\n      add\n      swap1\n      dup2\n      mstore\n      0x20\n      add\n      0x00\n      keccak256\n      0x00\n        /* \"contracts/KipuBank.sol\":3091:3124  balances[msg.sender] += msg.value */\n      dup3\n      dup3\n      sload\n      tag_64\n      swap2\n      swap1\n      tag_62\n      jump\t// in\n    tag_64:\n      swap3\n      pop\n      pop\n      dup2\n      swap1\n      sstore\n      pop\n        /* \"contracts/KipuBank.sol\":3199:3200  1 */\n      0x01\n        /* \"contracts/KipuBank.sol\":3182:3195  totalDeposits */\n      dup1\n      0x00\n        /* \"contracts/KipuBank.sol\":3182:3200  totalDeposits += 1 */\n      dup3\n      dup3\n      sload\n      tag_65\n      swap2\n      swap1\n      tag_62\n      jump\t// in\n    tag_65:\n      swap3\n      pop\n      pop\n      dup2\n      swap1\n      sstore\n      pop\n        /* \"contracts/KipuBank.sol\":3230:3240  msg.sender */\n      caller\n        /* \"contracts/KipuBank.sol\":3218:3252  Deposit_Eth(msg.sender, msg.value) */\n      0xffffffffffffffffffffffffffffffffffffffff\n      and\n      0x6422818a720076fbacc37e6fe0be51494c1e5683d3173a4ad0d896f1aeb4ddbf\n        /* \"contracts/KipuBank.sol\":3242:3251  msg.value */\n      callvalue\n        /* \"contracts/KipuBank.sol\":3218:3252  Deposit_Eth(msg.sender, msg.value) */\n      mload(0x40)\n      tag_66\n      swap2\n      swap1\n      tag_15\n      jump\t// in\n    tag_66:\n      mload(0x40)\n      dup1\n      swap2\n      sub\n      swap1\n      log2\n        /* \"contracts/KipuBank.sol\":2906:3260  function deposit() external payable {\r... */\n      jump\t// out\n        /* \"contracts/KipuBank.sol\":1157:1189  uint256 public immutable bankCap */\n    tag_43:\n      immutable(\"0x81e080ffc23e8b8d44dd829bc823229e92b893eb1d8f624419d3f5682eb97fc3\")\n      dup2\n      jump\t// out\n        /* \"contracts/KipuBank.sol\":4212:4509  function _transferEth(address payable to, uint256 amount) private {\r... */\n    tag_57:\n        /* \"contracts/KipuBank.sol\":4290:4302  bool success */\n      0x00\n        /* \"contracts/KipuBank.sol\":4304:4326  bytes memory errorData */\n      dup1\n        /* \"contracts/KipuBank.sol\":4330:4332  to */\n      dup4\n        /* \"contracts/KipuBank.sol\":4330:4337  to.call */\n      0xffffffffffffffffffffffffffffffffffffffff\n      and\n        /* \"contracts/KipuBank.sol\":4345:4351  amount */\n      dup4\n        /* \"contracts/KipuBank.sol\":4330:4356  to.call{value: amount}(\"\") */\n      mload(0x40)\n      tag_68\n      swap1\n      tag_69\n      jump\t// in\n    tag_68:\n      0x00\n      mload(0x40)\n      dup1\n      dup4\n      sub\n      dup2\n      dup6\n      dup8\n      gas\n      call\n      swap3\n      pop\n      pop\n      pop\n      returndatasize\n      dup1\n      0x00\n      dup2\n      eq\n      tag_72\n      jumpi\n      mload(0x40)\n      swap2\n      pop\n      and(add(returndatasize, 0x3f), not(0x1f))\n      dup3\n      add\n      0x40\n      mstore\n      returndatasize\n      dup3\n      mstore\n      returndatasize\n      0x00\n      0x20\n      dup5\n      add\n      returndatacopy\n      jump(tag_71)\n    tag_72:\n      0x60\n      swap2\n      pop\n    tag_71:\n      pop\n        /* \"contracts/KipuBank.sol\":4289:4356  (bool success, bytes memory errorData) = to.call{value: amount}(\"\") */\n      swap2\n      pop\n      swap2\n      pop\n        /* \"contracts/KipuBank.sol\":4372:4379  success */\n      dup2\n        /* \"contracts/KipuBank.sol\":4367:4502  if (!success) {\r... */\n      tag_73\n      jumpi\n        /* \"contracts/KipuBank.sol\":4480:4489  errorData */\n      dup1\n        /* \"contracts/KipuBank.sol\":4463:4490  WithdrawalFailed(errorData) */\n      mload(0x40)\n      0x49ba945b00000000000000000000000000000000000000000000000000000000\n      dup2\n      mstore\n      0x04\n      add\n      tag_74\n      swap2\n      swap1\n      tag_75\n      jump\t// in\n    tag_74:\n      mload(0x40)\n      dup1\n      swap2\n      sub\n      swap1\n      revert\n        /* \"contracts/KipuBank.sol\":4367:4502  if (!success) {\r... */\n    tag_73:\n        /* \"contracts/KipuBank.sol\":4278:4509  {\r... */\n      pop\n      pop\n        /* \"contracts/KipuBank.sol\":4212:4509  function _transferEth(address payable to, uint256 amount) private {\r... */\n      pop\n      pop\n      jump\t// out\n        /* \"#utility.yul\":7:146   */\n    tag_77:\n        /* \"#utility.yul\":53:58   */\n      0x00\n        /* \"#utility.yul\":91:97   */\n      dup2\n        /* \"#utility.yul\":78:98   */\n      calldataload\n        /* \"#utility.yul\":69:98   */\n      swap1\n      pop\n        /* \"#utility.yul\":107:140   */\n      tag_79\n        /* \"#utility.yul\":134:139   */\n      dup2\n        /* \"#utility.yul\":107:140   */\n      tag_80\n      jump\t// in\n    tag_79:\n        /* \"#utility.yul\":7:146   */\n      swap3\n      swap2\n      pop\n      pop\n      jump\t// out\n        /* \"#utility.yul\":152:291   */\n    tag_81:\n        /* \"#utility.yul\":198:203   */\n      0x00\n        /* \"#utility.yul\":236:242   */\n      dup2\n        /* \"#utility.yul\":223:243   */\n      calldataload\n        /* \"#utility.yul\":214:243   */\n      swap1\n      pop\n        /* \"#utility.yul\":252:285   */\n      tag_83\n        /* \"#utility.yul\":279:284   */\n      dup2\n        /* \"#utility.yul\":252:285   */\n      tag_84\n      jump\t// in\n    tag_83:\n        /* \"#utility.yul\":152:291   */\n      swap3\n      swap2\n      pop\n      pop\n      jump\t// out\n        /* \"#utility.yul\":297:626   */\n    tag_19:\n        /* \"#utility.yul\":356:362   */\n      0x00\n        /* \"#utility.yul\":405:407   */\n      0x20\n        /* \"#utility.yul\":393:402   */\n      dup3\n        /* \"#utility.yul\":384:391   */\n      dup5\n        /* \"#utility.yul\":380:403   */\n      sub\n        /* \"#utility.yul\":376:408   */\n      slt\n        /* \"#utility.yul\":373:492   */\n      iszero\n      tag_86\n      jumpi\n        /* \"#utility.yul\":411:490   */\n      tag_87\n      tag_88\n      jump\t// in\n    tag_87:\n        /* \"#utility.yul\":373:492   */\n    tag_86:\n        /* \"#utility.yul\":531:532   */\n      0x00\n        /* \"#utility.yul\":556:609   */\n      tag_89\n        /* \"#utility.yul\":601:608   */\n      dup5\n        /* \"#utility.yul\":592:598   */\n      dup3\n        /* \"#utility.yul\":581:590   */\n      dup6\n        /* \"#utility.yul\":577:599   */\n      add\n        /* \"#utility.yul\":556:609   */\n      tag_77\n      jump\t// in\n    tag_89:\n        /* \"#utility.yul\":546:609   */\n      swap2\n      pop\n        /* \"#utility.yul\":502:619   */\n      pop\n        /* \"#utility.yul\":297:626   */\n      swap3\n      swap2\n      pop\n      pop\n      jump\t// out\n        /* \"#utility.yul\":632:961   */\n    tag_37:\n        /* \"#utility.yul\":691:697   */\n      0x00\n        /* \"#utility.yul\":740:742   */\n      0x20\n        /* \"#utility.yul\":728:737   */\n      dup3\n        /* \"#utility.yul\":719:726   */\n      dup5\n        /* \"#utility.yul\":715:738   */\n      sub\n        /* \"#utility.yul\":711:743   */\n      slt\n        /* \"#utility.yul\":708:827   */\n      iszero\n      tag_91\n      jumpi\n        /* \"#utility.yul\":746:825   */\n      tag_92\n      tag_88\n      jump\t// in\n    tag_92:\n        /* \"#utility.yul\":708:827   */\n    tag_91:\n        /* \"#utility.yul\":866:867   */\n      0x00\n        /* \"#utility.yul\":891:944   */\n      tag_93\n        /* \"#utility.yul\":936:943   */\n      dup5\n        /* \"#utility.yul\":927:933   */\n      dup3\n        /* \"#utility.yul\":916:925   */\n      dup6\n        /* \"#utility.yul\":912:934   */\n      add\n        /* \"#utility.yul\":891:944   */\n      tag_81\n      jump\t// in\n    tag_93:\n        /* \"#utility.yul\":881:944   */\n      swap2\n      pop\n        /* \"#utility.yul\":837:954   */\n      pop\n        /* \"#utility.yul\":632:961   */\n      swap3\n      swap2\n      pop\n      pop\n      jump\t// out\n        /* \"#utility.yul\":967:1327   */\n    tag_94:\n        /* \"#utility.yul\":1053:1056   */\n      0x00\n        /* \"#utility.yul\":1081:1119   */\n      tag_96\n        /* \"#utility.yul\":1113:1118   */\n      dup3\n        /* \"#utility.yul\":1081:1119   */\n      tag_97\n      jump\t// in\n    tag_96:\n        /* \"#utility.yul\":1135:1205   */\n      tag_98\n        /* \"#utility.yul\":1198:1204   */\n      dup2\n        /* \"#utility.yul\":1193:1196   */\n      dup6\n        /* \"#utility.yul\":1135:1205   */\n      tag_99\n      jump\t// in\n    tag_98:\n        /* \"#utility.yul\":1128:1205   */\n      swap4\n      pop\n        /* \"#utility.yul\":1214:1266   */\n      tag_100\n        /* \"#utility.yul\":1259:1265   */\n      dup2\n        /* \"#utility.yul\":1254:1257   */\n      dup6\n        /* \"#utility.yul\":1247:1251   */\n      0x20\n        /* \"#utility.yul\":1240:1245   */\n      dup7\n        /* \"#utility.yul\":1236:1252   */\n      add\n        /* \"#utility.yul\":1214:1266   */\n      tag_101\n      jump\t// in\n    tag_100:\n        /* \"#utility.yul\":1291:1320   */\n      tag_102\n        /* \"#utility.yul\":1313:1319   */\n      dup2\n        /* \"#utility.yul\":1291:1320   */\n      tag_103\n      jump\t// in\n    tag_102:\n        /* \"#utility.yul\":1286:1289   */\n      dup5\n        /* \"#utility.yul\":1282:1321   */\n      add\n        /* \"#utility.yul\":1275:1321   */\n      swap2\n      pop\n        /* \"#utility.yul\":1057:1327   */\n      pop\n        /* \"#utility.yul\":967:1327   */\n      swap3\n      swap2\n      pop\n      pop\n      jump\t// out\n        /* \"#utility.yul\":1333:1731   */\n    tag_104:\n        /* \"#utility.yul\":1492:1495   */\n      0x00\n        /* \"#utility.yul\":1513:1596   */\n      tag_106\n        /* \"#utility.yul\":1594:1595   */\n      0x00\n        /* \"#utility.yul\":1589:1592   */\n      dup4\n        /* \"#utility.yul\":1513:1596   */\n      tag_107\n      jump\t// in\n    tag_106:\n        /* \"#utility.yul\":1506:1596   */\n      swap2\n      pop\n        /* \"#utility.yul\":1605:1698   */\n      tag_108\n        /* \"#utility.yul\":1694:1697   */\n      dup3\n        /* \"#utility.yul\":1605:1698   */\n      tag_109\n      jump\t// in\n    tag_108:\n        /* \"#utility.yul\":1723:1724   */\n      0x00\n        /* \"#utility.yul\":1718:1721   */\n      dup3\n        /* \"#utility.yul\":1714:1725   */\n      add\n        /* \"#utility.yul\":1707:1725   */\n      swap1\n      pop\n        /* \"#utility.yul\":1333:1731   */\n      swap2\n      swap1\n      pop\n      jump\t// out\n        /* \"#utility.yul\":1737:1855   */\n    tag_110:\n        /* \"#utility.yul\":1824:1848   */\n      tag_112\n        /* \"#utility.yul\":1842:1847   */\n      dup2\n        /* \"#utility.yul\":1824:1848   */\n      tag_113\n      jump\t// in\n    tag_112:\n        /* \"#utility.yul\":1819:1822   */\n      dup3\n        /* \"#utility.yul\":1812:1849   */\n      mstore\n        /* \"#utility.yul\":1737:1855   */\n      pop\n      pop\n      jump\t// out\n        /* \"#utility.yul\":1861:2240   */\n    tag_69:\n        /* \"#utility.yul\":2045:2048   */\n      0x00\n        /* \"#utility.yul\":2067:2214   */\n      tag_115\n        /* \"#utility.yul\":2210:2213   */\n      dup3\n        /* \"#utility.yul\":2067:2214   */\n      tag_104\n      jump\t// in\n    tag_115:\n        /* \"#utility.yul\":2060:2214   */\n      swap2\n      pop\n        /* \"#utility.yul\":2231:2234   */\n      dup2\n        /* \"#utility.yul\":2224:2234   */\n      swap1\n      pop\n        /* \"#utility.yul\":1861:2240   */\n      swap2\n      swap1\n      pop\n      jump\t// out\n        /* \"#utility.yul\":2246:2555   */\n    tag_75:\n        /* \"#utility.yul\":2357:2361   */\n      0x00\n        /* \"#utility.yul\":2395:2397   */\n      0x20\n        /* \"#utility.yul\":2384:2393   */\n      dup3\n        /* \"#utility.yul\":2380:2398   */\n      add\n        /* \"#utility.yul\":2372:2398   */\n      swap1\n      pop\n        /* \"#utility.yul\":2444:2453   */\n      dup2\n        /* \"#utility.yul\":2438:2442   */\n      dup2\n        /* \"#utility.yul\":2434:2454   */\n      sub\n        /* \"#utility.yul\":2430:2431   */\n      0x00\n        /* \"#utility.yul\":2419:2428   */\n      dup4\n        /* \"#utility.yul\":2415:2432   */\n      add\n        /* \"#utility.yul\":2408:2455   */\n      mstore\n        /* \"#utility.yul\":2472:2548   */\n      tag_117\n        /* \"#utility.yul\":2543:2547   */\n      dup2\n        /* \"#utility.yul\":2534:2540   */\n      dup5\n        /* \"#utility.yul\":2472:2548   */\n      tag_94\n      jump\t// in\n    tag_117:\n        /* \"#utility.yul\":2464:2548   */\n      swap1\n      pop\n        /* \"#utility.yul\":2246:2555   */\n      swap3\n      swap2\n      pop\n      pop\n      jump\t// out\n        /* \"#utility.yul\":2561:2783   */\n    tag_15:\n        /* \"#utility.yul\":2654:2658   */\n      0x00\n        /* \"#utility.yul\":2692:2694   */\n      0x20\n        /* \"#utility.yul\":2681:2690   */\n      dup3\n        /* \"#utility.yul\":2677:2695   */\n      add\n        /* \"#utility.yul\":2669:2695   */\n      swap1\n      pop\n        /* \"#utility.yul\":2705:2776   */\n      tag_119\n        /* \"#utility.yul\":2773:2774   */\n      0x00\n        /* \"#utility.yul\":2762:2771   */\n      dup4\n        /* \"#utility.yul\":2758:2775   */\n      add\n        /* \"#utility.yul\":2749:2755   */\n      dup5\n        /* \"#utility.yul\":2705:2776   */\n      tag_110\n      jump\t// in\n    tag_119:\n        /* \"#utility.yul\":2561:2783   */\n      swap3\n      swap2\n      pop\n      pop\n      jump\t// out\n        /* \"#utility.yul\":2870:2968   */\n    tag_97:\n        /* \"#utility.yul\":2921:2927   */\n      0x00\n        /* \"#utility.yul\":2955:2960   */\n      dup2\n        /* \"#utility.yul\":2949:2961   */\n      mload\n        /* \"#utility.yul\":2939:2961   */\n      swap1\n      pop\n        /* \"#utility.yul\":2870:2968   */\n      swap2\n      swap1\n      pop\n      jump\t// out\n        /* \"#utility.yul\":2974:3142   */\n    tag_99:\n        /* \"#utility.yul\":3057:3068   */\n      0x00\n        /* \"#utility.yul\":3091:3097   */\n      dup3\n        /* \"#utility.yul\":3086:3089   */\n      dup3\n        /* \"#utility.yul\":3079:3098   */\n      mstore\n        /* \"#utility.yul\":3131:3135   */\n      0x20\n        /* \"#utility.yul\":3126:3129   */\n      dup3\n        /* \"#utility.yul\":3122:3136   */\n      add\n        /* \"#utility.yul\":3107:3136   */\n      swap1\n      pop\n        /* \"#utility.yul\":2974:3142   */\n      swap3\n      swap2\n      pop\n      pop\n      jump\t// out\n        /* \"#utility.yul\":3148:3295   */\n    tag_107:\n        /* \"#utility.yul\":3249:3260   */\n      0x00\n        /* \"#utility.yul\":3286:3289   */\n      dup2\n        /* \"#utility.yul\":3271:3289   */\n      swap1\n      pop\n        /* \"#utility.yul\":3148:3295   */\n      swap3\n      swap2\n      pop\n      pop\n      jump\t// out\n        /* \"#utility.yul\":3301:3606   */\n    tag_62:\n        /* \"#utility.yul\":3341:3344   */\n      0x00\n        /* \"#utility.yul\":3360:3380   */\n      tag_126\n        /* \"#utility.yul\":3378:3379   */\n      dup3\n        /* \"#utility.yul\":3360:3380   */\n      tag_113\n      jump\t// in\n    tag_126:\n        /* \"#utility.yul\":3355:3380   */\n      swap2\n      pop\n        /* \"#utility.yul\":3394:3414   */\n      tag_127\n        /* \"#utility.yul\":3412:3413   */\n      dup4\n        /* \"#utility.yul\":3394:3414   */\n      tag_113\n      jump\t// in\n    tag_127:\n        /* \"#utility.yul\":3389:3414   */\n      swap3\n      pop\n        /* \"#utility.yul\":3548:3549   */\n      dup3\n        /* \"#utility.yul\":3480:3546   */\n      0xffffffffffffffffffffffffffffffffffffffffffffffffffffffffffffffff\n        /* \"#utility.yul\":3476:3550   */\n      sub\n        /* \"#utility.yul\":3473:3474   */\n      dup3\n        /* \"#utility.yul\":3470:3551   */\n      gt\n        /* \"#utility.yul\":3467:3574   */\n      iszero\n      tag_128\n      jumpi\n        /* \"#utility.yul\":3554:3572   */\n      tag_129\n      tag_130\n      jump\t// in\n    tag_129:\n        /* \"#utility.yul\":3467:3574   */\n    tag_128:\n        /* \"#utility.yul\":3598:3599   */\n      dup3\n        /* \"#utility.yul\":3595:3596   */\n      dup3\n        /* \"#utility.yul\":3591:3600   */\n      add\n        /* \"#utility.yul\":3584:3600   */\n      swap1\n      pop\n        /* \"#utility.yul\":3301:3606   */\n      swap3\n      swap2\n      pop\n      pop\n      jump\t// out\n        /* \"#utility.yul\":3612:3803   */\n    tag_53:\n        /* \"#utility.yul\":3652:3656   */\n      0x00\n        /* \"#utility.yul\":3672:3692   */\n      tag_132\n        /* \"#utility.yul\":3690:3691   */\n      dup3\n        /* \"#utility.yul\":3672:3692   */\n      tag_113\n      jump\t// in\n    tag_132:\n        /* \"#utility.yul\":3667:3692   */\n      swap2\n      pop\n        /* \"#utility.yul\":3706:3726   */\n      tag_133\n        /* \"#utility.yul\":3724:3725   */\n      dup4\n        /* \"#utility.yul\":3706:3726   */\n      tag_113\n      jump\t// in\n    tag_133:\n        /* \"#utility.yul\":3701:3726   */\n      swap3\n      pop\n        /* \"#utility.yul\":3745:3746   */\n      dup3\n        /* \"#utility.yul\":3742:3743   */\n      dup3\n        /* \"#utility.yul\":3739:3747   */\n      lt\n        /* \"#utility.yul\":3736:3770   */\n      iszero\n      tag_134\n      jumpi\n        /* \"#utility.yul\":3750:3768   */\n      tag_135\n      tag_130\n      jump\t// in\n    tag_135:\n        /* \"#utility.yul\":3736:3770   */\n    tag_134:\n        /* \"#utility.yul\":3795:3796   */\n      dup3\n        /* \"#utility.yul\":3792:3793   */\n      dup3\n        /* \"#utility.yul\":3788:3797   */\n      sub\n        /* \"#utility.yul\":3780:3797   */\n      swap1\n      pop\n        /* \"#utility.yul\":3612:3803   */\n      swap3\n      swap2\n      pop\n      pop\n      jump\t// out\n        /* \"#utility.yul\":3809:3905   */\n    tag_136:\n        /* \"#utility.yul\":3846:3853   */\n      0x00\n        /* \"#utility.yul\":3875:3899   */\n      tag_138\n        /* \"#utility.yul\":3893:3898   */\n      dup3\n        /* \"#utility.yul\":3875:3899   */\n      tag_139\n      jump\t// in\n    tag_138:\n        /* \"#utility.yul\":3864:3899   */\n      swap1\n      pop\n        /* \"#utility.yul\":3809:3905   */\n      swap2\n      swap1\n      pop\n      jump\t// out\n        /* \"#utility.yul\":3911:4037   */\n    tag_139:\n        /* \"#utility.yul\":3948:3955   */\n      0x00\n        /* \"#utility.yul\":3988:4030   */\n      0xffffffffffffffffffffffffffffffffffffffff\n        /* \"#utility.yul\":3981:3986   */\n      dup3\n        /* \"#utility.yul\":3977:4031   */\n      and\n        /* \"#utility.yul\":3966:4031   */\n      swap1\n      pop\n        /* \"#utility.yul\":3911:4037   */\n      swap2\n      swap1\n      pop\n      jump\t// out\n        /* \"#utility.yul\":4043:4120   */\n    tag_113:\n        /* \"#utility.yul\":4080:4087   */\n      0x00\n        /* \"#utility.yul\":4109:4114   */\n      dup2\n        /* \"#utility.yul\":4098:4114   */\n      swap1\n      pop\n        /* \"#utility.yul\":4043:4120   */\n      swap2\n      swap1\n      pop\n      jump\t// out\n        /* \"#utility.yul\":4126:4433   */\n    tag_101:\n        /* \"#utility.yul\":4194:4195   */\n      0x00\n        /* \"#utility.yul\":4204:4317   */\n    tag_143:\n        /* \"#utility.yul\":4218:4224   */\n      dup4\n        /* \"#utility.yul\":4215:4216   */\n      dup2\n        /* \"#utility.yul\":4212:4225   */\n      lt\n        /* \"#utility.yul\":4204:4317   */\n      iszero\n      tag_145\n      jumpi\n        /* \"#utility.yul\":4303:4304   */\n      dup1\n        /* \"#utility.yul\":4298:4301   */\n      dup3\n        /* \"#utility.yul\":4294:4305   */\n      add\n        /* \"#utility.yul\":4288:4306   */\n      mload\n        /* \"#utility.yul\":4284:4285   */\n      dup2\n        /* \"#utility.yul\":4279:4282   */\n      dup5\n        /* \"#utility.yul\":4275:4286   */\n      add\n        /* \"#utility.yul\":4268:4307   */\n      mstore\n        /* \"#utility.yul\":4240:4242   */\n      0x20\n        /* \"#utility.yul\":4237:4238   */\n      dup2\n        /* \"#utility.yul\":4233:4243   */\n      add\n        /* \"#utility.yul\":4228:4243   */\n      swap1\n      pop\n        /* \"#utility.yul\":4204:4317   */\n      jump(tag_143)\n    tag_145:\n        /* \"#utility.yul\":4335:4341   */\n      dup4\n        /* \"#utility.yul\":4332:4333   */\n      dup2\n        /* \"#utility.yul\":4329:4342   */\n      gt\n        /* \"#utility.yul\":4326:4427   */\n      iszero\n      tag_146\n      jumpi\n        /* \"#utility.yul\":4415:4416   */\n      0x00\n        /* \"#utility.yul\":4406:4412   */\n      dup5\n        /* \"#utility.yul\":4401:4404   */\n      dup5\n        /* \"#utility.yul\":4397:4413   */\n      add\n        /* \"#utility.yul\":4390:4417   */\n      mstore\n        /* \"#utility.yul\":4326:4427   */\n    tag_146:\n        /* \"#utility.yul\":4175:4433   */\n      pop\n        /* \"#utility.yul\":4126:4433   */\n      pop\n      pop\n      pop\n      jump\t// out\n        /* \"#utility.yul\":4439:4672   */\n    tag_55:\n        /* \"#utility.yul\":4478:4481   */\n      0x00\n        /* \"#utility.yul\":4501:4525   */\n      tag_148\n        /* \"#utility.yul\":4519:4524   */\n      dup3\n        /* \"#utility.yul\":4501:4525   */\n      tag_113\n      jump\t// in\n    tag_148:\n        /* \"#utility.yul\":4492:4525   */\n      swap2\n      pop\n        /* \"#utility.yul\":4547:4613   */\n      0xffffffffffffffffffffffffffffffffffffffffffffffffffffffffffffffff\n        /* \"#utility.yul\":4540:4545   */\n      dup3\n        /* \"#utility.yul\":4537:4614   */\n      eq\n        /* \"#utility.yul\":4534:4637   */\n      iszero\n      tag_149\n      jumpi\n        /* \"#utility.yul\":4617:4635   */\n      tag_150\n      tag_130\n      jump\t// in\n    tag_150:\n        /* \"#utility.yul\":4534:4637   */\n    tag_149:\n        /* \"#utility.yul\":4664:4665   */\n      0x01\n        /* \"#utility.yul\":4657:4662   */\n      dup3\n        /* \"#utility.yul\":4653:4666   */\n      add\n        /* \"#utility.yul\":4646:4666   */\n      swap1\n      pop\n        /* \"#utility.yul\":4439:4672   */\n      swap2\n      swap1\n      pop\n      jump\t// out\n        /* \"#utility.yul\":4678:4858   */\n    tag_130:\n        /* \"#utility.yul\":4726:4803   */\n      0x4e487b7100000000000000000000000000000000000000000000000000000000\n        /* \"#utility.yul\":4723:4724   */\n      0x00\n        /* \"#utility.yul\":4716:4804   */\n      mstore\n        /* \"#utility.yul\":4823:4827   */\n      0x11\n        /* \"#utility.yul\":4820:4821   */\n      0x04\n        /* \"#utility.yul\":4813:4828   */\n      mstore\n        /* \"#utility.yul\":4847:4851   */\n      0x24\n        /* \"#utility.yul\":4844:4845   */\n      0x00\n        /* \"#utility.yul\":4837:4852   */\n      revert\n        /* \"#utility.yul\":4987:5104   */\n    tag_88:\n        /* \"#utility.yul\":5096:5097   */\n      0x00\n        /* \"#utility.yul\":5093:5094   */\n      dup1\n        /* \"#utility.yul\":5086:5098   */\n      revert\n        /* \"#utility.yul\":5110:5212   */\n    tag_103:\n        /* \"#utility.yul\":5151:5157   */\n      0x00\n        /* \"#utility.yul\":5202:5204   */\n      0x1f\n        /* \"#utility.yul\":5198:5205   */\n      not\n        /* \"#utility.yul\":5193:5195   */\n      0x1f\n        /* \"#utility.yul\":5186:5191   */\n      dup4\n        /* \"#utility.yul\":5182:5196   */\n      add\n        /* \"#utility.yul\":5178:5206   */\n      and\n        /* \"#utility.yul\":5168:5206   */\n      swap1\n      pop\n        /* \"#utility.yul\":5110:5212   */\n      swap2\n      swap1\n      pop\n      jump\t// out\n        /* \"#utility.yul\":5218:5332   */\n    tag_109:\n      pop\n      jump\t// out\n        /* \"#utility.yul\":5338:5460   */\n    tag_80:\n        /* \"#utility.yul\":5411:5435   */\n      tag_158\n        /* \"#utility.yul\":5429:5434   */\n      dup2\n        /* \"#utility.yul\":5411:5435   */\n      tag_136\n      jump\t// in\n    tag_158:\n        /* \"#utility.yul\":5404:5409   */\n      dup2\n        /* \"#utility.yul\":5401:5436   */\n      eq\n        /* \"#utility.yul\":5391:5454   */\n      tag_159\n      jumpi\n        /* \"#utility.yul\":5450:5451   */\n      0x00\n        /* \"#utility.yul\":5447:5448   */\n      dup1\n        /* \"#utility.yul\":5440:5452   */\n      revert\n        /* \"#utility.yul\":5391:5454   */\n    tag_159:\n        /* \"#utility.yul\":5338:5460   */\n      pop\n      jump\t// out\n        /* \"#utility.yul\":5466:5588   */\n    tag_84:\n        /* \"#utility.yul\":5539:5563   */\n      tag_161\n        /* \"#utility.yul\":5557:5562   */\n      dup2\n        /* \"#utility.yul\":5539:5563   */\n      tag_113\n      jump\t// in\n    tag_161:\n        /* \"#utility.yul\":5532:5537   */\n      dup2\n        /* \"#utility.yul\":5529:5564   */\n      eq\n        /* \"#utility.yul\":5519:5582   */\n      tag_162\n      jumpi\n        /* \"#utility.yul\":5578:5579   */\n      0x00\n        /* \"#utility.yul\":5575:5576   */\n      dup1\n        /* \"#utility.yul\":5568:5580   */\n      revert\n        /* \"#utility.yul\":5519:5582   */\n    tag_162:\n        /* \"#utility.yul\":5466:5588   */\n      pop\n      jump\t// out\n\n    auxdata: 0xa2646970667358221220ddbda723e70802076a0ee4fdb318355223b34cbdbd9da0de9934721cab65a13f64736f6c63430008070033\n}\n",
				"bytecode": {
					"linkReferences": {},
					"object": "60c060405234801561001057600080fd5b50604051610b42380380610b428339818101604052810190610032919061005e565b81608081815250508060a0818152505050506100c4565b600081519050610058816100ad565b92915050565b60008060408385031215610075576100746100a8565b5b600061008385828601610049565b925050602061009485828601610049565b9150509250929050565b6000819050919050565b600080fd5b6100b68161009e565b81146100c157600080fd5b50565b60805160a051610a4b6100f7600039600081816104bc015261061d01526000818161023301526102cd0152610a4b6000f3fe60806040526004361061007b5760003560e01c80637ddfe78d1161004e5780637ddfe78d1461013e578063835fc6ca14610169578063d0e30db014610192578063ecbea24d1461019c5761007b565b806312065fe01461008057806327e235e3146100ab57806360464627146100e85780637d88209714610113575b600080fd5b34801561008c57600080fd5b506100956101c7565b6040516100a2919061081b565b60405180910390f35b3480156100b757600080fd5b506100d260048036038101906100cd919061071f565b61020d565b6040516100df919061081b565b60405180910390f35b3480156100f457600080fd5b506100fd610225565b60405161010a919061081b565b60405180910390f35b34801561011f57600080fd5b5061012861022b565b604051610135919061081b565b60405180910390f35b34801561014a57600080fd5b50610153610231565b604051610160919061081b565b60405180910390f35b34801561017557600080fd5b50610190600480360381019061018b919061074c565b610255565b005b61019a61047f565b005b3480156101a857600080fd5b506101b161061b565b6040516101be919061081b565b60405180910390f35b60008060003373ffffffffffffffffffffffffffffffffffffffff1673ffffffffffffffffffffffffffffffffffffffff16815260200190815260200160002054905090565b60006020528060005260406000206000915090505481565b60025481565b60015481565b7f000000000000000000000000000000000000000000000000000000000000000081565b60001515600360009054906101000a900460ff1615151461027557600080fd5b6001600360006101000a81548160ff02191690831515021790555060008114156102cb576040517f2c5211c600000000000000000000000000000000000000000000000000000000815260040160405180910390fd5b7f0000000000000000000000000000000000000000000000000000000000000000811115610325576040517f4e6a369600000000000000000000000000000000000000000000000000000000815260040160405180910390fd5b6000803373ffffffffffffffffffffffffffffffffffffffff1673ffffffffffffffffffffffffffffffffffffffff1681526020019081526020016000205481111561039d576040517ff4d678b800000000000000000000000000000000000000000000000000000000815260040160405180910390fd5b806000803373ffffffffffffffffffffffffffffffffffffffff1673ffffffffffffffffffffffffffffffffffffffff16815260200190815260200160002060008282546103eb91906108b3565b925050819055506002600081548092919061040590610956565b9190505550610414338261063f565b3373ffffffffffffffffffffffffffffffffffffffff167e1096078fec844c999d38c0781933b78fee8144838b20e0de2e1808397bee1c82604051610459919061081b565b60405180910390a26000600360006101000a81548160ff02191690831515021790555050565b60003414156104ba576040517f2c5211c600000000000000000000000000000000000000000000000000000000815260040160405180910390fd5b7f0000000000000000000000000000000000000000000000000000000000000000346000803373ffffffffffffffffffffffffffffffffffffffff1673ffffffffffffffffffffffffffffffffffffffff16815260200190815260200160002054610525919061085d565b111561055d576040517f448f3ca800000000000000000000000000000000000000000000000000000000815260040160405180910390fd5b346000803373ffffffffffffffffffffffffffffffffffffffff1673ffffffffffffffffffffffffffffffffffffffff16815260200190815260200160002060008282546105ab919061085d565b9250508190555060018060008282546105c4919061085d565b925050819055503373ffffffffffffffffffffffffffffffffffffffff167f6422818a720076fbacc37e6fe0be51494c1e5683d3173a4ad0d896f1aeb4ddbf34604051610611919061081b565b60405180910390a2565b7f000000000000000000000000000000000000000000000000000000000000000081565b6000808373ffffffffffffffffffffffffffffffffffffffff1683604051610666906107e4565b60006040518083038185875af1925050503d80600081146106a3576040519150601f19603f3d011682016040523d82523d6000602084013e6106a8565b606091505b5091509150816106ef57806040517f49ba945b0000000000000000000000000000000000000000000000000000000081526004016106e691906107f9565b60405180910390fd5b50505050565b600081359050610704816109e7565b92915050565b600081359050610719816109fe565b92915050565b600060208284031215610735576107346109ce565b5b6000610743848285016106f5565b91505092915050565b600060208284031215610762576107616109ce565b5b60006107708482850161070a565b91505092915050565b600061078482610836565b61078e8185610841565b935061079e818560208601610923565b6107a7816109d3565b840191505092915050565b60006107bf600083610852565b91506107ca826109e4565b600082019050919050565b6107de81610919565b82525050565b60006107ef826107b2565b9150819050919050565b600060208201905081810360008301526108138184610779565b905092915050565b600060208201905061083060008301846107d5565b92915050565b600081519050919050565b600082825260208201905092915050565b600081905092915050565b600061086882610919565b915061087383610919565b9250827fffffffffffffffffffffffffffffffffffffffffffffffffffffffffffffffff038211156108a8576108a761099f565b5b828201905092915050565b60006108be82610919565b91506108c983610919565b9250828210156108dc576108db61099f565b5b828203905092915050565b60006108f2826108f9565b9050919050565b600073ffffffffffffffffffffffffffffffffffffffff82169050919050565b6000819050919050565b60005b83811015610941578082015181840152602081019050610926565b83811115610950576000848401525b50505050565b600061096182610919565b91507fffffffffffffffffffffffffffffffffffffffffffffffffffffffffffffffff8214156109945761099361099f565b5b600182019050919050565b7f4e487b7100000000000000000000000000000000000000000000000000000000600052601160045260246000fd5b600080fd5b6000601f19601f8301169050919050565b50565b6109f0816108e7565b81146109fb57600080fd5b50565b610a0781610919565b8114610a1257600080fd5b5056fea2646970667358221220ddbda723e70802076a0ee4fdb318355223b34cbdbd9da0de9934721cab65a13f64736f6c63430008070033",
					"opcodes": "PUSH1 0xC0 PUSH1 0x40 MSTORE CALLVALUE DUP1 ISZERO PUSH2 0x10 JUMPI PUSH1 0x0 DUP1 REVERT JUMPDEST POP PUSH1 0x40 MLOAD PUSH2 0xB42 CODESIZE SUB DUP1 PUSH2 0xB42 DUP4 CODECOPY DUP2 DUP2 ADD PUSH1 0x40 MSTORE DUP2 ADD SWAP1 PUSH2 0x32 SWAP2 SWAP1 PUSH2 0x5E JUMP JUMPDEST DUP2 PUSH1 0x80 DUP2 DUP2 MSTORE POP POP DUP1 PUSH1 0xA0 DUP2 DUP2 MSTORE POP POP POP POP PUSH2 0xC4 JUMP JUMPDEST PUSH1 0x0 DUP2 MLOAD SWAP1 POP PUSH2 0x58 DUP2 PUSH2 0xAD JUMP JUMPDEST SWAP3 SWAP2 POP POP JUMP JUMPDEST PUSH1 0x0 DUP1 PUSH1 0x40 DUP4 DUP6 SUB SLT ISZERO PUSH2 0x75 JUMPI PUSH2 0x74 PUSH2 0xA8 JUMP JUMPDEST JUMPDEST PUSH1 0x0 PUSH2 0x83 DUP6 DUP3 DUP7 ADD PUSH2 0x49 JUMP JUMPDEST SWAP3 POP POP PUSH1 0x20 PUSH2 0x94 DUP6 DUP3 DUP7 ADD PUSH2 0x49 JUMP JUMPDEST SWAP2 POP POP SWAP3 POP SWAP3 SWAP1 POP JUMP JUMPDEST PUSH1 0x0 DUP2 SWAP1 POP SWAP2 SWAP1 POP JUMP JUMPDEST PUSH1 0x0 DUP1 REVERT JUMPDEST PUSH2 0xB6 DUP2 PUSH2 0x9E JUMP JUMPDEST DUP2 EQ PUSH2 0xC1 JUMPI PUSH1 0x0 DUP1 REVERT JUMPDEST POP JUMP JUMPDEST PUSH1 0x80 MLOAD PUSH1 0xA0 MLOAD PUSH2 0xA4B PUSH2 0xF7 PUSH1 0x0 CODECOPY PUSH1 0x0 DUP2 DUP2 PUSH2 0x4BC ADD MSTORE PUSH2 0x61D ADD MSTORE PUSH1 0x0 DUP2 DUP2 PUSH2 0x233 ADD MSTORE PUSH2 0x2CD ADD MSTORE PUSH2 0xA4B PUSH1 0x0 RETURN INVALID PUSH1 0x80 PUSH1 0x40 MSTORE PUSH1 0x4 CALLDATASIZE LT PUSH2 0x7B JUMPI PUSH1 0x0 CALLDATALOAD PUSH1 0xE0 SHR DUP1 PUSH4 0x7DDFE78D GT PUSH2 0x4E JUMPI DUP1 PUSH4 0x7DDFE78D EQ PUSH2 0x13E JUMPI DUP1 PUSH4 0x835FC6CA EQ PUSH2 0x169 JUMPI DUP1 PUSH4 0xD0E30DB0 EQ PUSH2 0x192 JUMPI DUP1 PUSH4 0xECBEA24D EQ PUSH2 0x19C JUMPI PUSH2 0x7B JUMP JUMPDEST DUP1 PUSH4 0x12065FE0 EQ PUSH2 0x80 JUMPI DUP1 PUSH4 0x27E235E3 EQ PUSH2 0xAB JUMPI DUP1 PUSH4 0x60464627 EQ PUSH2 0xE8 JUMPI DUP1 PUSH4 0x7D882097 EQ PUSH2 0x113 JUMPI JUMPDEST PUSH1 0x0 DUP1 REVERT JUMPDEST CALLVALUE DUP1 ISZERO PUSH2 0x8C JUMPI PUSH1 0x0 DUP1 REVERT JUMPDEST POP PUSH2 0x95 PUSH2 0x1C7 JUMP JUMPDEST PUSH1 0x40 MLOAD PUSH2 0xA2 SWAP2 SWAP1 PUSH2 0x81B JUMP JUMPDEST PUSH1 0x40 MLOAD DUP1 SWAP2 SUB SWAP1 RETURN JUMPDEST CALLVALUE DUP1 ISZERO PUSH2 0xB7 JUMPI PUSH1 0x0 DUP1 REVERT JUMPDEST POP PUSH2 0xD2 PUSH1 0x4 DUP1 CALLDATASIZE SUB DUP2 ADD SWAP1 PUSH2 0xCD SWAP2 SWAP1 PUSH2 0x71F JUMP JUMPDEST PUSH2 0x20D JUMP JUMPDEST PUSH1 0x40 MLOAD PUSH2 0xDF SWAP2 SWAP1 PUSH2 0x81B JUMP JUMPDEST PUSH1 0x40 MLOAD DUP1 SWAP2 SUB SWAP1 RETURN JUMPDEST CALLVALUE DUP1 ISZERO PUSH2 0xF4 JUMPI PUSH1 0x0 DUP1 REVERT JUMPDEST POP PUSH2 0xFD PUSH2 0x225 JUMP JUMPDEST PUSH1 0x40 MLOAD PUSH2 0x10A SWAP2 SWAP1 PUSH2 0x81B JUMP JUMPDEST PUSH1 0x40 MLOAD DUP1 SWAP2 SUB SWAP1 RETURN JUMPDEST CALLVALUE DUP1 ISZERO PUSH2 0x11F JUMPI PUSH1 0x0 DUP1 REVERT JUMPDEST POP PUSH2 0x128 PUSH2 0x22B JUMP JUMPDEST PUSH1 0x40 MLOAD PUSH2 0x135 SWAP2 SWAP1 PUSH2 0x81B JUMP JUMPDEST PUSH1 0x40 MLOAD DUP1 SWAP2 SUB SWAP1 RETURN JUMPDEST CALLVALUE DUP1 ISZERO PUSH2 0x14A JUMPI PUSH1 0x0 DUP1 REVERT JUMPDEST POP PUSH2 0x153 PUSH2 0x231 JUMP JUMPDEST PUSH1 0x40 MLOAD PUSH2 0x160 SWAP2 SWAP1 PUSH2 0x81B JUMP JUMPDEST PUSH1 0x40 MLOAD DUP1 SWAP2 SUB SWAP1 RETURN JUMPDEST CALLVALUE DUP1 ISZERO PUSH2 0x175 JUMPI PUSH1 0x0 DUP1 REVERT JUMPDEST POP PUSH2 0x190 PUSH1 0x4 DUP1 CALLDATASIZE SUB DUP2 ADD SWAP1 PUSH2 0x18B SWAP2 SWAP1 PUSH2 0x74C JUMP JUMPDEST PUSH2 0x255 JUMP JUMPDEST STOP JUMPDEST PUSH2 0x19A PUSH2 0x47F JUMP JUMPDEST STOP JUMPDEST CALLVALUE DUP1 ISZERO PUSH2 0x1A8 JUMPI PUSH1 0x0 DUP1 REVERT JUMPDEST POP PUSH2 0x1B1 PUSH2 0x61B JUMP JUMPDEST PUSH1 0x40 MLOAD PUSH2 0x1BE SWAP2 SWAP1 PUSH2 0x81B JUMP JUMPDEST PUSH1 0x40 MLOAD DUP1 SWAP2 SUB SWAP1 RETURN JUMPDEST PUSH1 0x0 DUP1 PUSH1 0x0 CALLER PUSH20 0xFFFFFFFFFFFFFFFFFFFFFFFFFFFFFFFFFFFFFFFF AND PUSH20 0xFFFFFFFFFFFFFFFFFFFFFFFFFFFFFFFFFFFFFFFF AND DUP2 MSTORE PUSH1 0x20 ADD SWAP1 DUP2 MSTORE PUSH1 0x20 ADD PUSH1 0x0 KECCAK256 SLOAD SWAP1 POP SWAP1 JUMP JUMPDEST PUSH1 0x0 PUSH1 0x20 MSTORE DUP1 PUSH1 0x0 MSTORE PUSH1 0x40 PUSH1 0x0 KECCAK256 PUSH1 0x0 SWAP2 POP SWAP1 POP SLOAD DUP2 JUMP JUMPDEST PUSH1 0x2 SLOAD DUP2 JUMP JUMPDEST PUSH1 0x1 SLOAD DUP2 JUMP JUMPDEST PUSH32 0x0 DUP2 JUMP JUMPDEST PUSH1 0x0 ISZERO ISZERO PUSH1 0x3 PUSH1 0x0 SWAP1 SLOAD SWAP1 PUSH2 0x100 EXP SWAP1 DIV PUSH1 0xFF AND ISZERO ISZERO EQ PUSH2 0x275 JUMPI PUSH1 0x0 DUP1 REVERT JUMPDEST PUSH1 0x1 PUSH1 0x3 PUSH1 0x0 PUSH2 0x100 EXP DUP2 SLOAD DUP2 PUSH1 0xFF MUL NOT AND SWAP1 DUP4 ISZERO ISZERO MUL OR SWAP1 SSTORE POP PUSH1 0x0 DUP2 EQ ISZERO PUSH2 0x2CB JUMPI PUSH1 0x40 MLOAD PUSH32 0x2C5211C600000000000000000000000000000000000000000000000000000000 DUP2 MSTORE PUSH1 0x4 ADD PUSH1 0x40 MLOAD DUP1 SWAP2 SUB SWAP1 REVERT JUMPDEST PUSH32 0x0 DUP2 GT ISZERO PUSH2 0x325 JUMPI PUSH1 0x40 MLOAD PUSH32 0x4E6A369600000000000000000000000000000000000000000000000000000000 DUP2 MSTORE PUSH1 0x4 ADD PUSH1 0x40 MLOAD DUP1 SWAP2 SUB SWAP1 REVERT JUMPDEST PUSH1 0x0 DUP1 CALLER PUSH20 0xFFFFFFFFFFFFFFFFFFFFFFFFFFFFFFFFFFFFFFFF AND PUSH20 0xFFFFFFFFFFFFFFFFFFFFFFFFFFFFFFFFFFFFFFFF AND DUP2 MSTORE PUSH1 0x20 ADD SWAP1 DUP2 MSTORE PUSH1 0x20 ADD PUSH1 0x0 KECCAK256 SLOAD DUP2 GT ISZERO PUSH2 0x39D JUMPI PUSH1 0x40 MLOAD PUSH32 0xF4D678B800000000000000000000000000000000000000000000000000000000 DUP2 MSTORE PUSH1 0x4 ADD PUSH1 0x40 MLOAD DUP1 SWAP2 SUB SWAP1 REVERT JUMPDEST DUP1 PUSH1 0x0 DUP1 CALLER PUSH20 0xFFFFFFFFFFFFFFFFFFFFFFFFFFFFFFFFFFFFFFFF AND PUSH20 0xFFFFFFFFFFFFFFFFFFFFFFFFFFFFFFFFFFFFFFFF AND DUP2 MSTORE PUSH1 0x20 ADD SWAP1 DUP2 MSTORE PUSH1 0x20 ADD PUSH1 0x0 KECCAK256 PUSH1 0x0 DUP3 DUP3 SLOAD PUSH2 0x3EB SWAP2 SWAP1 PUSH2 0x8B3 JUMP JUMPDEST SWAP3 POP POP DUP2 SWAP1 SSTORE POP PUSH1 0x2 PUSH1 0x0 DUP2 SLOAD DUP1 SWAP3 SWAP2 SWAP1 PUSH2 0x405 SWAP1 PUSH2 0x956 JUMP JUMPDEST SWAP2 SWAP1 POP SSTORE POP PUSH2 0x414 CALLER DUP3 PUSH2 0x63F JUMP JUMPDEST CALLER PUSH20 0xFFFFFFFFFFFFFFFFFFFFFFFFFFFFFFFFFFFFFFFF AND PUSH31 0x1096078FEC844C999D38C0781933B78FEE8144838B20E0DE2E1808397BEE1C DUP3 PUSH1 0x40 MLOAD PUSH2 0x459 SWAP2 SWAP1 PUSH2 0x81B JUMP JUMPDEST PUSH1 0x40 MLOAD DUP1 SWAP2 SUB SWAP1 LOG2 PUSH1 0x0 PUSH1 0x3 PUSH1 0x0 PUSH2 0x100 EXP DUP2 SLOAD DUP2 PUSH1 0xFF MUL NOT AND SWAP1 DUP4 ISZERO ISZERO MUL OR SWAP1 SSTORE POP POP JUMP JUMPDEST PUSH1 0x0 CALLVALUE EQ ISZERO PUSH2 0x4BA JUMPI PUSH1 0x40 MLOAD PUSH32 0x2C5211C600000000000000000000000000000000000000000000000000000000 DUP2 MSTORE PUSH1 0x4 ADD PUSH1 0x40 MLOAD DUP1 SWAP2 SUB SWAP1 REVERT JUMPDEST PUSH32 0x0 CALLVALUE PUSH1 0x0 DUP1 CALLER PUSH20 0xFFFFFFFFFFFFFFFFFFFFFFFFFFFFFFFFFFFFFFFF AND PUSH20 0xFFFFFFFFFFFFFFFFFFFFFFFFFFFFFFFFFFFFFFFF AND DUP2 MSTORE PUSH1 0x20 ADD SWAP1 DUP2 MSTORE PUSH1 0x20 ADD PUSH1 0x0 KECCAK256 SLOAD PUSH2 0x525 SWAP2 SWAP1 PUSH2 0x85D JUMP JUMPDEST GT ISZERO PUSH2 0x55D JUMPI PUSH1 0x40 MLOAD PUSH32 0x448F3CA800000000000000000000000000000000000000000000000000000000 DUP2 MSTORE PUSH1 0x4 ADD PUSH1 0x40 MLOAD DUP1 SWAP2 SUB SWAP1 REVERT JUMPDEST CALLVALUE PUSH1 0x0 DUP1 CALLER PUSH20 0xFFFFFFFFFFFFFFFFFFFFFFFFFFFFFFFFFFFFFFFF AND PUSH20 0xFFFFFFFFFFFFFFFFFFFFFFFFFFFFFFFFFFFFFFFF AND DUP2 MSTORE PUSH1 0x20 ADD SWAP1 DUP2 MSTORE PUSH1 0x20 ADD PUSH1 0x0 KECCAK256 PUSH1 0x0 DUP3 DUP3 SLOAD PUSH2 0x5AB SWAP2 SWAP1 PUSH2 0x85D JUMP JUMPDEST SWAP3 POP POP DUP2 SWAP1 SSTORE POP PUSH1 0x1 DUP1 PUSH1 0x0 DUP3 DUP3 SLOAD PUSH2 0x5C4 SWAP2 SWAP1 PUSH2 0x85D JUMP JUMPDEST SWAP3 POP POP DUP2 SWAP1 SSTORE POP CALLER PUSH20 0xFFFFFFFFFFFFFFFFFFFFFFFFFFFFFFFFFFFFFFFF AND PUSH32 0x6422818A720076FBACC37E6FE0BE51494C1E5683D3173A4AD0D896F1AEB4DDBF CALLVALUE PUSH1 0x40 MLOAD PUSH2 0x611 SWAP2 SWAP1 PUSH2 0x81B JUMP JUMPDEST PUSH1 0x40 MLOAD DUP1 SWAP2 SUB SWAP1 LOG2 JUMP JUMPDEST PUSH32 0x0 DUP2 JUMP JUMPDEST PUSH1 0x0 DUP1 DUP4 PUSH20 0xFFFFFFFFFFFFFFFFFFFFFFFFFFFFFFFFFFFFFFFF AND DUP4 PUSH1 0x40 MLOAD PUSH2 0x666 SWAP1 PUSH2 0x7E4 JUMP JUMPDEST PUSH1 0x0 PUSH1 0x40 MLOAD DUP1 DUP4 SUB DUP2 DUP6 DUP8 GAS CALL SWAP3 POP POP POP RETURNDATASIZE DUP1 PUSH1 0x0 DUP2 EQ PUSH2 0x6A3 JUMPI PUSH1 0x40 MLOAD SWAP2 POP PUSH1 0x1F NOT PUSH1 0x3F RETURNDATASIZE ADD AND DUP3 ADD PUSH1 0x40 MSTORE RETURNDATASIZE DUP3 MSTORE RETURNDATASIZE PUSH1 0x0 PUSH1 0x20 DUP5 ADD RETURNDATACOPY PUSH2 0x6A8 JUMP JUMPDEST PUSH1 0x60 SWAP2 POP JUMPDEST POP SWAP2 POP SWAP2 POP DUP2 PUSH2 0x6EF JUMPI DUP1 PUSH1 0x40 MLOAD PUSH32 0x49BA945B00000000000000000000000000000000000000000000000000000000 DUP2 MSTORE PUSH1 0x4 ADD PUSH2 0x6E6 SWAP2 SWAP1 PUSH2 0x7F9 JUMP JUMPDEST PUSH1 0x40 MLOAD DUP1 SWAP2 SUB SWAP1 REVERT JUMPDEST POP POP POP POP JUMP JUMPDEST PUSH1 0x0 DUP2 CALLDATALOAD SWAP1 POP PUSH2 0x704 DUP2 PUSH2 0x9E7 JUMP JUMPDEST SWAP3 SWAP2 POP POP JUMP JUMPDEST PUSH1 0x0 DUP2 CALLDATALOAD SWAP1 POP PUSH2 0x719 DUP2 PUSH2 0x9FE JUMP JUMPDEST SWAP3 SWAP2 POP POP JUMP JUMPDEST PUSH1 0x0 PUSH1 0x20 DUP3 DUP5 SUB SLT ISZERO PUSH2 0x735 JUMPI PUSH2 0x734 PUSH2 0x9CE JUMP JUMPDEST JUMPDEST PUSH1 0x0 PUSH2 0x743 DUP5 DUP3 DUP6 ADD PUSH2 0x6F5 JUMP JUMPDEST SWAP2 POP POP SWAP3 SWAP2 POP POP JUMP JUMPDEST PUSH1 0x0 PUSH1 0x20 DUP3 DUP5 SUB SLT ISZERO PUSH2 0x762 JUMPI PUSH2 0x761 PUSH2 0x9CE JUMP JUMPDEST JUMPDEST PUSH1 0x0 PUSH2 0x770 DUP5 DUP3 DUP6 ADD PUSH2 0x70A JUMP JUMPDEST SWAP2 POP POP SWAP3 SWAP2 POP POP JUMP JUMPDEST PUSH1 0x0 PUSH2 0x784 DUP3 PUSH2 0x836 JUMP JUMPDEST PUSH2 0x78E DUP2 DUP6 PUSH2 0x841 JUMP JUMPDEST SWAP4 POP PUSH2 0x79E DUP2 DUP6 PUSH1 0x20 DUP7 ADD PUSH2 0x923 JUMP JUMPDEST PUSH2 0x7A7 DUP2 PUSH2 0x9D3 JUMP JUMPDEST DUP5 ADD SWAP2 POP POP SWAP3 SWAP2 POP POP JUMP JUMPDEST PUSH1 0x0 PUSH2 0x7BF PUSH1 0x0 DUP4 PUSH2 0x852 JUMP JUMPDEST SWAP2 POP PUSH2 0x7CA DUP3 PUSH2 0x9E4 JUMP JUMPDEST PUSH1 0x0 DUP3 ADD SWAP1 POP SWAP2 SWAP1 POP JUMP JUMPDEST PUSH2 0x7DE DUP2 PUSH2 0x919 JUMP JUMPDEST DUP3 MSTORE POP POP JUMP JUMPDEST PUSH1 0x0 PUSH2 0x7EF DUP3 PUSH2 0x7B2 JUMP JUMPDEST SWAP2 POP DUP2 SWAP1 POP SWAP2 SWAP1 POP JUMP JUMPDEST PUSH1 0x0 PUSH1 0x20 DUP3 ADD SWAP1 POP DUP2 DUP2 SUB PUSH1 0x0 DUP4 ADD MSTORE PUSH2 0x813 DUP2 DUP5 PUSH2 0x779 JUMP JUMPDEST SWAP1 POP SWAP3 SWAP2 POP POP JUMP JUMPDEST PUSH1 0x0 PUSH1 0x20 DUP3 ADD SWAP1 POP PUSH2 0x830 PUSH1 0x0 DUP4 ADD DUP5 PUSH2 0x7D5 JUMP JUMPDEST SWAP3 SWAP2 POP POP JUMP JUMPDEST PUSH1 0x0 DUP2 MLOAD SWAP1 POP SWAP2 SWAP1 POP JUMP JUMPDEST PUSH1 0x0 DUP3 DUP3 MSTORE PUSH1 0x20 DUP3 ADD SWAP1 POP SWAP3 SWAP2 POP POP JUMP JUMPDEST PUSH1 0x0 DUP2 SWAP1 POP SWAP3 SWAP2 POP POP JUMP JUMPDEST PUSH1 0x0 PUSH2 0x868 DUP3 PUSH2 0x919 JUMP JUMPDEST SWAP2 POP PUSH2 0x873 DUP4 PUSH2 0x919 JUMP JUMPDEST SWAP3 POP DUP3 PUSH32 0xFFFFFFFFFFFFFFFFFFFFFFFFFFFFFFFFFFFFFFFFFFFFFFFFFFFFFFFFFFFFFFFF SUB DUP3 GT ISZERO PUSH2 0x8A8 JUMPI PUSH2 0x8A7 PUSH2 0x99F JUMP JUMPDEST JUMPDEST DUP3 DUP3 ADD SWAP1 POP SWAP3 SWAP2 POP POP JUMP JUMPDEST PUSH1 0x0 PUSH2 0x8BE DUP3 PUSH2 0x919 JUMP JUMPDEST SWAP2 POP PUSH2 0x8C9 DUP4 PUSH2 0x919 JUMP JUMPDEST SWAP3 POP DUP3 DUP3 LT ISZERO PUSH2 0x8DC JUMPI PUSH2 0x8DB PUSH2 0x99F JUMP JUMPDEST JUMPDEST DUP3 DUP3 SUB SWAP1 POP SWAP3 SWAP2 POP POP JUMP JUMPDEST PUSH1 0x0 PUSH2 0x8F2 DUP3 PUSH2 0x8F9 JUMP JUMPDEST SWAP1 POP SWAP2 SWAP1 POP JUMP JUMPDEST PUSH1 0x0 PUSH20 0xFFFFFFFFFFFFFFFFFFFFFFFFFFFFFFFFFFFFFFFF DUP3 AND SWAP1 POP SWAP2 SWAP1 POP JUMP JUMPDEST PUSH1 0x0 DUP2 SWAP1 POP SWAP2 SWAP1 POP JUMP JUMPDEST PUSH1 0x0 JUMPDEST DUP4 DUP2 LT ISZERO PUSH2 0x941 JUMPI DUP1 DUP3 ADD MLOAD DUP2 DUP5 ADD MSTORE PUSH1 0x20 DUP2 ADD SWAP1 POP PUSH2 0x926 JUMP JUMPDEST DUP4 DUP2 GT ISZERO PUSH2 0x950 JUMPI PUSH1 0x0 DUP5 DUP5 ADD MSTORE JUMPDEST POP POP POP POP JUMP JUMPDEST PUSH1 0x0 PUSH2 0x961 DUP3 PUSH2 0x919 JUMP JUMPDEST SWAP2 POP PUSH32 0xFFFFFFFFFFFFFFFFFFFFFFFFFFFFFFFFFFFFFFFFFFFFFFFFFFFFFFFFFFFFFFFF DUP3 EQ ISZERO PUSH2 0x994 JUMPI PUSH2 0x993 PUSH2 0x99F JUMP JUMPDEST JUMPDEST PUSH1 0x1 DUP3 ADD SWAP1 POP SWAP2 SWAP1 POP JUMP JUMPDEST PUSH32 0x4E487B7100000000000000000000000000000000000000000000000000000000 PUSH1 0x0 MSTORE PUSH1 0x11 PUSH1 0x4 MSTORE PUSH1 0x24 PUSH1 0x0 REVERT JUMPDEST PUSH1 0x0 DUP1 REVERT JUMPDEST PUSH1 0x0 PUSH1 0x1F NOT PUSH1 0x1F DUP4 ADD AND SWAP1 POP SWAP2 SWAP1 POP JUMP JUMPDEST POP JUMP JUMPDEST PUSH2 0x9F0 DUP2 PUSH2 0x8E7 JUMP JUMPDEST DUP2 EQ PUSH2 0x9FB JUMPI PUSH1 0x0 DUP1 REVERT JUMPDEST POP JUMP JUMPDEST PUSH2 0xA07 DUP2 PUSH2 0x919 JUMP JUMPDEST DUP2 EQ PUSH2 0xA12 JUMPI PUSH1 0x0 DUP1 REVERT JUMPDEST POP JUMP INVALID LOG2 PUSH5 0x6970667358 0x22 SLT KECCAK256 0xDD 0xBD 0xA7 0x23 0xE7 ADDMOD MUL SMOD PUSH11 0xEE4FDB318355223B34CBD 0xBD SWAP14 LOG0 0xDE SWAP10 CALLVALUE PUSH19 0x1CAB65A13F64736F6C63430008070033000000 "
				},
				"gasEstimates": {
					"creation": {
						"codeDepositCost": "527000",
						"executionCost": "infinite",
						"totalCost": "infinite"
					},
					"external": {
						"balances(address)": "2837",
						"bankCap()": "infinite",
						"deposit()": "infinite",
						"getBalance()": "2527",
						"totalDeposits()": "2496",
						"totalWithdrawals()": "2474",
						"withdrawal(uint256)": "infinite",
						"withdrawalLimit()": "infinite"
					},
					"internal": {
						"_transferEth(address payable,uint256)": "infinite"
					}
				},
				"methodIdentifiers": {
					"balances(address)": "27e235e3",
					"bankCap()": "ecbea24d",
					"deposit()": "d0e30db0",
					"getBalance()": "12065fe0",
					"totalDeposits()": "7d882097",
					"totalWithdrawals()": "60464627",
					"withdrawal(uint256)": "835fc6ca",
					"withdrawalLimit()": "7ddfe78d"
				}
			},
			"storageLayout": {
				"storage": [
					{
						"astId": 30,
						"contract": "contracts/KipuBank.sol:KipuBank",
						"label": "balances",
						"offset": 0,
						"slot": "0",
						"type": "t_mapping(t_address,t_uint256)"
					},
					{
						"astId": 33,
						"contract": "contracts/KipuBank.sol:KipuBank",
						"label": "totalDeposits",
						"offset": 0,
						"slot": "1",
						"type": "t_uint256"
					},
					{
						"astId": 36,
						"contract": "contracts/KipuBank.sol:KipuBank",
						"label": "totalWithdrawals",
						"offset": 0,
						"slot": "2",
						"type": "t_uint256"
					},
					{
						"astId": 69,
						"contract": "contracts/KipuBank.sol:KipuBank",
						"label": "flag",
						"offset": 0,
						"slot": "3",
						"type": "t_bool"
					}
				],
				"types": {
					"t_address": {
						"encoding": "inplace",
						"label": "address",
						"numberOfBytes": "20"
					},
					"t_bool": {
						"encoding": "inplace",
						"label": "bool",
						"numberOfBytes": "1"
					},
					"t_mapping(t_address,t_uint256)": {
						"encoding": "mapping",
						"key": "t_address",
						"label": "mapping(address => uint256)",
						"numberOfBytes": "32",
						"value": "t_uint256"
					},
					"t_uint256": {
						"encoding": "inplace",
						"label": "uint256",
						"numberOfBytes": "32"
					}
				}
			},
			"userdoc": {
				"errors": {
					"BankCapExceeded()": [
						{
							"notice": "error cuando se supera el límite global de depósitos"
						}
					],
					"InsufficientBalance()": [
						{
							"notice": "error cuando el usuario no tiene suficiente balance"
						}
					],
					"InvalidAmount()": [
						{
							"notice": "Error cuando el monto es inválido (0)"
						}
					],
					"WithdrawalFailed(bytes)": [
						{
							"notice": "error cuando el retiro falla"
						}
					],
					"WithdrawalLimitExceeded()": [
						{
							"notice": "error cuando se supera el límite de retiro por transacción"
						}
					]
				},
				"events": {
					"Deposit_Eth(address,uint256)": {
						"notice": "Evento emitido cuando se deposita ETH"
					},
					"Withdrawal_Eth(address,uint256)": {
						"notice": "Evento emitido cuando se retira ETH"
					}
				},
				"kind": "user",
				"methods": {
					"balances(address)": {
						"notice": "Saldo final de cada usuario"
					},
					"bankCap()": {
						"notice": "Límite global de depósitos"
					},
					"constructor": {
						"notice": "Inicializa el contrato con los límites de retiro y depósito"
					},
					"deposit()": {
						"notice": "Deposita ETH en la bóveda del usuario"
					},
					"getBalance()": {
						"notice": "Obtiene el saldo de un usuario"
					},
					"totalDeposits()": {
						"notice": "Contador de depósitos"
					},
					"totalWithdrawals()": {
						"notice": "Contador de retiros"
					},
					"withdrawal(uint256)": {
						"notice": "Retira ETH de la bóveda del usuario"
					},
					"withdrawalLimit()": {
						"notice": "Límite de retiro por transacción"
					}
				},
				"notice": "Contrato de banco simple donde los usuarios pueden depositar y retirar ETH",
				"version": 1
			}
		}
	}
}