{
	"contracts/KipuBank.sol": {
		"KipuBank": {
			"abi": [
				{
					"inputs": [
						{
							"internalType": "uint256",
							"name": "_withdrawalLimit",
							"type": "uint256"
						},
						{
							"internalType": "uint256",
							"name": "_bankCap",
							"type": "uint256"
						}
					],
					"stateMutability": "nonpayable",
					"type": "constructor"
				},
				{
					"inputs": [],
					"name": "BankCapExceeded",
					"type": "error"
				},
				{
					"inputs": [],
					"name": "InsufficientBalance",
					"type": "error"
				},
				{
					"inputs": [],
					"name": "InvalidAmount",
					"type": "error"
				},
				{
					"inputs": [],
					"name": "ReentrantCall",
					"type": "error"
				},
				{
					"inputs": [
						{
							"internalType": "bytes",
							"name": "errorData",
							"type": "bytes"
						}
					],
					"name": "WithdrawalFailed",
					"type": "error"
				},
				{
					"inputs": [],
					"name": "WithdrawalLimitExceeded",
					"type": "error"
				},
				{
					"anonymous": false,
					"inputs": [
						{
							"indexed": true,
							"internalType": "address",
							"name": "user",
							"type": "address"
						},
						{
							"indexed": false,
							"internalType": "uint256",
							"name": "amount",
							"type": "uint256"
						}
					],
					"name": "Deposit",
					"type": "event"
				},
				{
					"anonymous": false,
					"inputs": [
						{
							"indexed": true,
							"internalType": "address",
							"name": "user",
							"type": "address"
						},
						{
							"indexed": false,
							"internalType": "uint256",
							"name": "amount",
							"type": "uint256"
						}
					],
					"name": "Withdrawal",
					"type": "event"
				},
				{
					"inputs": [],
					"name": "BANK_CAP",
					"outputs": [
						{
							"internalType": "uint256",
							"name": "",
							"type": "uint256"
						}
					],
					"stateMutability": "view",
					"type": "function"
				},
				{
					"inputs": [],
					"name": "WITHDRAWAL_LIMIT",
					"outputs": [
						{
							"internalType": "uint256",
							"name": "",
							"type": "uint256"
						}
					],
					"stateMutability": "view",
					"type": "function"
				},
				{
					"inputs": [
						{
							"internalType": "address",
							"name": "",
							"type": "address"
						}
					],
					"name": "balances",
					"outputs": [
						{
							"internalType": "uint256",
							"name": "",
							"type": "uint256"
						}
					],
					"stateMutability": "view",
					"type": "function"
				},
				{
					"inputs": [],
					"name": "deposit",
					"outputs": [],
					"stateMutability": "payable",
					"type": "function"
				},
				{
					"inputs": [],
					"name": "depositCount",
					"outputs": [
						{
							"internalType": "uint256",
							"name": "",
							"type": "uint256"
						}
					],
					"stateMutability": "view",
					"type": "function"
				},
				{
					"inputs": [],
					"name": "getBalance",
					"outputs": [
						{
							"internalType": "uint256",
							"name": "",
							"type": "uint256"
						}
					],
					"stateMutability": "view",
					"type": "function"
				},
				{
					"inputs": [],
					"name": "totalDeposited",
					"outputs": [
						{
							"internalType": "uint256",
							"name": "",
							"type": "uint256"
						}
					],
					"stateMutability": "view",
					"type": "function"
				},
				{
					"inputs": [
						{
							"internalType": "uint256",
							"name": "_amount",
							"type": "uint256"
						}
					],
					"name": "withdrawal",
					"outputs": [],
					"stateMutability": "nonpayable",
					"type": "function"
				},
				{
					"inputs": [],
					"name": "withdrawalCount",
					"outputs": [
						{
							"internalType": "uint256",
							"name": "",
							"type": "uint256"
						}
					],
					"stateMutability": "view",
					"type": "function"
				}
			],
			"devdoc": {
				"author": "Michel Massaad",
				"details": "Implements transaction limits, a global deposit cap, custom errors, and follows security best practices.",
				"errors": {
					"WithdrawalFailed(bytes)": [
						{
							"params": {
								"errorData": "The data returned by the failed call."
							}
						}
					]
				},
				"events": {
					"Deposit(address,uint256)": {
						"params": {
							"amount": "The amount deposited in wei.",
							"user": "The address of the user who deposited."
						}
					},
					"Withdrawal(address,uint256)": {
						"params": {
							"amount": "The amount withdrawn in wei.",
							"user": "The address of the user who withdrew."
						}
					}
				},
				"kind": "dev",
				"methods": {
					"constructor": {
						"params": {
							"_bankCap": "The global deposit cap.",
							"_withdrawalLimit": "The per-transaction withdrawal limit."
						}
					},
					"deposit()": {
						"details": "Reverts if the amount is zero or if the deposit would exceed the global bank cap.Follows the checks-effects-interactions pattern."
					},
					"getBalance()": {
						"returns": {
							"_0": "The balance in wei."
						}
					},
					"withdrawal(uint256)": {
						"details": "Reverts if the amount is zero, exceeds the withdrawal limit, or if the user has insufficient balance.Follows the checks-effects-interactions pattern.",
						"params": {
							"_amount": "The amount to withdraw in wei."
						}
					}
				},
				"title": "KipuBank",
				"version": 1
			},
			"evm": {
				"assembly": "    /* \"contracts/KipuBank.sol\":311:7796  contract KipuBank {\r... */\n  mstore(0x40, 0xc0)\n    /* \"contracts/KipuBank.sol\":4634:4774  constructor(uint256 _withdrawalLimit, uint256 _bankCap) {\r... */\n  callvalue\n  dup1\n  iszero\n  tag_1\n  jumpi\n  0x00\n  dup1\n  revert\ntag_1:\n  pop\n  mload(0x40)\n  sub(codesize, bytecodeSize)\n  dup1\n  bytecodeSize\n  dup4\n  codecopy\n  dup2\n  dup2\n  add\n  0x40\n  mstore\n  dup2\n  add\n  swap1\n  tag_2\n  swap2\n  swap1\n  tag_3\n  jump\t// in\ntag_2:\n    /* \"contracts/KipuBank.sol\":4720:4736  _withdrawalLimit */\n  dup2\n    /* \"contracts/KipuBank.sol\":4701:4736  WITHDRAWAL_LIMIT = _withdrawalLimit */\n  0x80\n  dup2\n  dup2\n  mstore\n  pop\n  pop\n    /* \"contracts/KipuBank.sol\":4758:4766  _bankCap */\n  dup1\n    /* \"contracts/KipuBank.sol\":4747:4766  BANK_CAP = _bankCap */\n  0xa0\n  dup2\n  dup2\n  mstore\n  pop\n  pop\n    /* \"contracts/KipuBank.sol\":4634:4774  constructor(uint256 _withdrawalLimit, uint256 _bankCap) {\r... */\n  pop\n  pop\n    /* \"contracts/KipuBank.sol\":311:7796  contract KipuBank {\r... */\n  jump(tag_6)\n    /* \"#utility.yul\":7:150   */\ntag_8:\n    /* \"#utility.yul\":64:69   */\n  0x00\n    /* \"#utility.yul\":95:101   */\n  dup2\n    /* \"#utility.yul\":89:102   */\n  mload\n    /* \"#utility.yul\":80:102   */\n  swap1\n  pop\n    /* \"#utility.yul\":111:144   */\n  tag_10\n    /* \"#utility.yul\":138:143   */\n  dup2\n    /* \"#utility.yul\":111:144   */\n  tag_11\n  jump\t// in\ntag_10:\n    /* \"#utility.yul\":7:150   */\n  swap3\n  swap2\n  pop\n  pop\n  jump\t// out\n    /* \"#utility.yul\":156:663   */\ntag_3:\n    /* \"#utility.yul\":235:241   */\n  0x00\n    /* \"#utility.yul\":243:249   */\n  dup1\n    /* \"#utility.yul\":292:294   */\n  0x40\n    /* \"#utility.yul\":280:289   */\n  dup4\n    /* \"#utility.yul\":271:278   */\n  dup6\n    /* \"#utility.yul\":267:290   */\n  sub\n    /* \"#utility.yul\":263:295   */\n  slt\n    /* \"#utility.yul\":260:379   */\n  iszero\n  tag_13\n  jumpi\n    /* \"#utility.yul\":298:377   */\n  tag_14\n  tag_15\n  jump\t// in\ntag_14:\n    /* \"#utility.yul\":260:379   */\ntag_13:\n    /* \"#utility.yul\":418:419   */\n  0x00\n    /* \"#utility.yul\":443:507   */\n  tag_16\n    /* \"#utility.yul\":499:506   */\n  dup6\n    /* \"#utility.yul\":490:496   */\n  dup3\n    /* \"#utility.yul\":479:488   */\n  dup7\n    /* \"#utility.yul\":475:497   */\n  add\n    /* \"#utility.yul\":443:507   */\n  tag_8\n  jump\t// in\ntag_16:\n    /* \"#utility.yul\":433:507   */\n  swap3\n  pop\n    /* \"#utility.yul\":389:517   */\n  pop\n    /* \"#utility.yul\":556:558   */\n  0x20\n    /* \"#utility.yul\":582:646   */\n  tag_17\n    /* \"#utility.yul\":638:645   */\n  dup6\n    /* \"#utility.yul\":629:635   */\n  dup3\n    /* \"#utility.yul\":618:627   */\n  dup7\n    /* \"#utility.yul\":614:636   */\n  add\n    /* \"#utility.yul\":582:646   */\n  tag_8\n  jump\t// in\ntag_17:\n    /* \"#utility.yul\":572:646   */\n  swap2\n  pop\n    /* \"#utility.yul\":527:656   */\n  pop\n    /* \"#utility.yul\":156:663   */\n  swap3\n  pop\n  swap3\n  swap1\n  pop\n  jump\t// out\n    /* \"#utility.yul\":750:827   */\ntag_20:\n    /* \"#utility.yul\":787:794   */\n  0x00\n    /* \"#utility.yul\":816:821   */\n  dup2\n    /* \"#utility.yul\":805:821   */\n  swap1\n  pop\n    /* \"#utility.yul\":750:827   */\n  swap2\n  swap1\n  pop\n  jump\t// out\n    /* \"#utility.yul\":956:1073   */\ntag_15:\n    /* \"#utility.yul\":1065:1066   */\n  0x00\n    /* \"#utility.yul\":1062:1063   */\n  dup1\n    /* \"#utility.yul\":1055:1067   */\n  revert\n    /* \"#utility.yul\":1079:1201   */\ntag_11:\n    /* \"#utility.yul\":1152:1176   */\n  tag_26\n    /* \"#utility.yul\":1170:1175   */\n  dup2\n    /* \"#utility.yul\":1152:1176   */\n  tag_20\n  jump\t// in\ntag_26:\n    /* \"#utility.yul\":1145:1150   */\n  dup2\n    /* \"#utility.yul\":1142:1177   */\n  eq\n    /* \"#utility.yul\":1132:1195   */\n  tag_27\n  jumpi\n    /* \"#utility.yul\":1191:1192   */\n  0x00\n    /* \"#utility.yul\":1188:1189   */\n  dup1\n    /* \"#utility.yul\":1181:1193   */\n  revert\n    /* \"#utility.yul\":1132:1195   */\ntag_27:\n    /* \"#utility.yul\":1079:1201   */\n  pop\n  jump\t// out\n    /* \"contracts/KipuBank.sol\":311:7796  contract KipuBank {\r... */\ntag_6:\n  mload(0x80)\n  mload(0xa0)\n  codecopy(0x00, dataOffset(sub_0), dataSize(sub_0))\n  0x00\n  assignImmutable(\"0xe4b1702d9298fee62dfeccc57d322a463ad55ca201256d01f62b45b2e1c21c10\")\n  0x00\n  assignImmutable(\"0xceebf77a833b30520287ddd9478ff51abbdffa30aa90a8d655dba0e8a79ce0c1\")\n  return(0x00, dataSize(sub_0))\nstop\n\nsub_0: assembly {\n        /* \"contracts/KipuBank.sol\":311:7796  contract KipuBank {\r... */\n      mstore(0x40, 0x80)\n      jumpi(tag_1, lt(calldatasize, 0x04))\n      shr(0xe0, calldataload(0x00))\n      dup1\n      0x71706cbe\n      gt\n      tag_11\n      jumpi\n      dup1\n      0x71706cbe\n      eq\n      tag_6\n      jumpi\n      dup1\n      0x82ee0d1d\n      eq\n      tag_7\n      jumpi\n      dup1\n      0x835fc6ca\n      eq\n      tag_8\n      jumpi\n      dup1\n      0xd0e30db0\n      eq\n      tag_9\n      jumpi\n      dup1\n      0xff50abdc\n      eq\n      tag_10\n      jumpi\n      jump(tag_1)\n    tag_11:\n      dup1\n      0x0dbad953\n      eq\n      tag_2\n      jumpi\n      dup1\n      0x12065fe0\n      eq\n      tag_3\n      jumpi\n      dup1\n      0x27e235e3\n      eq\n      tag_4\n      jumpi\n      dup1\n      0x2dfdf0b5\n      eq\n      tag_5\n      jumpi\n    tag_1:\n      0x00\n      dup1\n      revert\n        /* \"contracts/KipuBank.sol\":869:902  uint256 public immutable BANK_CAP */\n    tag_2:\n      callvalue\n      dup1\n      iszero\n      tag_12\n      jumpi\n      0x00\n      dup1\n      revert\n    tag_12:\n      pop\n      tag_13\n      tag_14\n      jump\t// in\n    tag_13:\n      mload(0x40)\n      tag_15\n      swap2\n      swap1\n      tag_16\n      jump\t// in\n    tag_15:\n      mload(0x40)\n      dup1\n      swap2\n      sub\n      swap1\n      return\n        /* \"contracts/KipuBank.sol\":6923:7023  function getBalance() external view returns (uint256) {\r... */\n    tag_3:\n      callvalue\n      dup1\n      iszero\n      tag_17\n      jumpi\n      0x00\n      dup1\n      revert\n    tag_17:\n      pop\n      tag_18\n      tag_19\n      jump\t// in\n    tag_18:\n      mload(0x40)\n      tag_20\n      swap2\n      swap1\n      tag_16\n      jump\t// in\n    tag_20:\n      mload(0x40)\n      dup1\n      swap2\n      sub\n      swap1\n      return\n        /* \"contracts/KipuBank.sol\":1413:1456  mapping(address => uint256) public balances */\n    tag_4:\n      callvalue\n      dup1\n      iszero\n      tag_21\n      jumpi\n      0x00\n      dup1\n      revert\n    tag_21:\n      pop\n      tag_22\n      0x04\n      dup1\n      calldatasize\n      sub\n      dup2\n      add\n      swap1\n      tag_23\n      swap2\n      swap1\n      tag_24\n      jump\t// in\n    tag_23:\n      tag_25\n      jump\t// in\n    tag_22:\n      mload(0x40)\n      tag_26\n      swap2\n      swap1\n      tag_16\n      jump\t// in\n    tag_26:\n      mload(0x40)\n      dup1\n      swap2\n      sub\n      swap1\n      return\n        /* \"contracts/KipuBank.sol\":1125:1152  uint256 public depositCount */\n    tag_5:\n      callvalue\n      dup1\n      iszero\n      tag_27\n      jumpi\n      0x00\n      dup1\n      revert\n    tag_27:\n      pop\n      tag_28\n      tag_29\n      jump\t// in\n    tag_28:\n      mload(0x40)\n      tag_30\n      swap2\n      swap1\n      tag_16\n      jump\t// in\n    tag_30:\n      mload(0x40)\n      dup1\n      swap2\n      sub\n      swap1\n      return\n        /* \"contracts/KipuBank.sol\":1228:1258  uint256 public withdrawalCount */\n    tag_6:\n      callvalue\n      dup1\n      iszero\n      tag_31\n      jumpi\n      0x00\n      dup1\n      revert\n    tag_31:\n      pop\n      tag_32\n      tag_33\n      jump\t// in\n    tag_32:\n      mload(0x40)\n      tag_34\n      swap2\n      swap1\n      tag_16\n      jump\t// in\n    tag_34:\n      mload(0x40)\n      dup1\n      swap2\n      sub\n      swap1\n      return\n        /* \"contracts/KipuBank.sol\":760:801  uint256 public immutable WITHDRAWAL_LIMIT */\n    tag_7:\n      callvalue\n      dup1\n      iszero\n      tag_35\n      jumpi\n      0x00\n      dup1\n      revert\n    tag_35:\n      pop\n      tag_36\n      tag_37\n      jump\t// in\n    tag_36:\n      mload(0x40)\n      tag_38\n      swap2\n      swap1\n      tag_16\n      jump\t// in\n    tag_38:\n      mload(0x40)\n      dup1\n      swap2\n      sub\n      swap1\n      return\n        /* \"contracts/KipuBank.sol\":6176:6805  function withdrawal(uint256 _amount) external nonReentrant nonZeroAmount(_amount) {\r... */\n    tag_8:\n      callvalue\n      dup1\n      iszero\n      tag_39\n      jumpi\n      0x00\n      dup1\n      revert\n    tag_39:\n      pop\n      tag_40\n      0x04\n      dup1\n      calldatasize\n      sub\n      dup2\n      add\n      swap1\n      tag_41\n      swap2\n      swap1\n      tag_42\n      jump\t// in\n    tag_41:\n      tag_43\n      jump\t// in\n    tag_40:\n      stop\n        /* \"contracts/KipuBank.sol\":5332:5864  function deposit() external payable nonZeroAmount(msg.value) {\r... */\n    tag_9:\n      tag_44\n      tag_45\n      jump\t// in\n    tag_44:\n      stop\n        /* \"contracts/KipuBank.sol\":1023:1052  uint256 public totalDeposited */\n    tag_10:\n      callvalue\n      dup1\n      iszero\n      tag_46\n      jumpi\n      0x00\n      dup1\n      revert\n    tag_46:\n      pop\n      tag_47\n      tag_48\n      jump\t// in\n    tag_47:\n      mload(0x40)\n      tag_49\n      swap2\n      swap1\n      tag_16\n      jump\t// in\n    tag_49:\n      mload(0x40)\n      dup1\n      swap2\n      sub\n      swap1\n      return\n        /* \"contracts/KipuBank.sol\":869:902  uint256 public immutable BANK_CAP */\n    tag_14:\n      immutable(\"0xe4b1702d9298fee62dfeccc57d322a463ad55ca201256d01f62b45b2e1c21c10\")\n      dup2\n      jump\t// out\n        /* \"contracts/KipuBank.sol\":6923:7023  function getBalance() external view returns (uint256) {\r... */\n    tag_19:\n        /* \"contracts/KipuBank.sol\":6968:6975  uint256 */\n      0x00\n        /* \"contracts/KipuBank.sol\":6995:7003  balances */\n      0x04\n        /* \"contracts/KipuBank.sol\":6995:7015  balances[msg.sender] */\n      0x00\n        /* \"contracts/KipuBank.sol\":7004:7014  msg.sender */\n      caller\n        /* \"contracts/KipuBank.sol\":6995:7015  balances[msg.sender] */\n      0xffffffffffffffffffffffffffffffffffffffff\n      and\n      0xffffffffffffffffffffffffffffffffffffffff\n      and\n      dup2\n      mstore\n      0x20\n      add\n      swap1\n      dup2\n      mstore\n      0x20\n      add\n      0x00\n      keccak256\n      sload\n        /* \"contracts/KipuBank.sol\":6988:7015  return balances[msg.sender] */\n      swap1\n      pop\n        /* \"contracts/KipuBank.sol\":6923:7023  function getBalance() external view returns (uint256) {\r... */\n      swap1\n      jump\t// out\n        /* \"contracts/KipuBank.sol\":1413:1456  mapping(address => uint256) public balances */\n    tag_25:\n      mstore(0x20, 0x04)\n      dup1\n      0x00\n      mstore\n      keccak256(0x00, 0x40)\n      0x00\n      swap2\n      pop\n      swap1\n      pop\n      sload\n      dup2\n      jump\t// out\n        /* \"contracts/KipuBank.sol\":1125:1152  uint256 public depositCount */\n    tag_29:\n      sload(0x01)\n      dup2\n      jump\t// out\n        /* \"contracts/KipuBank.sol\":1228:1258  uint256 public withdrawalCount */\n    tag_33:\n      sload(0x02)\n      dup2\n      jump\t// out\n        /* \"contracts/KipuBank.sol\":760:801  uint256 public immutable WITHDRAWAL_LIMIT */\n    tag_37:\n      immutable(\"0xceebf77a833b30520287ddd9478ff51abbdffa30aa90a8d655dba0e8a79ce0c1\")\n      dup2\n      jump\t// out\n        /* \"contracts/KipuBank.sol\":6176:6805  function withdrawal(uint256 _amount) external nonReentrant nonZeroAmount(_amount) {\r... */\n    tag_43:\n        /* \"contracts/KipuBank.sol\":3762:3768  locked */\n      0x03\n      0x00\n      swap1\n      sload\n      swap1\n      0x0100\n      exp\n      swap1\n      div\n      0xff\n      and\n        /* \"contracts/KipuBank.sol\":3758:3792  if (locked) revert ReentrantCall() */\n      iszero\n      tag_52\n      jumpi\n        /* \"contracts/KipuBank.sol\":3777:3792  ReentrantCall() */\n      mload(0x40)\n      0x37ed32e800000000000000000000000000000000000000000000000000000000\n      dup2\n      mstore\n      0x04\n      add\n      mload(0x40)\n      dup1\n      swap2\n      sub\n      swap1\n      revert\n        /* \"contracts/KipuBank.sol\":3758:3792  if (locked) revert ReentrantCall() */\n    tag_52:\n        /* \"contracts/KipuBank.sol\":3812:3816  true */\n      0x01\n        /* \"contracts/KipuBank.sol\":3803:3809  locked */\n      0x03\n      0x00\n        /* \"contracts/KipuBank.sol\":3803:3816  locked = true */\n      0x0100\n      exp\n      dup2\n      sload\n      dup2\n      0xff\n      mul\n      not\n      and\n      swap1\n      dup4\n      iszero\n      iszero\n      mul\n      or\n      swap1\n      sstore\n      pop\n        /* \"contracts/KipuBank.sol\":6249:6256  _amount */\n      dup1\n        /* \"contracts/KipuBank.sol\":4049:4050  0 */\n      0x00\n        /* \"contracts/KipuBank.sol\":4038:4045  _amount */\n      dup2\n        /* \"contracts/KipuBank.sol\":4038:4050  _amount == 0 */\n      eq\n        /* \"contracts/KipuBank.sol\":4034:4074  if (_amount == 0) revert InvalidAmount() */\n      iszero\n      tag_54\n      jumpi\n        /* \"contracts/KipuBank.sol\":4059:4074  InvalidAmount() */\n      mload(0x40)\n      0x2c5211c600000000000000000000000000000000000000000000000000000000\n      dup2\n      mstore\n      0x04\n      add\n      mload(0x40)\n      dup1\n      swap2\n      sub\n      swap1\n      revert\n        /* \"contracts/KipuBank.sol\":4034:4074  if (_amount == 0) revert InvalidAmount() */\n    tag_54:\n        /* \"contracts/KipuBank.sol\":6269:6288  uint256 userBalance */\n      0x00\n        /* \"contracts/KipuBank.sol\":6291:6299  balances */\n      0x04\n        /* \"contracts/KipuBank.sol\":6291:6311  balances[msg.sender] */\n      0x00\n        /* \"contracts/KipuBank.sol\":6300:6310  msg.sender */\n      caller\n        /* \"contracts/KipuBank.sol\":6291:6311  balances[msg.sender] */\n      0xffffffffffffffffffffffffffffffffffffffff\n      and\n      0xffffffffffffffffffffffffffffffffffffffff\n      and\n      dup2\n      mstore\n      0x20\n      add\n      swap1\n      dup2\n      mstore\n      0x20\n      add\n      0x00\n      keccak256\n      sload\n        /* \"contracts/KipuBank.sol\":6269:6311  uint256 userBalance = balances[msg.sender] */\n      swap1\n      pop\n        /* \"contracts/KipuBank.sol\":6396:6412  WITHDRAWAL_LIMIT */\n      immutable(\"0xceebf77a833b30520287ddd9478ff51abbdffa30aa90a8d655dba0e8a79ce0c1\")\n        /* \"contracts/KipuBank.sol\":6386:6393  _amount */\n      dup4\n        /* \"contracts/KipuBank.sol\":6386:6412  _amount > WITHDRAWAL_LIMIT */\n      gt\n        /* \"contracts/KipuBank.sol\":6382:6446  if (_amount > WITHDRAWAL_LIMIT) revert WithdrawalLimitExceeded() */\n      iszero\n      tag_56\n      jumpi\n        /* \"contracts/KipuBank.sol\":6421:6446  WithdrawalLimitExceeded() */\n      mload(0x40)\n      0x4e6a369600000000000000000000000000000000000000000000000000000000\n      dup2\n      mstore\n      0x04\n      add\n      mload(0x40)\n      dup1\n      swap2\n      sub\n      swap1\n      revert\n        /* \"contracts/KipuBank.sol\":6382:6446  if (_amount > WITHDRAWAL_LIMIT) revert WithdrawalLimitExceeded() */\n    tag_56:\n        /* \"contracts/KipuBank.sol\":6471:6482  userBalance */\n      dup1\n        /* \"contracts/KipuBank.sol\":6461:6468  _amount */\n      dup4\n        /* \"contracts/KipuBank.sol\":6461:6482  _amount > userBalance */\n      gt\n        /* \"contracts/KipuBank.sol\":6457:6512  if (_amount > userBalance) revert InsufficientBalance() */\n      iszero\n      tag_57\n      jumpi\n        /* \"contracts/KipuBank.sol\":6491:6512  InsufficientBalance() */\n      mload(0x40)\n      0xf4d678b800000000000000000000000000000000000000000000000000000000\n      dup2\n      mstore\n      0x04\n      add\n      mload(0x40)\n      dup1\n      swap2\n      sub\n      swap1\n      revert\n        /* \"contracts/KipuBank.sol\":6457:6512  if (_amount > userBalance) revert InsufficientBalance() */\n    tag_57:\n        /* \"contracts/KipuBank.sol\":6590:6597  _amount */\n      dup3\n        /* \"contracts/KipuBank.sol\":6576:6587  userBalance */\n      dup2\n        /* \"contracts/KipuBank.sol\":6576:6597  userBalance - _amount */\n      tag_58\n      swap2\n      swap1\n      tag_59\n      jump\t// in\n    tag_58:\n        /* \"contracts/KipuBank.sol\":6553:6561  balances */\n      0x04\n        /* \"contracts/KipuBank.sol\":6553:6573  balances[msg.sender] */\n      0x00\n        /* \"contracts/KipuBank.sol\":6562:6572  msg.sender */\n      caller\n        /* \"contracts/KipuBank.sol\":6553:6573  balances[msg.sender] */\n      0xffffffffffffffffffffffffffffffffffffffff\n      and\n      0xffffffffffffffffffffffffffffffffffffffff\n      and\n      dup2\n      mstore\n      0x20\n      add\n      swap1\n      dup2\n      mstore\n      0x20\n      add\n      0x00\n      keccak256\n        /* \"contracts/KipuBank.sol\":6553:6597  balances[msg.sender] = userBalance - _amount */\n      dup2\n      swap1\n      sstore\n      pop\n        /* \"contracts/KipuBank.sol\":6626:6633  _amount */\n      dup3\n        /* \"contracts/KipuBank.sol\":6608:6622  totalDeposited */\n      0x00\n      dup1\n        /* \"contracts/KipuBank.sol\":6608:6633  totalDeposited -= _amount */\n      dup3\n      dup3\n      sload\n      tag_60\n      swap2\n      swap1\n      tag_59\n      jump\t// in\n    tag_60:\n      swap3\n      pop\n      pop\n      dup2\n      swap1\n      sstore\n      pop\n        /* \"contracts/KipuBank.sol\":6644:6659  withdrawalCount */\n      0x02\n      0x00\n        /* \"contracts/KipuBank.sol\":6644:6661  withdrawalCount++ */\n      dup2\n      sload\n      dup1\n      swap3\n      swap2\n      swap1\n      tag_61\n      swap1\n      tag_62\n      jump\t// in\n    tag_61:\n      swap2\n      swap1\n      pop\n      sstore\n      pop\n        /* \"contracts/KipuBank.sol\":6706:6748  _transferEth(payable(msg.sender), _amount) */\n      tag_63\n        /* \"contracts/KipuBank.sol\":6727:6737  msg.sender */\n      caller\n        /* \"contracts/KipuBank.sol\":6740:6747  _amount */\n      dup5\n        /* \"contracts/KipuBank.sol\":6706:6718  _transferEth */\n      tag_64\n        /* \"contracts/KipuBank.sol\":6706:6748  _transferEth(payable(msg.sender), _amount) */\n      jump\t// in\n    tag_63:\n        /* \"contracts/KipuBank.sol\":6777:6787  msg.sender */\n      caller\n        /* \"contracts/KipuBank.sol\":6766:6797  Withdrawal(msg.sender, _amount) */\n      0xffffffffffffffffffffffffffffffffffffffff\n      and\n      0x7fcf532c15f0a6db0bd6d0e038bea71d30d808c7d98cb3bf7268a95bf5081b65\n        /* \"contracts/KipuBank.sol\":6789:6796  _amount */\n      dup5\n        /* \"contracts/KipuBank.sol\":6766:6797  Withdrawal(msg.sender, _amount) */\n      mload(0x40)\n      tag_65\n      swap2\n      swap1\n      tag_16\n      jump\t// in\n    tag_65:\n      mload(0x40)\n      dup1\n      swap2\n      sub\n      swap1\n      log2\n        /* \"contracts/KipuBank.sol\":6258:6805  {\r... */\n      pop\n        /* \"contracts/KipuBank.sol\":3827:3828  _ */\n      pop\n        /* \"contracts/KipuBank.sol\":3848:3853  false */\n      0x00\n        /* \"contracts/KipuBank.sol\":3839:3845  locked */\n      0x03\n      0x00\n        /* \"contracts/KipuBank.sol\":3839:3853  locked = false */\n      0x0100\n      exp\n      dup2\n      sload\n      dup2\n      0xff\n      mul\n      not\n      and\n      swap1\n      dup4\n      iszero\n      iszero\n      mul\n      or\n      swap1\n      sstore\n      pop\n        /* \"contracts/KipuBank.sol\":6176:6805  function withdrawal(uint256 _amount) external nonReentrant nonZeroAmount(_amount) {\r... */\n      pop\n      jump\t// out\n        /* \"contracts/KipuBank.sol\":5332:5864  function deposit() external payable nonZeroAmount(msg.value) {\r... */\n    tag_45:\n        /* \"contracts/KipuBank.sol\":5382:5391  msg.value */\n      callvalue\n        /* \"contracts/KipuBank.sol\":4049:4050  0 */\n      0x00\n        /* \"contracts/KipuBank.sol\":4038:4045  _amount */\n      dup2\n        /* \"contracts/KipuBank.sol\":4038:4050  _amount == 0 */\n      eq\n        /* \"contracts/KipuBank.sol\":4034:4074  if (_amount == 0) revert InvalidAmount() */\n      iszero\n      tag_67\n      jumpi\n        /* \"contracts/KipuBank.sol\":4059:4074  InvalidAmount() */\n      mload(0x40)\n      0x2c5211c600000000000000000000000000000000000000000000000000000000\n      dup2\n      mstore\n      0x04\n      add\n      mload(0x40)\n      dup1\n      swap2\n      sub\n      swap1\n      revert\n        /* \"contracts/KipuBank.sol\":4034:4074  if (_amount == 0) revert InvalidAmount() */\n    tag_67:\n        /* \"contracts/KipuBank.sol\":5464:5472  BANK_CAP */\n      immutable(\"0xe4b1702d9298fee62dfeccc57d322a463ad55ca201256d01f62b45b2e1c21c10\")\n        /* \"contracts/KipuBank.sol\":5452:5461  msg.value */\n      callvalue\n        /* \"contracts/KipuBank.sol\":5435:5449  totalDeposited */\n      sload(0x00)\n        /* \"contracts/KipuBank.sol\":5435:5461  totalDeposited + msg.value */\n      tag_69\n      swap2\n      swap1\n      tag_70\n      jump\t// in\n    tag_69:\n        /* \"contracts/KipuBank.sol\":5435:5472  totalDeposited + msg.value > BANK_CAP */\n      gt\n        /* \"contracts/KipuBank.sol\":5431:5498  if (totalDeposited + msg.value > BANK_CAP) revert BankCapExceeded() */\n      iszero\n      tag_71\n      jumpi\n        /* \"contracts/KipuBank.sol\":5481:5498  BankCapExceeded() */\n      mload(0x40)\n      0x448f3ca800000000000000000000000000000000000000000000000000000000\n      dup2\n      mstore\n      0x04\n      add\n      mload(0x40)\n      dup1\n      swap2\n      sub\n      swap1\n      revert\n        /* \"contracts/KipuBank.sol\":5431:5498  if (totalDeposited + msg.value > BANK_CAP) revert BankCapExceeded() */\n    tag_71:\n        /* \"contracts/KipuBank.sol\":5660:5669  msg.value */\n      callvalue\n        /* \"contracts/KipuBank.sol\":5642:5656  totalDeposited */\n      0x00\n      dup1\n        /* \"contracts/KipuBank.sol\":5642:5669  totalDeposited += msg.value */\n      dup3\n      dup3\n      sload\n      add\n      swap3\n      pop\n      pop\n      dup2\n      swap1\n      sstore\n      pop\n        /* \"contracts/KipuBank.sol\":5715:5724  msg.value */\n      callvalue\n        /* \"contracts/KipuBank.sol\":5691:5699  balances */\n      0x04\n        /* \"contracts/KipuBank.sol\":5691:5711  balances[msg.sender] */\n      0x00\n        /* \"contracts/KipuBank.sol\":5700:5710  msg.sender */\n      caller\n        /* \"contracts/KipuBank.sol\":5691:5711  balances[msg.sender] */\n      0xffffffffffffffffffffffffffffffffffffffff\n      and\n      0xffffffffffffffffffffffffffffffffffffffff\n      and\n      dup2\n      mstore\n      0x20\n      add\n      swap1\n      dup2\n      mstore\n      0x20\n      add\n      0x00\n      keccak256\n      0x00\n        /* \"contracts/KipuBank.sol\":5691:5724  balances[msg.sender] += msg.value */\n      dup3\n      dup3\n      sload\n      tag_72\n      swap2\n      swap1\n      tag_70\n      jump\t// in\n    tag_72:\n      swap3\n      pop\n      pop\n      dup2\n      swap1\n      sstore\n      pop\n        /* \"contracts/KipuBank.sol\":5735:5747  depositCount */\n      0x01\n      0x00\n        /* \"contracts/KipuBank.sol\":5735:5749  depositCount++ */\n      dup2\n      sload\n      dup1\n      swap3\n      swap2\n      swap1\n      tag_73\n      swap1\n      tag_62\n      jump\t// in\n    tag_73:\n      swap2\n      swap1\n      pop\n      sstore\n      pop\n        /* \"contracts/KipuBank.sol\":5834:5844  msg.sender */\n      caller\n        /* \"contracts/KipuBank.sol\":5826:5856  Deposit(msg.sender, msg.value) */\n      0xffffffffffffffffffffffffffffffffffffffff\n      and\n      0xe1fffcc4923d04b559f4d29a8bfc6cda04eb5b0d3c460751c2402c5c5cc9109c\n        /* \"contracts/KipuBank.sol\":5846:5855  msg.value */\n      callvalue\n        /* \"contracts/KipuBank.sol\":5826:5856  Deposit(msg.sender, msg.value) */\n      mload(0x40)\n      tag_74\n      swap2\n      swap1\n      tag_16\n      jump\t// in\n    tag_74:\n      mload(0x40)\n      dup1\n      swap2\n      sub\n      swap1\n      log2\n        /* \"contracts/KipuBank.sol\":5332:5864  function deposit() external payable nonZeroAmount(msg.value) {\r... */\n      pop\n      jump\t// out\n        /* \"contracts/KipuBank.sol\":1023:1052  uint256 public totalDeposited */\n    tag_48:\n      sload(0x00)\n      dup2\n      jump\t// out\n        /* \"contracts/KipuBank.sol\":7552:7793  function _transferEth(address payable _to, uint256 _amount) private {\r... */\n    tag_64:\n        /* \"contracts/KipuBank.sol\":7632:7644  bool success */\n      0x00\n        /* \"contracts/KipuBank.sol\":7646:7668  bytes memory errorData */\n      dup1\n        /* \"contracts/KipuBank.sol\":7672:7675  _to */\n      dup4\n        /* \"contracts/KipuBank.sol\":7672:7680  _to.call */\n      0xffffffffffffffffffffffffffffffffffffffff\n      and\n        /* \"contracts/KipuBank.sol\":7688:7695  _amount */\n      dup4\n        /* \"contracts/KipuBank.sol\":7672:7700  _to.call{value: _amount}(\"\") */\n      mload(0x40)\n      tag_76\n      swap1\n      tag_77\n      jump\t// in\n    tag_76:\n      0x00\n      mload(0x40)\n      dup1\n      dup4\n      sub\n      dup2\n      dup6\n      dup8\n      gas\n      call\n      swap3\n      pop\n      pop\n      pop\n      returndatasize\n      dup1\n      0x00\n      dup2\n      eq\n      tag_80\n      jumpi\n      mload(0x40)\n      swap2\n      pop\n      and(add(returndatasize, 0x3f), not(0x1f))\n      dup3\n      add\n      0x40\n      mstore\n      returndatasize\n      dup3\n      mstore\n      returndatasize\n      0x00\n      0x20\n      dup5\n      add\n      returndatacopy\n      jump(tag_79)\n    tag_80:\n      0x60\n      swap2\n      pop\n    tag_79:\n      pop\n        /* \"contracts/KipuBank.sol\":7631:7700  (bool success, bytes memory errorData) = _to.call{value: _amount}(\"\") */\n      swap2\n      pop\n      swap2\n      pop\n        /* \"contracts/KipuBank.sol\":7716:7723  success */\n      dup2\n        /* \"contracts/KipuBank.sol\":7711:7786  if (!success) {\r... */\n      tag_81\n      jumpi\n        /* \"contracts/KipuBank.sol\":7764:7773  errorData */\n      dup1\n        /* \"contracts/KipuBank.sol\":7747:7774  WithdrawalFailed(errorData) */\n      mload(0x40)\n      0x49ba945b00000000000000000000000000000000000000000000000000000000\n      dup2\n      mstore\n      0x04\n      add\n      tag_82\n      swap2\n      swap1\n      tag_83\n      jump\t// in\n    tag_82:\n      mload(0x40)\n      dup1\n      swap2\n      sub\n      swap1\n      revert\n        /* \"contracts/KipuBank.sol\":7711:7786  if (!success) {\r... */\n    tag_81:\n        /* \"contracts/KipuBank.sol\":7620:7793  {\r... */\n      pop\n      pop\n        /* \"contracts/KipuBank.sol\":7552:7793  function _transferEth(address payable _to, uint256 _amount) private {\r... */\n      pop\n      pop\n      jump\t// out\n        /* \"#utility.yul\":7:146   */\n    tag_85:\n        /* \"#utility.yul\":53:58   */\n      0x00\n        /* \"#utility.yul\":91:97   */\n      dup2\n        /* \"#utility.yul\":78:98   */\n      calldataload\n        /* \"#utility.yul\":69:98   */\n      swap1\n      pop\n        /* \"#utility.yul\":107:140   */\n      tag_87\n        /* \"#utility.yul\":134:139   */\n      dup2\n        /* \"#utility.yul\":107:140   */\n      tag_88\n      jump\t// in\n    tag_87:\n        /* \"#utility.yul\":7:146   */\n      swap3\n      swap2\n      pop\n      pop\n      jump\t// out\n        /* \"#utility.yul\":152:291   */\n    tag_89:\n        /* \"#utility.yul\":198:203   */\n      0x00\n        /* \"#utility.yul\":236:242   */\n      dup2\n        /* \"#utility.yul\":223:243   */\n      calldataload\n        /* \"#utility.yul\":214:243   */\n      swap1\n      pop\n        /* \"#utility.yul\":252:285   */\n      tag_91\n        /* \"#utility.yul\":279:284   */\n      dup2\n        /* \"#utility.yul\":252:285   */\n      tag_92\n      jump\t// in\n    tag_91:\n        /* \"#utility.yul\":152:291   */\n      swap3\n      swap2\n      pop\n      pop\n      jump\t// out\n        /* \"#utility.yul\":297:626   */\n    tag_24:\n        /* \"#utility.yul\":356:362   */\n      0x00\n        /* \"#utility.yul\":405:407   */\n      0x20\n        /* \"#utility.yul\":393:402   */\n      dup3\n        /* \"#utility.yul\":384:391   */\n      dup5\n        /* \"#utility.yul\":380:403   */\n      sub\n        /* \"#utility.yul\":376:408   */\n      slt\n        /* \"#utility.yul\":373:492   */\n      iszero\n      tag_94\n      jumpi\n        /* \"#utility.yul\":411:490   */\n      tag_95\n      tag_96\n      jump\t// in\n    tag_95:\n        /* \"#utility.yul\":373:492   */\n    tag_94:\n        /* \"#utility.yul\":531:532   */\n      0x00\n        /* \"#utility.yul\":556:609   */\n      tag_97\n        /* \"#utility.yul\":601:608   */\n      dup5\n        /* \"#utility.yul\":592:598   */\n      dup3\n        /* \"#utility.yul\":581:590   */\n      dup6\n        /* \"#utility.yul\":577:599   */\n      add\n        /* \"#utility.yul\":556:609   */\n      tag_85\n      jump\t// in\n    tag_97:\n        /* \"#utility.yul\":546:609   */\n      swap2\n      pop\n        /* \"#utility.yul\":502:619   */\n      pop\n        /* \"#utility.yul\":297:626   */\n      swap3\n      swap2\n      pop\n      pop\n      jump\t// out\n        /* \"#utility.yul\":632:961   */\n    tag_42:\n        /* \"#utility.yul\":691:697   */\n      0x00\n        /* \"#utility.yul\":740:742   */\n      0x20\n        /* \"#utility.yul\":728:737   */\n      dup3\n        /* \"#utility.yul\":719:726   */\n      dup5\n        /* \"#utility.yul\":715:738   */\n      sub\n        /* \"#utility.yul\":711:743   */\n      slt\n        /* \"#utility.yul\":708:827   */\n      iszero\n      tag_99\n      jumpi\n        /* \"#utility.yul\":746:825   */\n      tag_100\n      tag_96\n      jump\t// in\n    tag_100:\n        /* \"#utility.yul\":708:827   */\n    tag_99:\n        /* \"#utility.yul\":866:867   */\n      0x00\n        /* \"#utility.yul\":891:944   */\n      tag_101\n        /* \"#utility.yul\":936:943   */\n      dup5\n        /* \"#utility.yul\":927:933   */\n      dup3\n        /* \"#utility.yul\":916:925   */\n      dup6\n        /* \"#utility.yul\":912:934   */\n      add\n        /* \"#utility.yul\":891:944   */\n      tag_89\n      jump\t// in\n    tag_101:\n        /* \"#utility.yul\":881:944   */\n      swap2\n      pop\n        /* \"#utility.yul\":837:954   */\n      pop\n        /* \"#utility.yul\":632:961   */\n      swap3\n      swap2\n      pop\n      pop\n      jump\t// out\n        /* \"#utility.yul\":967:1327   */\n    tag_102:\n        /* \"#utility.yul\":1053:1056   */\n      0x00\n        /* \"#utility.yul\":1081:1119   */\n      tag_104\n        /* \"#utility.yul\":1113:1118   */\n      dup3\n        /* \"#utility.yul\":1081:1119   */\n      tag_105\n      jump\t// in\n    tag_104:\n        /* \"#utility.yul\":1135:1205   */\n      tag_106\n        /* \"#utility.yul\":1198:1204   */\n      dup2\n        /* \"#utility.yul\":1193:1196   */\n      dup6\n        /* \"#utility.yul\":1135:1205   */\n      tag_107\n      jump\t// in\n    tag_106:\n        /* \"#utility.yul\":1128:1205   */\n      swap4\n      pop\n        /* \"#utility.yul\":1214:1266   */\n      tag_108\n        /* \"#utility.yul\":1259:1265   */\n      dup2\n        /* \"#utility.yul\":1254:1257   */\n      dup6\n        /* \"#utility.yul\":1247:1251   */\n      0x20\n        /* \"#utility.yul\":1240:1245   */\n      dup7\n        /* \"#utility.yul\":1236:1252   */\n      add\n        /* \"#utility.yul\":1214:1266   */\n      tag_109\n      jump\t// in\n    tag_108:\n        /* \"#utility.yul\":1291:1320   */\n      tag_110\n        /* \"#utility.yul\":1313:1319   */\n      dup2\n        /* \"#utility.yul\":1291:1320   */\n      tag_111\n      jump\t// in\n    tag_110:\n        /* \"#utility.yul\":1286:1289   */\n      dup5\n        /* \"#utility.yul\":1282:1321   */\n      add\n        /* \"#utility.yul\":1275:1321   */\n      swap2\n      pop\n        /* \"#utility.yul\":1057:1327   */\n      pop\n        /* \"#utility.yul\":967:1327   */\n      swap3\n      swap2\n      pop\n      pop\n      jump\t// out\n        /* \"#utility.yul\":1333:1731   */\n    tag_112:\n        /* \"#utility.yul\":1492:1495   */\n      0x00\n        /* \"#utility.yul\":1513:1596   */\n      tag_114\n        /* \"#utility.yul\":1594:1595   */\n      0x00\n        /* \"#utility.yul\":1589:1592   */\n      dup4\n        /* \"#utility.yul\":1513:1596   */\n      tag_115\n      jump\t// in\n    tag_114:\n        /* \"#utility.yul\":1506:1596   */\n      swap2\n      pop\n        /* \"#utility.yul\":1605:1698   */\n      tag_116\n        /* \"#utility.yul\":1694:1697   */\n      dup3\n        /* \"#utility.yul\":1605:1698   */\n      tag_117\n      jump\t// in\n    tag_116:\n        /* \"#utility.yul\":1723:1724   */\n      0x00\n        /* \"#utility.yul\":1718:1721   */\n      dup3\n        /* \"#utility.yul\":1714:1725   */\n      add\n        /* \"#utility.yul\":1707:1725   */\n      swap1\n      pop\n        /* \"#utility.yul\":1333:1731   */\n      swap2\n      swap1\n      pop\n      jump\t// out\n        /* \"#utility.yul\":1737:1855   */\n    tag_118:\n        /* \"#utility.yul\":1824:1848   */\n      tag_120\n        /* \"#utility.yul\":1842:1847   */\n      dup2\n        /* \"#utility.yul\":1824:1848   */\n      tag_121\n      jump\t// in\n    tag_120:\n        /* \"#utility.yul\":1819:1822   */\n      dup3\n        /* \"#utility.yul\":1812:1849   */\n      mstore\n        /* \"#utility.yul\":1737:1855   */\n      pop\n      pop\n      jump\t// out\n        /* \"#utility.yul\":1861:2240   */\n    tag_77:\n        /* \"#utility.yul\":2045:2048   */\n      0x00\n        /* \"#utility.yul\":2067:2214   */\n      tag_123\n        /* \"#utility.yul\":2210:2213   */\n      dup3\n        /* \"#utility.yul\":2067:2214   */\n      tag_112\n      jump\t// in\n    tag_123:\n        /* \"#utility.yul\":2060:2214   */\n      swap2\n      pop\n        /* \"#utility.yul\":2231:2234   */\n      dup2\n        /* \"#utility.yul\":2224:2234   */\n      swap1\n      pop\n        /* \"#utility.yul\":1861:2240   */\n      swap2\n      swap1\n      pop\n      jump\t// out\n        /* \"#utility.yul\":2246:2555   */\n    tag_83:\n        /* \"#utility.yul\":2357:2361   */\n      0x00\n        /* \"#utility.yul\":2395:2397   */\n      0x20\n        /* \"#utility.yul\":2384:2393   */\n      dup3\n        /* \"#utility.yul\":2380:2398   */\n      add\n        /* \"#utility.yul\":2372:2398   */\n      swap1\n      pop\n        /* \"#utility.yul\":2444:2453   */\n      dup2\n        /* \"#utility.yul\":2438:2442   */\n      dup2\n        /* \"#utility.yul\":2434:2454   */\n      sub\n        /* \"#utility.yul\":2430:2431   */\n      0x00\n        /* \"#utility.yul\":2419:2428   */\n      dup4\n        /* \"#utility.yul\":2415:2432   */\n      add\n        /* \"#utility.yul\":2408:2455   */\n      mstore\n        /* \"#utility.yul\":2472:2548   */\n      tag_125\n        /* \"#utility.yul\":2543:2547   */\n      dup2\n        /* \"#utility.yul\":2534:2540   */\n      dup5\n        /* \"#utility.yul\":2472:2548   */\n      tag_102\n      jump\t// in\n    tag_125:\n        /* \"#utility.yul\":2464:2548   */\n      swap1\n      pop\n        /* \"#utility.yul\":2246:2555   */\n      swap3\n      swap2\n      pop\n      pop\n      jump\t// out\n        /* \"#utility.yul\":2561:2783   */\n    tag_16:\n        /* \"#utility.yul\":2654:2658   */\n      0x00\n        /* \"#utility.yul\":2692:2694   */\n      0x20\n        /* \"#utility.yul\":2681:2690   */\n      dup3\n        /* \"#utility.yul\":2677:2695   */\n      add\n        /* \"#utility.yul\":2669:2695   */\n      swap1\n      pop\n        /* \"#utility.yul\":2705:2776   */\n      tag_127\n        /* \"#utility.yul\":2773:2774   */\n      0x00\n        /* \"#utility.yul\":2762:2771   */\n      dup4\n        /* \"#utility.yul\":2758:2775   */\n      add\n        /* \"#utility.yul\":2749:2755   */\n      dup5\n        /* \"#utility.yul\":2705:2776   */\n      tag_118\n      jump\t// in\n    tag_127:\n        /* \"#utility.yul\":2561:2783   */\n      swap3\n      swap2\n      pop\n      pop\n      jump\t// out\n        /* \"#utility.yul\":2870:2968   */\n    tag_105:\n        /* \"#utility.yul\":2921:2927   */\n      0x00\n        /* \"#utility.yul\":2955:2960   */\n      dup2\n        /* \"#utility.yul\":2949:2961   */\n      mload\n        /* \"#utility.yul\":2939:2961   */\n      swap1\n      pop\n        /* \"#utility.yul\":2870:2968   */\n      swap2\n      swap1\n      pop\n      jump\t// out\n        /* \"#utility.yul\":2974:3142   */\n    tag_107:\n        /* \"#utility.yul\":3057:3068   */\n      0x00\n        /* \"#utility.yul\":3091:3097   */\n      dup3\n        /* \"#utility.yul\":3086:3089   */\n      dup3\n        /* \"#utility.yul\":3079:3098   */\n      mstore\n        /* \"#utility.yul\":3131:3135   */\n      0x20\n        /* \"#utility.yul\":3126:3129   */\n      dup3\n        /* \"#utility.yul\":3122:3136   */\n      add\n        /* \"#utility.yul\":3107:3136   */\n      swap1\n      pop\n        /* \"#utility.yul\":2974:3142   */\n      swap3\n      swap2\n      pop\n      pop\n      jump\t// out\n        /* \"#utility.yul\":3148:3295   */\n    tag_115:\n        /* \"#utility.yul\":3249:3260   */\n      0x00\n        /* \"#utility.yul\":3286:3289   */\n      dup2\n        /* \"#utility.yul\":3271:3289   */\n      swap1\n      pop\n        /* \"#utility.yul\":3148:3295   */\n      swap3\n      swap2\n      pop\n      pop\n      jump\t// out\n        /* \"#utility.yul\":3301:3606   */\n    tag_70:\n        /* \"#utility.yul\":3341:3344   */\n      0x00\n        /* \"#utility.yul\":3360:3380   */\n      tag_134\n        /* \"#utility.yul\":3378:3379   */\n      dup3\n        /* \"#utility.yul\":3360:3380   */\n      tag_121\n      jump\t// in\n    tag_134:\n        /* \"#utility.yul\":3355:3380   */\n      swap2\n      pop\n        /* \"#utility.yul\":3394:3414   */\n      tag_135\n        /* \"#utility.yul\":3412:3413   */\n      dup4\n        /* \"#utility.yul\":3394:3414   */\n      tag_121\n      jump\t// in\n    tag_135:\n        /* \"#utility.yul\":3389:3414   */\n      swap3\n      pop\n        /* \"#utility.yul\":3548:3549   */\n      dup3\n        /* \"#utility.yul\":3480:3546   */\n      0xffffffffffffffffffffffffffffffffffffffffffffffffffffffffffffffff\n        /* \"#utility.yul\":3476:3550   */\n      sub\n        /* \"#utility.yul\":3473:3474   */\n      dup3\n        /* \"#utility.yul\":3470:3551   */\n      gt\n        /* \"#utility.yul\":3467:3574   */\n      iszero\n      tag_136\n      jumpi\n        /* \"#utility.yul\":3554:3572   */\n      tag_137\n      tag_138\n      jump\t// in\n    tag_137:\n        /* \"#utility.yul\":3467:3574   */\n    tag_136:\n        /* \"#utility.yul\":3598:3599   */\n      dup3\n        /* \"#utility.yul\":3595:3596   */\n      dup3\n        /* \"#utility.yul\":3591:3600   */\n      add\n        /* \"#utility.yul\":3584:3600   */\n      swap1\n      pop\n        /* \"#utility.yul\":3301:3606   */\n      swap3\n      swap2\n      pop\n      pop\n      jump\t// out\n        /* \"#utility.yul\":3612:3803   */\n    tag_59:\n        /* \"#utility.yul\":3652:3656   */\n      0x00\n        /* \"#utility.yul\":3672:3692   */\n      tag_140\n        /* \"#utility.yul\":3690:3691   */\n      dup3\n        /* \"#utility.yul\":3672:3692   */\n      tag_121\n      jump\t// in\n    tag_140:\n        /* \"#utility.yul\":3667:3692   */\n      swap2\n      pop\n        /* \"#utility.yul\":3706:3726   */\n      tag_141\n        /* \"#utility.yul\":3724:3725   */\n      dup4\n        /* \"#utility.yul\":3706:3726   */\n      tag_121\n      jump\t// in\n    tag_141:\n        /* \"#utility.yul\":3701:3726   */\n      swap3\n      pop\n        /* \"#utility.yul\":3745:3746   */\n      dup3\n        /* \"#utility.yul\":3742:3743   */\n      dup3\n        /* \"#utility.yul\":3739:3747   */\n      lt\n        /* \"#utility.yul\":3736:3770   */\n      iszero\n      tag_142\n      jumpi\n        /* \"#utility.yul\":3750:3768   */\n      tag_143\n      tag_138\n      jump\t// in\n    tag_143:\n        /* \"#utility.yul\":3736:3770   */\n    tag_142:\n        /* \"#utility.yul\":3795:3796   */\n      dup3\n        /* \"#utility.yul\":3792:3793   */\n      dup3\n        /* \"#utility.yul\":3788:3797   */\n      sub\n        /* \"#utility.yul\":3780:3797   */\n      swap1\n      pop\n        /* \"#utility.yul\":3612:3803   */\n      swap3\n      swap2\n      pop\n      pop\n      jump\t// out\n        /* \"#utility.yul\":3809:3905   */\n    tag_144:\n        /* \"#utility.yul\":3846:3853   */\n      0x00\n        /* \"#utility.yul\":3875:3899   */\n      tag_146\n        /* \"#utility.yul\":3893:3898   */\n      dup3\n        /* \"#utility.yul\":3875:3899   */\n      tag_147\n      jump\t// in\n    tag_146:\n        /* \"#utility.yul\":3864:3899   */\n      swap1\n      pop\n        /* \"#utility.yul\":3809:3905   */\n      swap2\n      swap1\n      pop\n      jump\t// out\n        /* \"#utility.yul\":3911:4037   */\n    tag_147:\n        /* \"#utility.yul\":3948:3955   */\n      0x00\n        /* \"#utility.yul\":3988:4030   */\n      0xffffffffffffffffffffffffffffffffffffffff\n        /* \"#utility.yul\":3981:3986   */\n      dup3\n        /* \"#utility.yul\":3977:4031   */\n      and\n        /* \"#utility.yul\":3966:4031   */\n      swap1\n      pop\n        /* \"#utility.yul\":3911:4037   */\n      swap2\n      swap1\n      pop\n      jump\t// out\n        /* \"#utility.yul\":4043:4120   */\n    tag_121:\n        /* \"#utility.yul\":4080:4087   */\n      0x00\n        /* \"#utility.yul\":4109:4114   */\n      dup2\n        /* \"#utility.yul\":4098:4114   */\n      swap1\n      pop\n        /* \"#utility.yul\":4043:4120   */\n      swap2\n      swap1\n      pop\n      jump\t// out\n        /* \"#utility.yul\":4126:4433   */\n    tag_109:\n        /* \"#utility.yul\":4194:4195   */\n      0x00\n        /* \"#utility.yul\":4204:4317   */\n    tag_151:\n        /* \"#utility.yul\":4218:4224   */\n      dup4\n        /* \"#utility.yul\":4215:4216   */\n      dup2\n        /* \"#utility.yul\":4212:4225   */\n      lt\n        /* \"#utility.yul\":4204:4317   */\n      iszero\n      tag_153\n      jumpi\n        /* \"#utility.yul\":4303:4304   */\n      dup1\n        /* \"#utility.yul\":4298:4301   */\n      dup3\n        /* \"#utility.yul\":4294:4305   */\n      add\n        /* \"#utility.yul\":4288:4306   */\n      mload\n        /* \"#utility.yul\":4284:4285   */\n      dup2\n        /* \"#utility.yul\":4279:4282   */\n      dup5\n        /* \"#utility.yul\":4275:4286   */\n      add\n        /* \"#utility.yul\":4268:4307   */\n      mstore\n        /* \"#utility.yul\":4240:4242   */\n      0x20\n        /* \"#utility.yul\":4237:4238   */\n      dup2\n        /* \"#utility.yul\":4233:4243   */\n      add\n        /* \"#utility.yul\":4228:4243   */\n      swap1\n      pop\n        /* \"#utility.yul\":4204:4317   */\n      jump(tag_151)\n    tag_153:\n        /* \"#utility.yul\":4335:4341   */\n      dup4\n        /* \"#utility.yul\":4332:4333   */\n      dup2\n        /* \"#utility.yul\":4329:4342   */\n      gt\n        /* \"#utility.yul\":4326:4427   */\n      iszero\n      tag_154\n      jumpi\n        /* \"#utility.yul\":4415:4416   */\n      0x00\n        /* \"#utility.yul\":4406:4412   */\n      dup5\n        /* \"#utility.yul\":4401:4404   */\n      dup5\n        /* \"#utility.yul\":4397:4413   */\n      add\n        /* \"#utility.yul\":4390:4417   */\n      mstore\n        /* \"#utility.yul\":4326:4427   */\n    tag_154:\n        /* \"#utility.yul\":4175:4433   */\n      pop\n        /* \"#utility.yul\":4126:4433   */\n      pop\n      pop\n      pop\n      jump\t// out\n        /* \"#utility.yul\":4439:4672   */\n    tag_62:\n        /* \"#utility.yul\":4478:4481   */\n      0x00\n        /* \"#utility.yul\":4501:4525   */\n      tag_156\n        /* \"#utility.yul\":4519:4524   */\n      dup3\n        /* \"#utility.yul\":4501:4525   */\n      tag_121\n      jump\t// in\n    tag_156:\n        /* \"#utility.yul\":4492:4525   */\n      swap2\n      pop\n        /* \"#utility.yul\":4547:4613   */\n      0xffffffffffffffffffffffffffffffffffffffffffffffffffffffffffffffff\n        /* \"#utility.yul\":4540:4545   */\n      dup3\n        /* \"#utility.yul\":4537:4614   */\n      eq\n        /* \"#utility.yul\":4534:4637   */\n      iszero\n      tag_157\n      jumpi\n        /* \"#utility.yul\":4617:4635   */\n      tag_158\n      tag_138\n      jump\t// in\n    tag_158:\n        /* \"#utility.yul\":4534:4637   */\n    tag_157:\n        /* \"#utility.yul\":4664:4665   */\n      0x01\n        /* \"#utility.yul\":4657:4662   */\n      dup3\n        /* \"#utility.yul\":4653:4666   */\n      add\n        /* \"#utility.yul\":4646:4666   */\n      swap1\n      pop\n        /* \"#utility.yul\":4439:4672   */\n      swap2\n      swap1\n      pop\n      jump\t// out\n        /* \"#utility.yul\":4678:4858   */\n    tag_138:\n        /* \"#utility.yul\":4726:4803   */\n      0x4e487b7100000000000000000000000000000000000000000000000000000000\n        /* \"#utility.yul\":4723:4724   */\n      0x00\n        /* \"#utility.yul\":4716:4804   */\n      mstore\n        /* \"#utility.yul\":4823:4827   */\n      0x11\n        /* \"#utility.yul\":4820:4821   */\n      0x04\n        /* \"#utility.yul\":4813:4828   */\n      mstore\n        /* \"#utility.yul\":4847:4851   */\n      0x24\n        /* \"#utility.yul\":4844:4845   */\n      0x00\n        /* \"#utility.yul\":4837:4852   */\n      revert\n        /* \"#utility.yul\":4987:5104   */\n    tag_96:\n        /* \"#utility.yul\":5096:5097   */\n      0x00\n        /* \"#utility.yul\":5093:5094   */\n      dup1\n        /* \"#utility.yul\":5086:5098   */\n      revert\n        /* \"#utility.yul\":5110:5212   */\n    tag_111:\n        /* \"#utility.yul\":5151:5157   */\n      0x00\n        /* \"#utility.yul\":5202:5204   */\n      0x1f\n        /* \"#utility.yul\":5198:5205   */\n      not\n        /* \"#utility.yul\":5193:5195   */\n      0x1f\n        /* \"#utility.yul\":5186:5191   */\n      dup4\n        /* \"#utility.yul\":5182:5196   */\n      add\n        /* \"#utility.yul\":5178:5206   */\n      and\n        /* \"#utility.yul\":5168:5206   */\n      swap1\n      pop\n        /* \"#utility.yul\":5110:5212   */\n      swap2\n      swap1\n      pop\n      jump\t// out\n        /* \"#utility.yul\":5218:5332   */\n    tag_117:\n      pop\n      jump\t// out\n        /* \"#utility.yul\":5338:5460   */\n    tag_88:\n        /* \"#utility.yul\":5411:5435   */\n      tag_166\n        /* \"#utility.yul\":5429:5434   */\n      dup2\n        /* \"#utility.yul\":5411:5435   */\n      tag_144\n      jump\t// in\n    tag_166:\n        /* \"#utility.yul\":5404:5409   */\n      dup2\n        /* \"#utility.yul\":5401:5436   */\n      eq\n        /* \"#utility.yul\":5391:5454   */\n      tag_167\n      jumpi\n        /* \"#utility.yul\":5450:5451   */\n      0x00\n        /* \"#utility.yul\":5447:5448   */\n      dup1\n        /* \"#utility.yul\":5440:5452   */\n      revert\n        /* \"#utility.yul\":5391:5454   */\n    tag_167:\n        /* \"#utility.yul\":5338:5460   */\n      pop\n      jump\t// out\n        /* \"#utility.yul\":5466:5588   */\n    tag_92:\n        /* \"#utility.yul\":5539:5563   */\n      tag_169\n        /* \"#utility.yul\":5557:5562   */\n      dup2\n        /* \"#utility.yul\":5539:5563   */\n      tag_121\n      jump\t// in\n    tag_169:\n        /* \"#utility.yul\":5532:5537   */\n      dup2\n        /* \"#utility.yul\":5529:5564   */\n      eq\n        /* \"#utility.yul\":5519:5582   */\n      tag_170\n      jumpi\n        /* \"#utility.yul\":5578:5579   */\n      0x00\n        /* \"#utility.yul\":5575:5576   */\n      dup1\n        /* \"#utility.yul\":5568:5580   */\n      revert\n        /* \"#utility.yul\":5519:5582   */\n    tag_170:\n        /* \"#utility.yul\":5466:5588   */\n      pop\n      jump\t// out\n\n    auxdata: 0xa2646970667358221220930cee27e9b2021b18a6f31a3714f4a3f5c37f59ee10b66f7d2800c70a039eea64736f6c63430008070033\n}\n",
				"bytecode": {
					"linkReferences": {},
					"object": "60c060405234801561001057600080fd5b50604051610b97380380610b978339818101604052810190610032919061005e565b81608081815250508060a0818152505050506100c4565b600081519050610058816100ad565b92915050565b60008060408385031215610075576100746100a8565b5b600061008385828601610049565b925050602061009485828601610049565b9150509250929050565b6000819050919050565b600080fd5b6100b68161009e565b81146100c157600080fd5b50565b60805160a051610aa06100f7600039600081816101ff015261055b01526000818161028e01526103940152610aa06000f3fe6080604052600436106100865760003560e01c806371706cbe1161005957806371706cbe1461014957806382ee0d1d14610174578063835fc6ca1461019f578063d0e30db0146101c8578063ff50abdc146101d257610086565b80630dbad9531461008b57806312065fe0146100b657806327e235e3146100e15780632dfdf0b51461011e575b600080fd5b34801561009757600080fd5b506100a06101fd565b6040516100ad9190610870565b60405180910390f35b3480156100c257600080fd5b506100cb610221565b6040516100d89190610870565b60405180910390f35b3480156100ed57600080fd5b5061010860048036038101906101039190610774565b610268565b6040516101159190610870565b60405180910390f35b34801561012a57600080fd5b50610133610280565b6040516101409190610870565b60405180910390f35b34801561015557600080fd5b5061015e610286565b60405161016b9190610870565b60405180910390f35b34801561018057600080fd5b5061018961028c565b6040516101969190610870565b60405180910390f35b3480156101ab57600080fd5b506101c660048036038101906101c191906107a1565b6102b0565b005b6101d061051d565b005b3480156101de57600080fd5b506101e761068e565b6040516101f49190610870565b60405180910390f35b7f000000000000000000000000000000000000000000000000000000000000000081565b6000600460003373ffffffffffffffffffffffffffffffffffffffff1673ffffffffffffffffffffffffffffffffffffffff16815260200190815260200160002054905090565b60046020528060005260406000206000915090505481565b60015481565b60025481565b7f000000000000000000000000000000000000000000000000000000000000000081565b600360009054906101000a900460ff16156102f7576040517f37ed32e800000000000000000000000000000000000000000000000000000000815260040160405180910390fd5b6001600360006101000a81548160ff02191690831515021790555080600081141561034e576040517f2c5211c600000000000000000000000000000000000000000000000000000000815260040160405180910390fd5b6000600460003373ffffffffffffffffffffffffffffffffffffffff1673ffffffffffffffffffffffffffffffffffffffff1681526020019081526020016000205490507f00000000000000000000000000000000000000000000000000000000000000008311156103ec576040517f4e6a369600000000000000000000000000000000000000000000000000000000815260040160405180910390fd5b80831115610426576040517ff4d678b800000000000000000000000000000000000000000000000000000000815260040160405180910390fd5b82816104329190610908565b600460003373ffffffffffffffffffffffffffffffffffffffff1673ffffffffffffffffffffffffffffffffffffffff16815260200190815260200160002081905550826000808282546104869190610908565b92505081905550600260008154809291906104a0906109ab565b91905055506104af3384610694565b3373ffffffffffffffffffffffffffffffffffffffff167f7fcf532c15f0a6db0bd6d0e038bea71d30d808c7d98cb3bf7268a95bf5081b65846040516104f59190610870565b60405180910390a250506000600360006101000a81548160ff02191690831515021790555050565b346000811415610559576040517f2c5211c600000000000000000000000000000000000000000000000000000000815260040160405180910390fd5b7f00000000000000000000000000000000000000000000000000000000000000003460005461058891906108b2565b11156105c0576040517f448f3ca800000000000000000000000000000000000000000000000000000000815260040160405180910390fd5b34600080828254019250508190555034600460003373ffffffffffffffffffffffffffffffffffffffff1673ffffffffffffffffffffffffffffffffffffffff168152602001908152602001600020600082825461061e91906108b2565b9250508190555060016000815480929190610638906109ab565b91905055503373ffffffffffffffffffffffffffffffffffffffff167fe1fffcc4923d04b559f4d29a8bfc6cda04eb5b0d3c460751c2402c5c5cc9109c346040516106839190610870565b60405180910390a250565b60005481565b6000808373ffffffffffffffffffffffffffffffffffffffff16836040516106bb90610839565b60006040518083038185875af1925050503d80600081146106f8576040519150601f19603f3d011682016040523d82523d6000602084013e6106fd565b606091505b50915091508161074457806040517f49ba945b00000000000000000000000000000000000000000000000000000000815260040161073b919061084e565b60405180910390fd5b50505050565b60008135905061075981610a3c565b92915050565b60008135905061076e81610a53565b92915050565b60006020828403121561078a57610789610a23565b5b60006107988482850161074a565b91505092915050565b6000602082840312156107b7576107b6610a23565b5b60006107c58482850161075f565b91505092915050565b60006107d98261088b565b6107e38185610896565b93506107f3818560208601610978565b6107fc81610a28565b840191505092915050565b60006108146000836108a7565b915061081f82610a39565b600082019050919050565b6108338161096e565b82525050565b600061084482610807565b9150819050919050565b6000602082019050818103600083015261086881846107ce565b905092915050565b6000602082019050610885600083018461082a565b92915050565b600081519050919050565b600082825260208201905092915050565b600081905092915050565b60006108bd8261096e565b91506108c88361096e565b9250827fffffffffffffffffffffffffffffffffffffffffffffffffffffffffffffffff038211156108fd576108fc6109f4565b5b828201905092915050565b60006109138261096e565b915061091e8361096e565b925082821015610931576109306109f4565b5b828203905092915050565b60006109478261094e565b9050919050565b600073ffffffffffffffffffffffffffffffffffffffff82169050919050565b6000819050919050565b60005b8381101561099657808201518184015260208101905061097b565b838111156109a5576000848401525b50505050565b60006109b68261096e565b91507fffffffffffffffffffffffffffffffffffffffffffffffffffffffffffffffff8214156109e9576109e86109f4565b5b600182019050919050565b7f4e487b7100000000000000000000000000000000000000000000000000000000600052601160045260246000fd5b600080fd5b6000601f19601f8301169050919050565b50565b610a458161093c565b8114610a5057600080fd5b50565b610a5c8161096e565b8114610a6757600080fd5b5056fea2646970667358221220930cee27e9b2021b18a6f31a3714f4a3f5c37f59ee10b66f7d2800c70a039eea64736f6c63430008070033",
					"opcodes": "PUSH1 0xC0 PUSH1 0x40 MSTORE CALLVALUE DUP1 ISZERO PUSH2 0x10 JUMPI PUSH1 0x0 DUP1 REVERT JUMPDEST POP PUSH1 0x40 MLOAD PUSH2 0xB97 CODESIZE SUB DUP1 PUSH2 0xB97 DUP4 CODECOPY DUP2 DUP2 ADD PUSH1 0x40 MSTORE DUP2 ADD SWAP1 PUSH2 0x32 SWAP2 SWAP1 PUSH2 0x5E JUMP JUMPDEST DUP2 PUSH1 0x80 DUP2 DUP2 MSTORE POP POP DUP1 PUSH1 0xA0 DUP2 DUP2 MSTORE POP POP POP POP PUSH2 0xC4 JUMP JUMPDEST PUSH1 0x0 DUP2 MLOAD SWAP1 POP PUSH2 0x58 DUP2 PUSH2 0xAD JUMP JUMPDEST SWAP3 SWAP2 POP POP JUMP JUMPDEST PUSH1 0x0 DUP1 PUSH1 0x40 DUP4 DUP6 SUB SLT ISZERO PUSH2 0x75 JUMPI PUSH2 0x74 PUSH2 0xA8 JUMP JUMPDEST JUMPDEST PUSH1 0x0 PUSH2 0x83 DUP6 DUP3 DUP7 ADD PUSH2 0x49 JUMP JUMPDEST SWAP3 POP POP PUSH1 0x20 PUSH2 0x94 DUP6 DUP3 DUP7 ADD PUSH2 0x49 JUMP JUMPDEST SWAP2 POP POP SWAP3 POP SWAP3 SWAP1 POP JUMP JUMPDEST PUSH1 0x0 DUP2 SWAP1 POP SWAP2 SWAP1 POP JUMP JUMPDEST PUSH1 0x0 DUP1 REVERT JUMPDEST PUSH2 0xB6 DUP2 PUSH2 0x9E JUMP JUMPDEST DUP2 EQ PUSH2 0xC1 JUMPI PUSH1 0x0 DUP1 REVERT JUMPDEST POP JUMP JUMPDEST PUSH1 0x80 MLOAD PUSH1 0xA0 MLOAD PUSH2 0xAA0 PUSH2 0xF7 PUSH1 0x0 CODECOPY PUSH1 0x0 DUP2 DUP2 PUSH2 0x1FF ADD MSTORE PUSH2 0x55B ADD MSTORE PUSH1 0x0 DUP2 DUP2 PUSH2 0x28E ADD MSTORE PUSH2 0x394 ADD MSTORE PUSH2 0xAA0 PUSH1 0x0 RETURN INVALID PUSH1 0x80 PUSH1 0x40 MSTORE PUSH1 0x4 CALLDATASIZE LT PUSH2 0x86 JUMPI PUSH1 0x0 CALLDATALOAD PUSH1 0xE0 SHR DUP1 PUSH4 0x71706CBE GT PUSH2 0x59 JUMPI DUP1 PUSH4 0x71706CBE EQ PUSH2 0x149 JUMPI DUP1 PUSH4 0x82EE0D1D EQ PUSH2 0x174 JUMPI DUP1 PUSH4 0x835FC6CA EQ PUSH2 0x19F JUMPI DUP1 PUSH4 0xD0E30DB0 EQ PUSH2 0x1C8 JUMPI DUP1 PUSH4 0xFF50ABDC EQ PUSH2 0x1D2 JUMPI PUSH2 0x86 JUMP JUMPDEST DUP1 PUSH4 0xDBAD953 EQ PUSH2 0x8B JUMPI DUP1 PUSH4 0x12065FE0 EQ PUSH2 0xB6 JUMPI DUP1 PUSH4 0x27E235E3 EQ PUSH2 0xE1 JUMPI DUP1 PUSH4 0x2DFDF0B5 EQ PUSH2 0x11E JUMPI JUMPDEST PUSH1 0x0 DUP1 REVERT JUMPDEST CALLVALUE DUP1 ISZERO PUSH2 0x97 JUMPI PUSH1 0x0 DUP1 REVERT JUMPDEST POP PUSH2 0xA0 PUSH2 0x1FD JUMP JUMPDEST PUSH1 0x40 MLOAD PUSH2 0xAD SWAP2 SWAP1 PUSH2 0x870 JUMP JUMPDEST PUSH1 0x40 MLOAD DUP1 SWAP2 SUB SWAP1 RETURN JUMPDEST CALLVALUE DUP1 ISZERO PUSH2 0xC2 JUMPI PUSH1 0x0 DUP1 REVERT JUMPDEST POP PUSH2 0xCB PUSH2 0x221 JUMP JUMPDEST PUSH1 0x40 MLOAD PUSH2 0xD8 SWAP2 SWAP1 PUSH2 0x870 JUMP JUMPDEST PUSH1 0x40 MLOAD DUP1 SWAP2 SUB SWAP1 RETURN JUMPDEST CALLVALUE DUP1 ISZERO PUSH2 0xED JUMPI PUSH1 0x0 DUP1 REVERT JUMPDEST POP PUSH2 0x108 PUSH1 0x4 DUP1 CALLDATASIZE SUB DUP2 ADD SWAP1 PUSH2 0x103 SWAP2 SWAP1 PUSH2 0x774 JUMP JUMPDEST PUSH2 0x268 JUMP JUMPDEST PUSH1 0x40 MLOAD PUSH2 0x115 SWAP2 SWAP1 PUSH2 0x870 JUMP JUMPDEST PUSH1 0x40 MLOAD DUP1 SWAP2 SUB SWAP1 RETURN JUMPDEST CALLVALUE DUP1 ISZERO PUSH2 0x12A JUMPI PUSH1 0x0 DUP1 REVERT JUMPDEST POP PUSH2 0x133 PUSH2 0x280 JUMP JUMPDEST PUSH1 0x40 MLOAD PUSH2 0x140 SWAP2 SWAP1 PUSH2 0x870 JUMP JUMPDEST PUSH1 0x40 MLOAD DUP1 SWAP2 SUB SWAP1 RETURN JUMPDEST CALLVALUE DUP1 ISZERO PUSH2 0x155 JUMPI PUSH1 0x0 DUP1 REVERT JUMPDEST POP PUSH2 0x15E PUSH2 0x286 JUMP JUMPDEST PUSH1 0x40 MLOAD PUSH2 0x16B SWAP2 SWAP1 PUSH2 0x870 JUMP JUMPDEST PUSH1 0x40 MLOAD DUP1 SWAP2 SUB SWAP1 RETURN JUMPDEST CALLVALUE DUP1 ISZERO PUSH2 0x180 JUMPI PUSH1 0x0 DUP1 REVERT JUMPDEST POP PUSH2 0x189 PUSH2 0x28C JUMP JUMPDEST PUSH1 0x40 MLOAD PUSH2 0x196 SWAP2 SWAP1 PUSH2 0x870 JUMP JUMPDEST PUSH1 0x40 MLOAD DUP1 SWAP2 SUB SWAP1 RETURN JUMPDEST CALLVALUE DUP1 ISZERO PUSH2 0x1AB JUMPI PUSH1 0x0 DUP1 REVERT JUMPDEST POP PUSH2 0x1C6 PUSH1 0x4 DUP1 CALLDATASIZE SUB DUP2 ADD SWAP1 PUSH2 0x1C1 SWAP2 SWAP1 PUSH2 0x7A1 JUMP JUMPDEST PUSH2 0x2B0 JUMP JUMPDEST STOP JUMPDEST PUSH2 0x1D0 PUSH2 0x51D JUMP JUMPDEST STOP JUMPDEST CALLVALUE DUP1 ISZERO PUSH2 0x1DE JUMPI PUSH1 0x0 DUP1 REVERT JUMPDEST POP PUSH2 0x1E7 PUSH2 0x68E JUMP JUMPDEST PUSH1 0x40 MLOAD PUSH2 0x1F4 SWAP2 SWAP1 PUSH2 0x870 JUMP JUMPDEST PUSH1 0x40 MLOAD DUP1 SWAP2 SUB SWAP1 RETURN JUMPDEST PUSH32 0x0 DUP2 JUMP JUMPDEST PUSH1 0x0 PUSH1 0x4 PUSH1 0x0 CALLER PUSH20 0xFFFFFFFFFFFFFFFFFFFFFFFFFFFFFFFFFFFFFFFF AND PUSH20 0xFFFFFFFFFFFFFFFFFFFFFFFFFFFFFFFFFFFFFFFF AND DUP2 MSTORE PUSH1 0x20 ADD SWAP1 DUP2 MSTORE PUSH1 0x20 ADD PUSH1 0x0 KECCAK256 SLOAD SWAP1 POP SWAP1 JUMP JUMPDEST PUSH1 0x4 PUSH1 0x20 MSTORE DUP1 PUSH1 0x0 MSTORE PUSH1 0x40 PUSH1 0x0 KECCAK256 PUSH1 0x0 SWAP2 POP SWAP1 POP SLOAD DUP2 JUMP JUMPDEST PUSH1 0x1 SLOAD DUP2 JUMP JUMPDEST PUSH1 0x2 SLOAD DUP2 JUMP JUMPDEST PUSH32 0x0 DUP2 JUMP JUMPDEST PUSH1 0x3 PUSH1 0x0 SWAP1 SLOAD SWAP1 PUSH2 0x100 EXP SWAP1 DIV PUSH1 0xFF AND ISZERO PUSH2 0x2F7 JUMPI PUSH1 0x40 MLOAD PUSH32 0x37ED32E800000000000000000000000000000000000000000000000000000000 DUP2 MSTORE PUSH1 0x4 ADD PUSH1 0x40 MLOAD DUP1 SWAP2 SUB SWAP1 REVERT JUMPDEST PUSH1 0x1 PUSH1 0x3 PUSH1 0x0 PUSH2 0x100 EXP DUP2 SLOAD DUP2 PUSH1 0xFF MUL NOT AND SWAP1 DUP4 ISZERO ISZERO MUL OR SWAP1 SSTORE POP DUP1 PUSH1 0x0 DUP2 EQ ISZERO PUSH2 0x34E JUMPI PUSH1 0x40 MLOAD PUSH32 0x2C5211C600000000000000000000000000000000000000000000000000000000 DUP2 MSTORE PUSH1 0x4 ADD PUSH1 0x40 MLOAD DUP1 SWAP2 SUB SWAP1 REVERT JUMPDEST PUSH1 0x0 PUSH1 0x4 PUSH1 0x0 CALLER PUSH20 0xFFFFFFFFFFFFFFFFFFFFFFFFFFFFFFFFFFFFFFFF AND PUSH20 0xFFFFFFFFFFFFFFFFFFFFFFFFFFFFFFFFFFFFFFFF AND DUP2 MSTORE PUSH1 0x20 ADD SWAP1 DUP2 MSTORE PUSH1 0x20 ADD PUSH1 0x0 KECCAK256 SLOAD SWAP1 POP PUSH32 0x0 DUP4 GT ISZERO PUSH2 0x3EC JUMPI PUSH1 0x40 MLOAD PUSH32 0x4E6A369600000000000000000000000000000000000000000000000000000000 DUP2 MSTORE PUSH1 0x4 ADD PUSH1 0x40 MLOAD DUP1 SWAP2 SUB SWAP1 REVERT JUMPDEST DUP1 DUP4 GT ISZERO PUSH2 0x426 JUMPI PUSH1 0x40 MLOAD PUSH32 0xF4D678B800000000000000000000000000000000000000000000000000000000 DUP2 MSTORE PUSH1 0x4 ADD PUSH1 0x40 MLOAD DUP1 SWAP2 SUB SWAP1 REVERT JUMPDEST DUP3 DUP2 PUSH2 0x432 SWAP2 SWAP1 PUSH2 0x908 JUMP JUMPDEST PUSH1 0x4 PUSH1 0x0 CALLER PUSH20 0xFFFFFFFFFFFFFFFFFFFFFFFFFFFFFFFFFFFFFFFF AND PUSH20 0xFFFFFFFFFFFFFFFFFFFFFFFFFFFFFFFFFFFFFFFF AND DUP2 MSTORE PUSH1 0x20 ADD SWAP1 DUP2 MSTORE PUSH1 0x20 ADD PUSH1 0x0 KECCAK256 DUP2 SWAP1 SSTORE POP DUP3 PUSH1 0x0 DUP1 DUP3 DUP3 SLOAD PUSH2 0x486 SWAP2 SWAP1 PUSH2 0x908 JUMP JUMPDEST SWAP3 POP POP DUP2 SWAP1 SSTORE POP PUSH1 0x2 PUSH1 0x0 DUP2 SLOAD DUP1 SWAP3 SWAP2 SWAP1 PUSH2 0x4A0 SWAP1 PUSH2 0x9AB JUMP JUMPDEST SWAP2 SWAP1 POP SSTORE POP PUSH2 0x4AF CALLER DUP5 PUSH2 0x694 JUMP JUMPDEST CALLER PUSH20 0xFFFFFFFFFFFFFFFFFFFFFFFFFFFFFFFFFFFFFFFF AND PUSH32 0x7FCF532C15F0A6DB0BD6D0E038BEA71D30D808C7D98CB3BF7268A95BF5081B65 DUP5 PUSH1 0x40 MLOAD PUSH2 0x4F5 SWAP2 SWAP1 PUSH2 0x870 JUMP JUMPDEST PUSH1 0x40 MLOAD DUP1 SWAP2 SUB SWAP1 LOG2 POP POP PUSH1 0x0 PUSH1 0x3 PUSH1 0x0 PUSH2 0x100 EXP DUP2 SLOAD DUP2 PUSH1 0xFF MUL NOT AND SWAP1 DUP4 ISZERO ISZERO MUL OR SWAP1 SSTORE POP POP JUMP JUMPDEST CALLVALUE PUSH1 0x0 DUP2 EQ ISZERO PUSH2 0x559 JUMPI PUSH1 0x40 MLOAD PUSH32 0x2C5211C600000000000000000000000000000000000000000000000000000000 DUP2 MSTORE PUSH1 0x4 ADD PUSH1 0x40 MLOAD DUP1 SWAP2 SUB SWAP1 REVERT JUMPDEST PUSH32 0x0 CALLVALUE PUSH1 0x0 SLOAD PUSH2 0x588 SWAP2 SWAP1 PUSH2 0x8B2 JUMP JUMPDEST GT ISZERO PUSH2 0x5C0 JUMPI PUSH1 0x40 MLOAD PUSH32 0x448F3CA800000000000000000000000000000000000000000000000000000000 DUP2 MSTORE PUSH1 0x4 ADD PUSH1 0x40 MLOAD DUP1 SWAP2 SUB SWAP1 REVERT JUMPDEST CALLVALUE PUSH1 0x0 DUP1 DUP3 DUP3 SLOAD ADD SWAP3 POP POP DUP2 SWAP1 SSTORE POP CALLVALUE PUSH1 0x4 PUSH1 0x0 CALLER PUSH20 0xFFFFFFFFFFFFFFFFFFFFFFFFFFFFFFFFFFFFFFFF AND PUSH20 0xFFFFFFFFFFFFFFFFFFFFFFFFFFFFFFFFFFFFFFFF AND DUP2 MSTORE PUSH1 0x20 ADD SWAP1 DUP2 MSTORE PUSH1 0x20 ADD PUSH1 0x0 KECCAK256 PUSH1 0x0 DUP3 DUP3 SLOAD PUSH2 0x61E SWAP2 SWAP1 PUSH2 0x8B2 JUMP JUMPDEST SWAP3 POP POP DUP2 SWAP1 SSTORE POP PUSH1 0x1 PUSH1 0x0 DUP2 SLOAD DUP1 SWAP3 SWAP2 SWAP1 PUSH2 0x638 SWAP1 PUSH2 0x9AB JUMP JUMPDEST SWAP2 SWAP1 POP SSTORE POP CALLER PUSH20 0xFFFFFFFFFFFFFFFFFFFFFFFFFFFFFFFFFFFFFFFF AND PUSH32 0xE1FFFCC4923D04B559F4D29A8BFC6CDA04EB5B0D3C460751C2402C5C5CC9109C CALLVALUE PUSH1 0x40 MLOAD PUSH2 0x683 SWAP2 SWAP1 PUSH2 0x870 JUMP JUMPDEST PUSH1 0x40 MLOAD DUP1 SWAP2 SUB SWAP1 LOG2 POP JUMP JUMPDEST PUSH1 0x0 SLOAD DUP2 JUMP JUMPDEST PUSH1 0x0 DUP1 DUP4 PUSH20 0xFFFFFFFFFFFFFFFFFFFFFFFFFFFFFFFFFFFFFFFF AND DUP4 PUSH1 0x40 MLOAD PUSH2 0x6BB SWAP1 PUSH2 0x839 JUMP JUMPDEST PUSH1 0x0 PUSH1 0x40 MLOAD DUP1 DUP4 SUB DUP2 DUP6 DUP8 GAS CALL SWAP3 POP POP POP RETURNDATASIZE DUP1 PUSH1 0x0 DUP2 EQ PUSH2 0x6F8 JUMPI PUSH1 0x40 MLOAD SWAP2 POP PUSH1 0x1F NOT PUSH1 0x3F RETURNDATASIZE ADD AND DUP3 ADD PUSH1 0x40 MSTORE RETURNDATASIZE DUP3 MSTORE RETURNDATASIZE PUSH1 0x0 PUSH1 0x20 DUP5 ADD RETURNDATACOPY PUSH2 0x6FD JUMP JUMPDEST PUSH1 0x60 SWAP2 POP JUMPDEST POP SWAP2 POP SWAP2 POP DUP2 PUSH2 0x744 JUMPI DUP1 PUSH1 0x40 MLOAD PUSH32 0x49BA945B00000000000000000000000000000000000000000000000000000000 DUP2 MSTORE PUSH1 0x4 ADD PUSH2 0x73B SWAP2 SWAP1 PUSH2 0x84E JUMP JUMPDEST PUSH1 0x40 MLOAD DUP1 SWAP2 SUB SWAP1 REVERT JUMPDEST POP POP POP POP JUMP JUMPDEST PUSH1 0x0 DUP2 CALLDATALOAD SWAP1 POP PUSH2 0x759 DUP2 PUSH2 0xA3C JUMP JUMPDEST SWAP3 SWAP2 POP POP JUMP JUMPDEST PUSH1 0x0 DUP2 CALLDATALOAD SWAP1 POP PUSH2 0x76E DUP2 PUSH2 0xA53 JUMP JUMPDEST SWAP3 SWAP2 POP POP JUMP JUMPDEST PUSH1 0x0 PUSH1 0x20 DUP3 DUP5 SUB SLT ISZERO PUSH2 0x78A JUMPI PUSH2 0x789 PUSH2 0xA23 JUMP JUMPDEST JUMPDEST PUSH1 0x0 PUSH2 0x798 DUP5 DUP3 DUP6 ADD PUSH2 0x74A JUMP JUMPDEST SWAP2 POP POP SWAP3 SWAP2 POP POP JUMP JUMPDEST PUSH1 0x0 PUSH1 0x20 DUP3 DUP5 SUB SLT ISZERO PUSH2 0x7B7 JUMPI PUSH2 0x7B6 PUSH2 0xA23 JUMP JUMPDEST JUMPDEST PUSH1 0x0 PUSH2 0x7C5 DUP5 DUP3 DUP6 ADD PUSH2 0x75F JUMP JUMPDEST SWAP2 POP POP SWAP3 SWAP2 POP POP JUMP JUMPDEST PUSH1 0x0 PUSH2 0x7D9 DUP3 PUSH2 0x88B JUMP JUMPDEST PUSH2 0x7E3 DUP2 DUP6 PUSH2 0x896 JUMP JUMPDEST SWAP4 POP PUSH2 0x7F3 DUP2 DUP6 PUSH1 0x20 DUP7 ADD PUSH2 0x978 JUMP JUMPDEST PUSH2 0x7FC DUP2 PUSH2 0xA28 JUMP JUMPDEST DUP5 ADD SWAP2 POP POP SWAP3 SWAP2 POP POP JUMP JUMPDEST PUSH1 0x0 PUSH2 0x814 PUSH1 0x0 DUP4 PUSH2 0x8A7 JUMP JUMPDEST SWAP2 POP PUSH2 0x81F DUP3 PUSH2 0xA39 JUMP JUMPDEST PUSH1 0x0 DUP3 ADD SWAP1 POP SWAP2 SWAP1 POP JUMP JUMPDEST PUSH2 0x833 DUP2 PUSH2 0x96E JUMP JUMPDEST DUP3 MSTORE POP POP JUMP JUMPDEST PUSH1 0x0 PUSH2 0x844 DUP3 PUSH2 0x807 JUMP JUMPDEST SWAP2 POP DUP2 SWAP1 POP SWAP2 SWAP1 POP JUMP JUMPDEST PUSH1 0x0 PUSH1 0x20 DUP3 ADD SWAP1 POP DUP2 DUP2 SUB PUSH1 0x0 DUP4 ADD MSTORE PUSH2 0x868 DUP2 DUP5 PUSH2 0x7CE JUMP JUMPDEST SWAP1 POP SWAP3 SWAP2 POP POP JUMP JUMPDEST PUSH1 0x0 PUSH1 0x20 DUP3 ADD SWAP1 POP PUSH2 0x885 PUSH1 0x0 DUP4 ADD DUP5 PUSH2 0x82A JUMP JUMPDEST SWAP3 SWAP2 POP POP JUMP JUMPDEST PUSH1 0x0 DUP2 MLOAD SWAP1 POP SWAP2 SWAP1 POP JUMP JUMPDEST PUSH1 0x0 DUP3 DUP3 MSTORE PUSH1 0x20 DUP3 ADD SWAP1 POP SWAP3 SWAP2 POP POP JUMP JUMPDEST PUSH1 0x0 DUP2 SWAP1 POP SWAP3 SWAP2 POP POP JUMP JUMPDEST PUSH1 0x0 PUSH2 0x8BD DUP3 PUSH2 0x96E JUMP JUMPDEST SWAP2 POP PUSH2 0x8C8 DUP4 PUSH2 0x96E JUMP JUMPDEST SWAP3 POP DUP3 PUSH32 0xFFFFFFFFFFFFFFFFFFFFFFFFFFFFFFFFFFFFFFFFFFFFFFFFFFFFFFFFFFFFFFFF SUB DUP3 GT ISZERO PUSH2 0x8FD JUMPI PUSH2 0x8FC PUSH2 0x9F4 JUMP JUMPDEST JUMPDEST DUP3 DUP3 ADD SWAP1 POP SWAP3 SWAP2 POP POP JUMP JUMPDEST PUSH1 0x0 PUSH2 0x913 DUP3 PUSH2 0x96E JUMP JUMPDEST SWAP2 POP PUSH2 0x91E DUP4 PUSH2 0x96E JUMP JUMPDEST SWAP3 POP DUP3 DUP3 LT ISZERO PUSH2 0x931 JUMPI PUSH2 0x930 PUSH2 0x9F4 JUMP JUMPDEST JUMPDEST DUP3 DUP3 SUB SWAP1 POP SWAP3 SWAP2 POP POP JUMP JUMPDEST PUSH1 0x0 PUSH2 0x947 DUP3 PUSH2 0x94E JUMP JUMPDEST SWAP1 POP SWAP2 SWAP1 POP JUMP JUMPDEST PUSH1 0x0 PUSH20 0xFFFFFFFFFFFFFFFFFFFFFFFFFFFFFFFFFFFFFFFF DUP3 AND SWAP1 POP SWAP2 SWAP1 POP JUMP JUMPDEST PUSH1 0x0 DUP2 SWAP1 POP SWAP2 SWAP1 POP JUMP JUMPDEST PUSH1 0x0 JUMPDEST DUP4 DUP2 LT ISZERO PUSH2 0x996 JUMPI DUP1 DUP3 ADD MLOAD DUP2 DUP5 ADD MSTORE PUSH1 0x20 DUP2 ADD SWAP1 POP PUSH2 0x97B JUMP JUMPDEST DUP4 DUP2 GT ISZERO PUSH2 0x9A5 JUMPI PUSH1 0x0 DUP5 DUP5 ADD MSTORE JUMPDEST POP POP POP POP JUMP JUMPDEST PUSH1 0x0 PUSH2 0x9B6 DUP3 PUSH2 0x96E JUMP JUMPDEST SWAP2 POP PUSH32 0xFFFFFFFFFFFFFFFFFFFFFFFFFFFFFFFFFFFFFFFFFFFFFFFFFFFFFFFFFFFFFFFF DUP3 EQ ISZERO PUSH2 0x9E9 JUMPI PUSH2 0x9E8 PUSH2 0x9F4 JUMP JUMPDEST JUMPDEST PUSH1 0x1 DUP3 ADD SWAP1 POP SWAP2 SWAP1 POP JUMP JUMPDEST PUSH32 0x4E487B7100000000000000000000000000000000000000000000000000000000 PUSH1 0x0 MSTORE PUSH1 0x11 PUSH1 0x4 MSTORE PUSH1 0x24 PUSH1 0x0 REVERT JUMPDEST PUSH1 0x0 DUP1 REVERT JUMPDEST PUSH1 0x0 PUSH1 0x1F NOT PUSH1 0x1F DUP4 ADD AND SWAP1 POP SWAP2 SWAP1 POP JUMP JUMPDEST POP JUMP JUMPDEST PUSH2 0xA45 DUP2 PUSH2 0x93C JUMP JUMPDEST DUP2 EQ PUSH2 0xA50 JUMPI PUSH1 0x0 DUP1 REVERT JUMPDEST POP JUMP JUMPDEST PUSH2 0xA5C DUP2 PUSH2 0x96E JUMP JUMPDEST DUP2 EQ PUSH2 0xA67 JUMPI PUSH1 0x0 DUP1 REVERT JUMPDEST POP JUMP INVALID LOG2 PUSH5 0x6970667358 0x22 SLT KECCAK256 SWAP4 0xC 0xEE 0x27 0xE9 0xB2 MUL SHL XOR 0xA6 RETURN BYTE CALLDATACOPY EQ DELEGATECALL LOG3 CREATE2 0xC3 PUSH32 0x59EE10B66F7D2800C70A039EEA64736F6C634300080700330000000000000000 "
				},
				"gasEstimates": {
					"creation": {
						"codeDepositCost": "544000",
						"executionCost": "infinite",
						"totalCost": "infinite"
					},
					"external": {
						"BANK_CAP()": "infinite",
						"WITHDRAWAL_LIMIT()": "infinite",
						"balances(address)": "2859",
						"deposit()": "infinite",
						"depositCount()": "2496",
						"getBalance()": "2549",
						"totalDeposited()": "2517",
						"withdrawal(uint256)": "infinite",
						"withdrawalCount()": "2429"
					},
					"internal": {
						"_transferEth(address payable,uint256)": "infinite"
					}
				},
				"methodIdentifiers": {
					"BANK_CAP()": "0dbad953",
					"WITHDRAWAL_LIMIT()": "82ee0d1d",
					"balances(address)": "27e235e3",
					"deposit()": "d0e30db0",
					"depositCount()": "2dfdf0b5",
					"getBalance()": "12065fe0",
					"totalDeposited()": "ff50abdc",
					"withdrawal(uint256)": "835fc6ca",
					"withdrawalCount()": "71706cbe"
				}
			},
			"storageLayout": {
				"storage": [
					{
						"astId": 11,
						"contract": "contracts/KipuBank.sol:KipuBank",
						"label": "totalDeposited",
						"offset": 0,
						"slot": "0",
						"type": "t_uint256"
					},
					{
						"astId": 14,
						"contract": "contracts/KipuBank.sol:KipuBank",
						"label": "depositCount",
						"offset": 0,
						"slot": "1",
						"type": "t_uint256"
					},
					{
						"astId": 17,
						"contract": "contracts/KipuBank.sol:KipuBank",
						"label": "withdrawalCount",
						"offset": 0,
						"slot": "2",
						"type": "t_uint256"
					},
					{
						"astId": 20,
						"contract": "contracts/KipuBank.sol:KipuBank",
						"label": "locked",
						"offset": 0,
						"slot": "3",
						"type": "t_bool"
					},
					{
						"astId": 25,
						"contract": "contracts/KipuBank.sol:KipuBank",
						"label": "balances",
						"offset": 0,
						"slot": "4",
						"type": "t_mapping(t_address,t_uint256)"
					}
				],
				"types": {
					"t_address": {
						"encoding": "inplace",
						"label": "address",
						"numberOfBytes": "20"
					},
					"t_bool": {
						"encoding": "inplace",
						"label": "bool",
						"numberOfBytes": "1"
					},
					"t_mapping(t_address,t_uint256)": {
						"encoding": "mapping",
						"key": "t_address",
						"label": "mapping(address => uint256)",
						"numberOfBytes": "32",
						"value": "t_uint256"
					},
					"t_uint256": {
						"encoding": "inplace",
						"label": "uint256",
						"numberOfBytes": "32"
					}
				}
			},
			"userdoc": {
				"errors": {
					"BankCapExceeded()": [
						{
							"notice": "Error thrown when the total deposits would exceed the bank's global cap."
						}
					],
					"InsufficientBalance()": [
						{
							"notice": "Error thrown when a user tries to withdraw more than their balance."
						}
					],
					"InvalidAmount()": [
						{
							"notice": "Error thrown when the provided amount is invalid (e.g., 0)."
						}
					],
					"ReentrantCall()": [
						{
							"notice": "Error for reentrancy guard, thrown when a reentrant call is detected."
						}
					],
					"WithdrawalFailed(bytes)": [
						{
							"notice": "Error thrown when a withdrawal transfer fails."
						}
					],
					"WithdrawalLimitExceeded()": [
						{
							"notice": "Error thrown when a withdrawal amount exceeds the per-transaction limit."
						}
					]
				},
				"events": {
					"Deposit(address,uint256)": {
						"notice": "Emitted when a user deposits ETH."
					},
					"Withdrawal(address,uint256)": {
						"notice": "Emitted when a user withdraws ETH."
					}
				},
				"kind": "user",
				"methods": {
					"BANK_CAP()": {
						"notice": "The global deposit cap for the entire bank."
					},
					"WITHDRAWAL_LIMIT()": {
						"notice": "The per-transaction withdrawal limit."
					},
					"balances(address)": {
						"notice": "Mapping from address to user balance."
					},
					"constructor": {
						"notice": "Initializes the contract with withdrawal and deposit limits."
					},
					"deposit()": {
						"notice": "Deposits ETH into the user's balance."
					},
					"depositCount()": {
						"notice": "A counter for the total number of deposits made."
					},
					"getBalance()": {
						"notice": "Gets the balance of the message sender."
					},
					"totalDeposited()": {
						"notice": "The total amount of ETH currently deposited in the contract."
					},
					"withdrawal(uint256)": {
						"notice": "Withdraws ETH from the user's balance."
					},
					"withdrawalCount()": {
						"notice": "A counter for the total number of withdrawals made."
					}
				},
				"notice": "A simple banking contract where users can deposit and withdraw ETH.",
				"version": 1
			}
		}
	}
}