{
	"contracts/KipuBank.sol": {
		"KipuBank": {
			"abi": [
				{
					"inputs": [
						{
							"internalType": "uint256",
							"name": "_withdrawalLimit",
							"type": "uint256"
						},
						{
							"internalType": "uint256",
							"name": "_bankCap",
							"type": "uint256"
						}
					],
					"stateMutability": "nonpayable",
					"type": "constructor"
				},
				{
					"inputs": [],
					"name": "BankCapExceeded",
					"type": "error"
				},
				{
					"inputs": [],
					"name": "InsufficientBalance",
					"type": "error"
				},
				{
					"inputs": [],
					"name": "InvalidAmount",
					"type": "error"
				},
				{
					"inputs": [],
					"name": "WithdrawalLimitExceeded",
					"type": "error"
				},
				{
					"anonymous": false,
					"inputs": [
						{
							"indexed": true,
							"internalType": "address",
							"name": "user",
							"type": "address"
						},
						{
							"indexed": false,
							"internalType": "uint256",
							"name": "amount",
							"type": "uint256"
						}
					],
					"name": "Deposit_Eth",
					"type": "event"
				},
				{
					"anonymous": false,
					"inputs": [
						{
							"indexed": true,
							"internalType": "address",
							"name": "user",
							"type": "address"
						},
						{
							"indexed": false,
							"internalType": "uint256",
							"name": "amount",
							"type": "uint256"
						}
					],
					"name": "Withdrawal_Eth",
					"type": "event"
				},
				{
					"inputs": [
						{
							"internalType": "address",
							"name": "",
							"type": "address"
						}
					],
					"name": "balances",
					"outputs": [
						{
							"internalType": "uint256",
							"name": "",
							"type": "uint256"
						}
					],
					"stateMutability": "view",
					"type": "function"
				},
				{
					"inputs": [],
					"name": "bankCap",
					"outputs": [
						{
							"internalType": "uint256",
							"name": "",
							"type": "uint256"
						}
					],
					"stateMutability": "view",
					"type": "function"
				},
				{
					"inputs": [],
					"name": "deposit",
					"outputs": [],
					"stateMutability": "payable",
					"type": "function"
				},
				{
					"inputs": [
						{
							"internalType": "uint256",
							"name": "amount",
							"type": "uint256"
						}
					],
					"name": "withdrawal",
					"outputs": [],
					"stateMutability": "nonpayable",
					"type": "function"
				},
				{
					"inputs": [],
					"name": "withdrawalLimit",
					"outputs": [
						{
							"internalType": "uint256",
							"name": "",
							"type": "uint256"
						}
					],
					"stateMutability": "view",
					"type": "function"
				}
			],
			"devdoc": {
				"author": "michelmassaad",
				"kind": "dev",
				"methods": {},
				"title": "Contrato KipuBank",
				"version": 1
			},
			"evm": {
				"assembly": "    /* \"contracts/KipuBank.sol\":153:3204  contract KipuBank {\r... */\n  mstore(0x40, 0xc0)\n    /* \"contracts/KipuBank.sol\":702:840  constructor(uint256 _withdrawalLimit, uint256 _bankCap) {\r... */\n  callvalue\n  dup1\n  iszero\n  tag_1\n  jumpi\n  0x00\n  dup1\n  revert\ntag_1:\n  pop\n  mload(0x40)\n  sub(codesize, bytecodeSize)\n  dup1\n  bytecodeSize\n  dup4\n  codecopy\n  dup2\n  dup2\n  add\n  0x40\n  mstore\n  dup2\n  add\n  swap1\n  tag_2\n  swap2\n  swap1\n  tag_3\n  jump\t// in\ntag_2:\n    /* \"contracts/KipuBank.sol\":787:803  _withdrawalLimit */\n  dup2\n    /* \"contracts/KipuBank.sol\":769:803  withdrawalLimit = _withdrawalLimit */\n  0x80\n  dup2\n  dup2\n  mstore\n  pop\n  pop\n    /* \"contracts/KipuBank.sol\":824:832  _bankCap */\n  dup1\n    /* \"contracts/KipuBank.sol\":814:832  bankCap = _bankCap */\n  0xa0\n  dup2\n  dup2\n  mstore\n  pop\n  pop\n    /* \"contracts/KipuBank.sol\":702:840  constructor(uint256 _withdrawalLimit, uint256 _bankCap) {\r... */\n  pop\n  pop\n    /* \"contracts/KipuBank.sol\":153:3204  contract KipuBank {\r... */\n  jump(tag_6)\n    /* \"#utility.yul\":7:150   */\ntag_8:\n    /* \"#utility.yul\":64:69   */\n  0x00\n    /* \"#utility.yul\":95:101   */\n  dup2\n    /* \"#utility.yul\":89:102   */\n  mload\n    /* \"#utility.yul\":80:102   */\n  swap1\n  pop\n    /* \"#utility.yul\":111:144   */\n  tag_10\n    /* \"#utility.yul\":138:143   */\n  dup2\n    /* \"#utility.yul\":111:144   */\n  tag_11\n  jump\t// in\ntag_10:\n    /* \"#utility.yul\":7:150   */\n  swap3\n  swap2\n  pop\n  pop\n  jump\t// out\n    /* \"#utility.yul\":156:663   */\ntag_3:\n    /* \"#utility.yul\":235:241   */\n  0x00\n    /* \"#utility.yul\":243:249   */\n  dup1\n    /* \"#utility.yul\":292:294   */\n  0x40\n    /* \"#utility.yul\":280:289   */\n  dup4\n    /* \"#utility.yul\":271:278   */\n  dup6\n    /* \"#utility.yul\":267:290   */\n  sub\n    /* \"#utility.yul\":263:295   */\n  slt\n    /* \"#utility.yul\":260:379   */\n  iszero\n  tag_13\n  jumpi\n    /* \"#utility.yul\":298:377   */\n  tag_14\n  tag_15\n  jump\t// in\ntag_14:\n    /* \"#utility.yul\":260:379   */\ntag_13:\n    /* \"#utility.yul\":418:419   */\n  0x00\n    /* \"#utility.yul\":443:507   */\n  tag_16\n    /* \"#utility.yul\":499:506   */\n  dup6\n    /* \"#utility.yul\":490:496   */\n  dup3\n    /* \"#utility.yul\":479:488   */\n  dup7\n    /* \"#utility.yul\":475:497   */\n  add\n    /* \"#utility.yul\":443:507   */\n  tag_8\n  jump\t// in\ntag_16:\n    /* \"#utility.yul\":433:507   */\n  swap3\n  pop\n    /* \"#utility.yul\":389:517   */\n  pop\n    /* \"#utility.yul\":556:558   */\n  0x20\n    /* \"#utility.yul\":582:646   */\n  tag_17\n    /* \"#utility.yul\":638:645   */\n  dup6\n    /* \"#utility.yul\":629:635   */\n  dup3\n    /* \"#utility.yul\":618:627   */\n  dup7\n    /* \"#utility.yul\":614:636   */\n  add\n    /* \"#utility.yul\":582:646   */\n  tag_8\n  jump\t// in\ntag_17:\n    /* \"#utility.yul\":572:646   */\n  swap2\n  pop\n    /* \"#utility.yul\":527:656   */\n  pop\n    /* \"#utility.yul\":156:663   */\n  swap3\n  pop\n  swap3\n  swap1\n  pop\n  jump\t// out\n    /* \"#utility.yul\":750:827   */\ntag_20:\n    /* \"#utility.yul\":787:794   */\n  0x00\n    /* \"#utility.yul\":816:821   */\n  dup2\n    /* \"#utility.yul\":805:821   */\n  swap1\n  pop\n    /* \"#utility.yul\":750:827   */\n  swap2\n  swap1\n  pop\n  jump\t// out\n    /* \"#utility.yul\":956:1073   */\ntag_15:\n    /* \"#utility.yul\":1065:1066   */\n  0x00\n    /* \"#utility.yul\":1062:1063   */\n  dup1\n    /* \"#utility.yul\":1055:1067   */\n  revert\n    /* \"#utility.yul\":1079:1201   */\ntag_11:\n    /* \"#utility.yul\":1152:1176   */\n  tag_26\n    /* \"#utility.yul\":1170:1175   */\n  dup2\n    /* \"#utility.yul\":1152:1176   */\n  tag_20\n  jump\t// in\ntag_26:\n    /* \"#utility.yul\":1145:1150   */\n  dup2\n    /* \"#utility.yul\":1142:1177   */\n  eq\n    /* \"#utility.yul\":1132:1195   */\n  tag_27\n  jumpi\n    /* \"#utility.yul\":1191:1192   */\n  0x00\n    /* \"#utility.yul\":1188:1189   */\n  dup1\n    /* \"#utility.yul\":1181:1193   */\n  revert\n    /* \"#utility.yul\":1132:1195   */\ntag_27:\n    /* \"#utility.yul\":1079:1201   */\n  pop\n  jump\t// out\n    /* \"contracts/KipuBank.sol\":153:3204  contract KipuBank {\r... */\ntag_6:\n  mload(0x80)\n  mload(0xa0)\n  codecopy(0x00, dataOffset(sub_0), dataSize(sub_0))\n  0x00\n  assignImmutable(\"0x5c4c6aa067b6f8e6cb38e6ab843832a94d1712d661a04d73c517d6a1931a9e5d\")\n  0x00\n  assignImmutable(\"0x7f8b6b088b6d74c2852fc86c796dca07b44eed6fb3daf5e6b59f7c364db14528\")\n  return(0x00, dataSize(sub_0))\nstop\n\nsub_0: assembly {\n        /* \"contracts/KipuBank.sol\":153:3204  contract KipuBank {\r... */\n      mstore(0x40, 0x80)\n      jumpi(tag_1, lt(calldatasize, 0x04))\n      shr(0xe0, calldataload(0x00))\n      dup1\n      0x27e235e3\n      eq\n      tag_2\n      jumpi\n      dup1\n      0x7ddfe78d\n      eq\n      tag_3\n      jumpi\n      dup1\n      0x835fc6ca\n      eq\n      tag_4\n      jumpi\n      dup1\n      0xd0e30db0\n      eq\n      tag_5\n      jumpi\n      dup1\n      0xecbea24d\n      eq\n      tag_6\n      jumpi\n    tag_1:\n      0x00\n      dup1\n      revert\n        /* \"contracts/KipuBank.sol\":620:663  mapping(address => uint256) public balances */\n    tag_2:\n      callvalue\n      dup1\n      iszero\n      tag_7\n      jumpi\n      0x00\n      dup1\n      revert\n    tag_7:\n      pop\n      tag_8\n      0x04\n      dup1\n      calldatasize\n      sub\n      dup2\n      add\n      swap1\n      tag_9\n      swap2\n      swap1\n      tag_10\n      jump\t// in\n    tag_9:\n      tag_11\n      jump\t// in\n    tag_8:\n      mload(0x40)\n      tag_12\n      swap2\n      swap1\n      tag_13\n      jump\t// in\n    tag_12:\n      mload(0x40)\n      dup1\n      swap2\n      sub\n      swap1\n      return\n        /* \"contracts/KipuBank.sol\":343:383  uint256 public immutable withdrawalLimit */\n    tag_3:\n      callvalue\n      dup1\n      iszero\n      tag_14\n      jumpi\n      0x00\n      dup1\n      revert\n    tag_14:\n      pop\n      tag_15\n      tag_16\n      jump\t// in\n    tag_15:\n      mload(0x40)\n      tag_17\n      swap2\n      swap1\n      tag_13\n      jump\t// in\n    tag_17:\n      mload(0x40)\n      dup1\n      swap2\n      sub\n      swap1\n      return\n        /* \"contracts/KipuBank.sol\":1863:2680  function withdrawal(uint256 amount) external reentrancyGuard {\r... */\n    tag_4:\n      callvalue\n      dup1\n      iszero\n      tag_18\n      jumpi\n      0x00\n      dup1\n      revert\n    tag_18:\n      pop\n      tag_19\n      0x04\n      dup1\n      calldatasize\n      sub\n      dup2\n      add\n      swap1\n      tag_20\n      swap2\n      swap1\n      tag_21\n      jump\t// in\n    tag_20:\n      tag_22\n      jump\t// in\n    tag_19:\n      stop\n        /* \"contracts/KipuBank.sol\":985:1337  function deposit() external payable {\r... */\n    tag_5:\n      tag_23\n      tag_24\n      jump\t// in\n    tag_23:\n      stop\n        /* \"contracts/KipuBank.sol\":410:442  uint256 public immutable bankCap */\n    tag_6:\n      callvalue\n      dup1\n      iszero\n      tag_25\n      jumpi\n      0x00\n      dup1\n      revert\n    tag_25:\n      pop\n      tag_26\n      tag_27\n      jump\t// in\n    tag_26:\n      mload(0x40)\n      tag_28\n      swap2\n      swap1\n      tag_13\n      jump\t// in\n    tag_28:\n      mload(0x40)\n      dup1\n      swap2\n      sub\n      swap1\n      return\n        /* \"contracts/KipuBank.sol\":620:663  mapping(address => uint256) public balances */\n    tag_11:\n      mstore(0x20, 0x00)\n      dup1\n      0x00\n      mstore\n      keccak256(0x00, 0x40)\n      0x00\n      swap2\n      pop\n      swap1\n      pop\n      sload\n      dup2\n      jump\t// out\n        /* \"contracts/KipuBank.sol\":343:383  uint256 public immutable withdrawalLimit */\n    tag_16:\n      immutable(\"0x7f8b6b088b6d74c2852fc86c796dca07b44eed6fb3daf5e6b59f7c364db14528\")\n      dup2\n      jump\t// out\n        /* \"contracts/KipuBank.sol\":1863:2680  function withdrawal(uint256 amount) external reentrancyGuard {\r... */\n    tag_22:\n        /* \"contracts/KipuBank.sol\":1713:1718  false */\n      0x00\n        /* \"contracts/KipuBank.sol\":1705:1718  flag != false */\n      iszero\n      iszero\n        /* \"contracts/KipuBank.sol\":1705:1709  flag */\n      0x01\n      0x00\n      swap1\n      sload\n      swap1\n      0x0100\n      exp\n      swap1\n      div\n      0xff\n      and\n        /* \"contracts/KipuBank.sol\":1705:1718  flag != false */\n      iszero\n      iszero\n      eq\n        /* \"contracts/KipuBank.sol\":1701:1728  if (flag != false) revert() */\n      tag_30\n      jumpi\n        /* \"contracts/KipuBank.sol\":1720:1728  revert() */\n      0x00\n      dup1\n      revert\n        /* \"contracts/KipuBank.sol\":1701:1728  if (flag != false) revert() */\n    tag_30:\n        /* \"contracts/KipuBank.sol\":1785:1789  true */\n      0x01\n        /* \"contracts/KipuBank.sol\":1778:1782  flag */\n      dup1\n      0x00\n        /* \"contracts/KipuBank.sol\":1778:1789  flag = true */\n      0x0100\n      exp\n      dup2\n      sload\n      dup2\n      0xff\n      mul\n      not\n      and\n      swap1\n      dup4\n      iszero\n      iszero\n      mul\n      or\n      swap1\n      sstore\n      pop\n        /* \"contracts/KipuBank.sol\":1973:1974  0 */\n      0x00\n        /* \"contracts/KipuBank.sol\":1963:1969  amount */\n      dup2\n        /* \"contracts/KipuBank.sol\":1963:1974  amount == 0 */\n      eq\n        /* \"contracts/KipuBank.sol\":1959:1998  if (amount == 0) revert InvalidAmount() */\n      iszero\n      tag_32\n      jumpi\n        /* \"contracts/KipuBank.sol\":1983:1998  InvalidAmount() */\n      mload(0x40)\n      0x2c5211c600000000000000000000000000000000000000000000000000000000\n      dup2\n      mstore\n      0x04\n      add\n      mload(0x40)\n      dup1\n      swap2\n      sub\n      swap1\n      revert\n        /* \"contracts/KipuBank.sol\":1959:1998  if (amount == 0) revert InvalidAmount() */\n    tag_32:\n        /* \"contracts/KipuBank.sol\":2022:2037  withdrawalLimit */\n      immutable(\"0x7f8b6b088b6d74c2852fc86c796dca07b44eed6fb3daf5e6b59f7c364db14528\")\n        /* \"contracts/KipuBank.sol\":2013:2019  amount */\n      dup2\n        /* \"contracts/KipuBank.sol\":2013:2037  amount > withdrawalLimit */\n      gt\n        /* \"contracts/KipuBank.sol\":2009:2071  if (amount > withdrawalLimit) revert WithdrawalLimitExceeded() */\n      iszero\n      tag_33\n      jumpi\n        /* \"contracts/KipuBank.sol\":2046:2071  WithdrawalLimitExceeded() */\n      mload(0x40)\n      0x4e6a369600000000000000000000000000000000000000000000000000000000\n      dup2\n      mstore\n      0x04\n      add\n      mload(0x40)\n      dup1\n      swap2\n      sub\n      swap1\n      revert\n        /* \"contracts/KipuBank.sol\":2009:2071  if (amount > withdrawalLimit) revert WithdrawalLimitExceeded() */\n    tag_33:\n        /* \"contracts/KipuBank.sol\":2095:2103  balances */\n      0x00\n        /* \"contracts/KipuBank.sol\":2095:2115  balances[msg.sender] */\n      dup1\n        /* \"contracts/KipuBank.sol\":2104:2114  msg.sender */\n      caller\n        /* \"contracts/KipuBank.sol\":2095:2115  balances[msg.sender] */\n      0xffffffffffffffffffffffffffffffffffffffff\n      and\n      0xffffffffffffffffffffffffffffffffffffffff\n      and\n      dup2\n      mstore\n      0x20\n      add\n      swap1\n      dup2\n      mstore\n      0x20\n      add\n      0x00\n      keccak256\n      sload\n        /* \"contracts/KipuBank.sol\":2086:2092  amount */\n      dup2\n        /* \"contracts/KipuBank.sol\":2086:2115  amount > balances[msg.sender] */\n      gt\n        /* \"contracts/KipuBank.sol\":2082:2145  if (amount > balances[msg.sender]) revert InsufficientBalance() */\n      iszero\n      tag_34\n      jumpi\n        /* \"contracts/KipuBank.sol\":2124:2145  InsufficientBalance() */\n      mload(0x40)\n      0xf4d678b800000000000000000000000000000000000000000000000000000000\n      dup2\n      mstore\n      0x04\n      add\n      mload(0x40)\n      dup1\n      swap2\n      sub\n      swap1\n      revert\n        /* \"contracts/KipuBank.sol\":2082:2145  if (amount > balances[msg.sender]) revert InsufficientBalance() */\n    tag_34:\n        /* \"contracts/KipuBank.sol\":2158:2168  address to */\n      0x00\n        /* \"contracts/KipuBank.sol\":2171:2181  msg.sender */\n      caller\n        /* \"contracts/KipuBank.sol\":2158:2181  address to = msg.sender */\n      swap1\n      pop\n        /* \"contracts/KipuBank.sol\":2325:2331  amount */\n      dup2\n        /* \"contracts/KipuBank.sol\":2301:2309  balances */\n      0x00\n        /* \"contracts/KipuBank.sol\":2301:2321  balances[msg.sender] */\n      dup1\n        /* \"contracts/KipuBank.sol\":2310:2320  msg.sender */\n      caller\n        /* \"contracts/KipuBank.sol\":2301:2321  balances[msg.sender] */\n      0xffffffffffffffffffffffffffffffffffffffff\n      and\n      0xffffffffffffffffffffffffffffffffffffffff\n      and\n      dup2\n      mstore\n      0x20\n      add\n      swap1\n      dup2\n      mstore\n      0x20\n      add\n      0x00\n      keccak256\n      0x00\n        /* \"contracts/KipuBank.sol\":2301:2331  balances[msg.sender] -= amount */\n      dup3\n      dup3\n      sload\n      tag_35\n      swap2\n      swap1\n      tag_36\n      jump\t// in\n    tag_35:\n      swap3\n      pop\n      pop\n      dup2\n      swap1\n      sstore\n      pop\n        /* \"contracts/KipuBank.sol\":2377:2389  bool success */\n      0x00\n        /* \"contracts/KipuBank.sol\":2394:2396  to */\n      dup2\n        /* \"contracts/KipuBank.sol\":2394:2401  to.call */\n      0xffffffffffffffffffffffffffffffffffffffff\n      and\n        /* \"contracts/KipuBank.sol\":2409:2415  amount */\n      dup4\n        /* \"contracts/KipuBank.sol\":2394:2420  to.call{value: amount}(\"\") */\n      mload(0x40)\n      tag_37\n      swap1\n      tag_38\n      jump\t// in\n    tag_37:\n      0x00\n      mload(0x40)\n      dup1\n      dup4\n      sub\n      dup2\n      dup6\n      dup8\n      gas\n      call\n      swap3\n      pop\n      pop\n      pop\n      returndatasize\n      dup1\n      0x00\n      dup2\n      eq\n      tag_41\n      jumpi\n      mload(0x40)\n      swap2\n      pop\n      and(add(returndatasize, 0x3f), not(0x1f))\n      dup3\n      add\n      0x40\n      mstore\n      returndatasize\n      dup3\n      mstore\n      returndatasize\n      0x00\n      0x20\n      dup5\n      add\n      returndatacopy\n      jump(tag_40)\n    tag_41:\n      0x60\n      swap2\n      pop\n    tag_40:\n      pop\n        /* \"contracts/KipuBank.sol\":2376:2420  (bool success,) = to.call{value: amount}(\"\") */\n      pop\n      swap1\n      pop\n        /* \"contracts/KipuBank.sol\":2440:2447  success */\n      dup1\n        /* \"contracts/KipuBank.sol\":2435:2623  if (!success) {\r... */\n      tag_42\n      jumpi\n        /* \"contracts/KipuBank.sol\":2563:2569  amount */\n      dup3\n        /* \"contracts/KipuBank.sol\":2539:2547  balances */\n      0x00\n        /* \"contracts/KipuBank.sol\":2539:2559  balances[msg.sender] */\n      dup1\n        /* \"contracts/KipuBank.sol\":2548:2558  msg.sender */\n      caller\n        /* \"contracts/KipuBank.sol\":2539:2559  balances[msg.sender] */\n      0xffffffffffffffffffffffffffffffffffffffff\n      and\n      0xffffffffffffffffffffffffffffffffffffffff\n      and\n      dup2\n      mstore\n      0x20\n      add\n      swap1\n      dup2\n      mstore\n      0x20\n      add\n      0x00\n      keccak256\n      0x00\n        /* \"contracts/KipuBank.sol\":2539:2569  balances[msg.sender] += amount */\n      dup3\n      dup3\n      sload\n      tag_43\n      swap2\n      swap1\n      tag_44\n      jump\t// in\n    tag_43:\n      swap3\n      pop\n      pop\n      dup2\n      swap1\n      sstore\n      pop\n        /* \"contracts/KipuBank.sol\":2584:2611  revert(\"Withdrawal failed\") */\n      mload(0x40)\n      0x08c379a000000000000000000000000000000000000000000000000000000000\n      dup2\n      mstore\n      0x04\n      add\n      tag_45\n      swap1\n      tag_46\n      jump\t// in\n    tag_45:\n      mload(0x40)\n      dup1\n      swap2\n      sub\n      swap1\n      revert\n        /* \"contracts/KipuBank.sol\":2435:2623  if (!success) {\r... */\n    tag_42:\n        /* \"contracts/KipuBank.sol\":2653:2663  msg.sender */\n      caller\n        /* \"contracts/KipuBank.sol\":2638:2672  Withdrawal_Eth(msg.sender, amount) */\n      0xffffffffffffffffffffffffffffffffffffffff\n      and\n      0x1096078fec844c999d38c0781933b78fee8144838b20e0de2e1808397bee1c\n        /* \"contracts/KipuBank.sol\":2665:2671  amount */\n      dup5\n        /* \"contracts/KipuBank.sol\":2638:2672  Withdrawal_Eth(msg.sender, amount) */\n      mload(0x40)\n      tag_47\n      swap2\n      swap1\n      tag_13\n      jump\t// in\n    tag_47:\n      mload(0x40)\n      dup1\n      swap2\n      sub\n      swap1\n      log2\n        /* \"contracts/KipuBank.sol\":1924:2680  {\r... */\n      pop\n      pop\n        /* \"contracts/KipuBank.sol\":1819:1824  false */\n      0x00\n        /* \"contracts/KipuBank.sol\":1812:1816  flag */\n      0x01\n      0x00\n        /* \"contracts/KipuBank.sol\":1812:1824  flag = false */\n      0x0100\n      exp\n      dup2\n      sload\n      dup2\n      0xff\n      mul\n      not\n      and\n      swap1\n      dup4\n      iszero\n      iszero\n      mul\n      or\n      swap1\n      sstore\n      pop\n        /* \"contracts/KipuBank.sol\":1863:2680  function withdrawal(uint256 amount) external reentrancyGuard {\r... */\n      pop\n      jump\t// out\n        /* \"contracts/KipuBank.sol\":985:1337  function deposit() external payable {\r... */\n    tag_24:\n        /* \"contracts/KipuBank.sol\":1049:1050  0 */\n      0x00\n        /* \"contracts/KipuBank.sol\":1036:1045  msg.value */\n      callvalue\n        /* \"contracts/KipuBank.sol\":1036:1050  msg.value == 0 */\n      eq\n        /* \"contracts/KipuBank.sol\":1032:1074  if (msg.value == 0) revert InvalidAmount() */\n      iszero\n      tag_49\n      jumpi\n        /* \"contracts/KipuBank.sol\":1059:1074  InvalidAmount() */\n      mload(0x40)\n      0x2c5211c600000000000000000000000000000000000000000000000000000000\n      dup2\n      mstore\n      0x04\n      add\n      mload(0x40)\n      dup1\n      swap2\n      sub\n      swap1\n      revert\n        /* \"contracts/KipuBank.sol\":1032:1074  if (msg.value == 0) revert InvalidAmount() */\n    tag_49:\n        /* \"contracts/KipuBank.sol\":1087:1104  uint256 myBalance */\n      0x00\n        /* \"contracts/KipuBank.sol\":1107:1115  balances */\n      dup1\n        /* \"contracts/KipuBank.sol\":1107:1127  balances[msg.sender] */\n      0x00\n        /* \"contracts/KipuBank.sol\":1116:1126  msg.sender */\n      caller\n        /* \"contracts/KipuBank.sol\":1107:1127  balances[msg.sender] */\n      0xffffffffffffffffffffffffffffffffffffffff\n      and\n      0xffffffffffffffffffffffffffffffffffffffff\n      and\n      dup2\n      mstore\n      0x20\n      add\n      swap1\n      dup2\n      mstore\n      0x20\n      add\n      0x00\n      keccak256\n      sload\n        /* \"contracts/KipuBank.sol\":1087:1127  uint256 myBalance = balances[msg.sender] */\n      swap1\n      pop\n        /* \"contracts/KipuBank.sol\":1166:1173  bankCap */\n      immutable(\"0x5c4c6aa067b6f8e6cb38e6ab843832a94d1712d661a04d73c517d6a1931a9e5d\")\n        /* \"contracts/KipuBank.sol\":1154:1163  msg.value */\n      callvalue\n        /* \"contracts/KipuBank.sol\":1142:1151  myBalance */\n      dup3\n        /* \"contracts/KipuBank.sol\":1142:1163  myBalance + msg.value */\n      tag_50\n      swap2\n      swap1\n      tag_44\n      jump\t// in\n    tag_50:\n        /* \"contracts/KipuBank.sol\":1142:1173  myBalance + msg.value > bankCap */\n      gt\n        /* \"contracts/KipuBank.sol\":1138:1199  if (myBalance + msg.value > bankCap) revert BankCapExceeded() */\n      iszero\n      tag_51\n      jumpi\n        /* \"contracts/KipuBank.sol\":1182:1199  BankCapExceeded() */\n      mload(0x40)\n      0x448f3ca800000000000000000000000000000000000000000000000000000000\n      dup2\n      mstore\n      0x04\n      add\n      mload(0x40)\n      dup1\n      swap2\n      sub\n      swap1\n      revert\n        /* \"contracts/KipuBank.sol\":1138:1199  if (myBalance + msg.value > bankCap) revert BankCapExceeded() */\n    tag_51:\n        /* \"contracts/KipuBank.sol\":1236:1245  msg.value */\n      callvalue\n        /* \"contracts/KipuBank.sol\":1212:1220  balances */\n      0x00\n        /* \"contracts/KipuBank.sol\":1212:1232  balances[msg.sender] */\n      dup1\n        /* \"contracts/KipuBank.sol\":1221:1231  msg.sender */\n      caller\n        /* \"contracts/KipuBank.sol\":1212:1232  balances[msg.sender] */\n      0xffffffffffffffffffffffffffffffffffffffff\n      and\n      0xffffffffffffffffffffffffffffffffffffffff\n      and\n      dup2\n      mstore\n      0x20\n      add\n      swap1\n      dup2\n      mstore\n      0x20\n      add\n      0x00\n      keccak256\n      0x00\n        /* \"contracts/KipuBank.sol\":1212:1245  balances[msg.sender] += msg.value */\n      dup3\n      dup3\n      sload\n      tag_52\n      swap2\n      swap1\n      tag_44\n      jump\t// in\n    tag_52:\n      swap3\n      pop\n      pop\n      dup2\n      swap1\n      sstore\n      pop\n        /* \"contracts/KipuBank.sol\":1307:1317  msg.sender */\n      caller\n        /* \"contracts/KipuBank.sol\":1295:1329  Deposit_Eth(msg.sender, msg.value) */\n      0xffffffffffffffffffffffffffffffffffffffff\n      and\n      0x6422818a720076fbacc37e6fe0be51494c1e5683d3173a4ad0d896f1aeb4ddbf\n        /* \"contracts/KipuBank.sol\":1319:1328  msg.value */\n      callvalue\n        /* \"contracts/KipuBank.sol\":1295:1329  Deposit_Eth(msg.sender, msg.value) */\n      mload(0x40)\n      tag_53\n      swap2\n      swap1\n      tag_13\n      jump\t// in\n    tag_53:\n      mload(0x40)\n      dup1\n      swap2\n      sub\n      swap1\n      log2\n        /* \"contracts/KipuBank.sol\":1021:1337  {\r... */\n      pop\n        /* \"contracts/KipuBank.sol\":985:1337  function deposit() external payable {\r... */\n      jump\t// out\n        /* \"contracts/KipuBank.sol\":410:442  uint256 public immutable bankCap */\n    tag_27:\n      immutable(\"0x5c4c6aa067b6f8e6cb38e6ab843832a94d1712d661a04d73c517d6a1931a9e5d\")\n      dup2\n      jump\t// out\n        /* \"#utility.yul\":7:146   */\n    tag_55:\n        /* \"#utility.yul\":53:58   */\n      0x00\n        /* \"#utility.yul\":91:97   */\n      dup2\n        /* \"#utility.yul\":78:98   */\n      calldataload\n        /* \"#utility.yul\":69:98   */\n      swap1\n      pop\n        /* \"#utility.yul\":107:140   */\n      tag_57\n        /* \"#utility.yul\":134:139   */\n      dup2\n        /* \"#utility.yul\":107:140   */\n      tag_58\n      jump\t// in\n    tag_57:\n        /* \"#utility.yul\":7:146   */\n      swap3\n      swap2\n      pop\n      pop\n      jump\t// out\n        /* \"#utility.yul\":152:291   */\n    tag_59:\n        /* \"#utility.yul\":198:203   */\n      0x00\n        /* \"#utility.yul\":236:242   */\n      dup2\n        /* \"#utility.yul\":223:243   */\n      calldataload\n        /* \"#utility.yul\":214:243   */\n      swap1\n      pop\n        /* \"#utility.yul\":252:285   */\n      tag_61\n        /* \"#utility.yul\":279:284   */\n      dup2\n        /* \"#utility.yul\":252:285   */\n      tag_62\n      jump\t// in\n    tag_61:\n        /* \"#utility.yul\":152:291   */\n      swap3\n      swap2\n      pop\n      pop\n      jump\t// out\n        /* \"#utility.yul\":297:626   */\n    tag_10:\n        /* \"#utility.yul\":356:362   */\n      0x00\n        /* \"#utility.yul\":405:407   */\n      0x20\n        /* \"#utility.yul\":393:402   */\n      dup3\n        /* \"#utility.yul\":384:391   */\n      dup5\n        /* \"#utility.yul\":380:403   */\n      sub\n        /* \"#utility.yul\":376:408   */\n      slt\n        /* \"#utility.yul\":373:492   */\n      iszero\n      tag_64\n      jumpi\n        /* \"#utility.yul\":411:490   */\n      tag_65\n      tag_66\n      jump\t// in\n    tag_65:\n        /* \"#utility.yul\":373:492   */\n    tag_64:\n        /* \"#utility.yul\":531:532   */\n      0x00\n        /* \"#utility.yul\":556:609   */\n      tag_67\n        /* \"#utility.yul\":601:608   */\n      dup5\n        /* \"#utility.yul\":592:598   */\n      dup3\n        /* \"#utility.yul\":581:590   */\n      dup6\n        /* \"#utility.yul\":577:599   */\n      add\n        /* \"#utility.yul\":556:609   */\n      tag_55\n      jump\t// in\n    tag_67:\n        /* \"#utility.yul\":546:609   */\n      swap2\n      pop\n        /* \"#utility.yul\":502:619   */\n      pop\n        /* \"#utility.yul\":297:626   */\n      swap3\n      swap2\n      pop\n      pop\n      jump\t// out\n        /* \"#utility.yul\":632:961   */\n    tag_21:\n        /* \"#utility.yul\":691:697   */\n      0x00\n        /* \"#utility.yul\":740:742   */\n      0x20\n        /* \"#utility.yul\":728:737   */\n      dup3\n        /* \"#utility.yul\":719:726   */\n      dup5\n        /* \"#utility.yul\":715:738   */\n      sub\n        /* \"#utility.yul\":711:743   */\n      slt\n        /* \"#utility.yul\":708:827   */\n      iszero\n      tag_69\n      jumpi\n        /* \"#utility.yul\":746:825   */\n      tag_70\n      tag_66\n      jump\t// in\n    tag_70:\n        /* \"#utility.yul\":708:827   */\n    tag_69:\n        /* \"#utility.yul\":866:867   */\n      0x00\n        /* \"#utility.yul\":891:944   */\n      tag_71\n        /* \"#utility.yul\":936:943   */\n      dup5\n        /* \"#utility.yul\":927:933   */\n      dup3\n        /* \"#utility.yul\":916:925   */\n      dup6\n        /* \"#utility.yul\":912:934   */\n      add\n        /* \"#utility.yul\":891:944   */\n      tag_59\n      jump\t// in\n    tag_71:\n        /* \"#utility.yul\":881:944   */\n      swap2\n      pop\n        /* \"#utility.yul\":837:954   */\n      pop\n        /* \"#utility.yul\":632:961   */\n      swap3\n      swap2\n      pop\n      pop\n      jump\t// out\n        /* \"#utility.yul\":967:1365   */\n    tag_72:\n        /* \"#utility.yul\":1126:1129   */\n      0x00\n        /* \"#utility.yul\":1147:1230   */\n      tag_74\n        /* \"#utility.yul\":1228:1229   */\n      0x00\n        /* \"#utility.yul\":1223:1226   */\n      dup4\n        /* \"#utility.yul\":1147:1230   */\n      tag_75\n      jump\t// in\n    tag_74:\n        /* \"#utility.yul\":1140:1230   */\n      swap2\n      pop\n        /* \"#utility.yul\":1239:1332   */\n      tag_76\n        /* \"#utility.yul\":1328:1331   */\n      dup3\n        /* \"#utility.yul\":1239:1332   */\n      tag_77\n      jump\t// in\n    tag_76:\n        /* \"#utility.yul\":1357:1358   */\n      0x00\n        /* \"#utility.yul\":1352:1355   */\n      dup3\n        /* \"#utility.yul\":1348:1359   */\n      add\n        /* \"#utility.yul\":1341:1359   */\n      swap1\n      pop\n        /* \"#utility.yul\":967:1365   */\n      swap2\n      swap1\n      pop\n      jump\t// out\n        /* \"#utility.yul\":1371:1737   */\n    tag_78:\n        /* \"#utility.yul\":1513:1516   */\n      0x00\n        /* \"#utility.yul\":1534:1601   */\n      tag_80\n        /* \"#utility.yul\":1598:1600   */\n      0x11\n        /* \"#utility.yul\":1593:1596   */\n      dup4\n        /* \"#utility.yul\":1534:1601   */\n      tag_81\n      jump\t// in\n    tag_80:\n        /* \"#utility.yul\":1527:1601   */\n      swap2\n      pop\n        /* \"#utility.yul\":1610:1703   */\n      tag_82\n        /* \"#utility.yul\":1699:1702   */\n      dup3\n        /* \"#utility.yul\":1610:1703   */\n      tag_83\n      jump\t// in\n    tag_82:\n        /* \"#utility.yul\":1728:1730   */\n      0x20\n        /* \"#utility.yul\":1723:1726   */\n      dup3\n        /* \"#utility.yul\":1719:1731   */\n      add\n        /* \"#utility.yul\":1712:1731   */\n      swap1\n      pop\n        /* \"#utility.yul\":1371:1737   */\n      swap2\n      swap1\n      pop\n      jump\t// out\n        /* \"#utility.yul\":1743:1861   */\n    tag_84:\n        /* \"#utility.yul\":1830:1854   */\n      tag_86\n        /* \"#utility.yul\":1848:1853   */\n      dup2\n        /* \"#utility.yul\":1830:1854   */\n      tag_87\n      jump\t// in\n    tag_86:\n        /* \"#utility.yul\":1825:1828   */\n      dup3\n        /* \"#utility.yul\":1818:1855   */\n      mstore\n        /* \"#utility.yul\":1743:1861   */\n      pop\n      pop\n      jump\t// out\n        /* \"#utility.yul\":1867:2246   */\n    tag_38:\n        /* \"#utility.yul\":2051:2054   */\n      0x00\n        /* \"#utility.yul\":2073:2220   */\n      tag_89\n        /* \"#utility.yul\":2216:2219   */\n      dup3\n        /* \"#utility.yul\":2073:2220   */\n      tag_72\n      jump\t// in\n    tag_89:\n        /* \"#utility.yul\":2066:2220   */\n      swap2\n      pop\n        /* \"#utility.yul\":2237:2240   */\n      dup2\n        /* \"#utility.yul\":2230:2240   */\n      swap1\n      pop\n        /* \"#utility.yul\":1867:2246   */\n      swap2\n      swap1\n      pop\n      jump\t// out\n        /* \"#utility.yul\":2252:2671   */\n    tag_46:\n        /* \"#utility.yul\":2418:2422   */\n      0x00\n        /* \"#utility.yul\":2456:2458   */\n      0x20\n        /* \"#utility.yul\":2445:2454   */\n      dup3\n        /* \"#utility.yul\":2441:2459   */\n      add\n        /* \"#utility.yul\":2433:2459   */\n      swap1\n      pop\n        /* \"#utility.yul\":2505:2514   */\n      dup2\n        /* \"#utility.yul\":2499:2503   */\n      dup2\n        /* \"#utility.yul\":2495:2515   */\n      sub\n        /* \"#utility.yul\":2491:2492   */\n      0x00\n        /* \"#utility.yul\":2480:2489   */\n      dup4\n        /* \"#utility.yul\":2476:2493   */\n      add\n        /* \"#utility.yul\":2469:2516   */\n      mstore\n        /* \"#utility.yul\":2533:2664   */\n      tag_91\n        /* \"#utility.yul\":2659:2663   */\n      dup2\n        /* \"#utility.yul\":2533:2664   */\n      tag_78\n      jump\t// in\n    tag_91:\n        /* \"#utility.yul\":2525:2664   */\n      swap1\n      pop\n        /* \"#utility.yul\":2252:2671   */\n      swap2\n      swap1\n      pop\n      jump\t// out\n        /* \"#utility.yul\":2677:2899   */\n    tag_13:\n        /* \"#utility.yul\":2770:2774   */\n      0x00\n        /* \"#utility.yul\":2808:2810   */\n      0x20\n        /* \"#utility.yul\":2797:2806   */\n      dup3\n        /* \"#utility.yul\":2793:2811   */\n      add\n        /* \"#utility.yul\":2785:2811   */\n      swap1\n      pop\n        /* \"#utility.yul\":2821:2892   */\n      tag_93\n        /* \"#utility.yul\":2889:2890   */\n      0x00\n        /* \"#utility.yul\":2878:2887   */\n      dup4\n        /* \"#utility.yul\":2874:2891   */\n      add\n        /* \"#utility.yul\":2865:2871   */\n      dup5\n        /* \"#utility.yul\":2821:2892   */\n      tag_84\n      jump\t// in\n    tag_93:\n        /* \"#utility.yul\":2677:2899   */\n      swap3\n      swap2\n      pop\n      pop\n      jump\t// out\n        /* \"#utility.yul\":2986:3133   */\n    tag_75:\n        /* \"#utility.yul\":3087:3098   */\n      0x00\n        /* \"#utility.yul\":3124:3127   */\n      dup2\n        /* \"#utility.yul\":3109:3127   */\n      swap1\n      pop\n        /* \"#utility.yul\":2986:3133   */\n      swap3\n      swap2\n      pop\n      pop\n      jump\t// out\n        /* \"#utility.yul\":3139:3308   */\n    tag_81:\n        /* \"#utility.yul\":3223:3234   */\n      0x00\n        /* \"#utility.yul\":3257:3263   */\n      dup3\n        /* \"#utility.yul\":3252:3255   */\n      dup3\n        /* \"#utility.yul\":3245:3264   */\n      mstore\n        /* \"#utility.yul\":3297:3301   */\n      0x20\n        /* \"#utility.yul\":3292:3295   */\n      dup3\n        /* \"#utility.yul\":3288:3302   */\n      add\n        /* \"#utility.yul\":3273:3302   */\n      swap1\n      pop\n        /* \"#utility.yul\":3139:3308   */\n      swap3\n      swap2\n      pop\n      pop\n      jump\t// out\n        /* \"#utility.yul\":3314:3619   */\n    tag_44:\n        /* \"#utility.yul\":3354:3357   */\n      0x00\n        /* \"#utility.yul\":3373:3393   */\n      tag_99\n        /* \"#utility.yul\":3391:3392   */\n      dup3\n        /* \"#utility.yul\":3373:3393   */\n      tag_87\n      jump\t// in\n    tag_99:\n        /* \"#utility.yul\":3368:3393   */\n      swap2\n      pop\n        /* \"#utility.yul\":3407:3427   */\n      tag_100\n        /* \"#utility.yul\":3425:3426   */\n      dup4\n        /* \"#utility.yul\":3407:3427   */\n      tag_87\n      jump\t// in\n    tag_100:\n        /* \"#utility.yul\":3402:3427   */\n      swap3\n      pop\n        /* \"#utility.yul\":3561:3562   */\n      dup3\n        /* \"#utility.yul\":3493:3559   */\n      0xffffffffffffffffffffffffffffffffffffffffffffffffffffffffffffffff\n        /* \"#utility.yul\":3489:3563   */\n      sub\n        /* \"#utility.yul\":3486:3487   */\n      dup3\n        /* \"#utility.yul\":3483:3564   */\n      gt\n        /* \"#utility.yul\":3480:3587   */\n      iszero\n      tag_101\n      jumpi\n        /* \"#utility.yul\":3567:3585   */\n      tag_102\n      tag_103\n      jump\t// in\n    tag_102:\n        /* \"#utility.yul\":3480:3587   */\n    tag_101:\n        /* \"#utility.yul\":3611:3612   */\n      dup3\n        /* \"#utility.yul\":3608:3609   */\n      dup3\n        /* \"#utility.yul\":3604:3613   */\n      add\n        /* \"#utility.yul\":3597:3613   */\n      swap1\n      pop\n        /* \"#utility.yul\":3314:3619   */\n      swap3\n      swap2\n      pop\n      pop\n      jump\t// out\n        /* \"#utility.yul\":3625:3816   */\n    tag_36:\n        /* \"#utility.yul\":3665:3669   */\n      0x00\n        /* \"#utility.yul\":3685:3705   */\n      tag_105\n        /* \"#utility.yul\":3703:3704   */\n      dup3\n        /* \"#utility.yul\":3685:3705   */\n      tag_87\n      jump\t// in\n    tag_105:\n        /* \"#utility.yul\":3680:3705   */\n      swap2\n      pop\n        /* \"#utility.yul\":3719:3739   */\n      tag_106\n        /* \"#utility.yul\":3737:3738   */\n      dup4\n        /* \"#utility.yul\":3719:3739   */\n      tag_87\n      jump\t// in\n    tag_106:\n        /* \"#utility.yul\":3714:3739   */\n      swap3\n      pop\n        /* \"#utility.yul\":3758:3759   */\n      dup3\n        /* \"#utility.yul\":3755:3756   */\n      dup3\n        /* \"#utility.yul\":3752:3760   */\n      lt\n        /* \"#utility.yul\":3749:3783   */\n      iszero\n      tag_107\n      jumpi\n        /* \"#utility.yul\":3763:3781   */\n      tag_108\n      tag_103\n      jump\t// in\n    tag_108:\n        /* \"#utility.yul\":3749:3783   */\n    tag_107:\n        /* \"#utility.yul\":3808:3809   */\n      dup3\n        /* \"#utility.yul\":3805:3806   */\n      dup3\n        /* \"#utility.yul\":3801:3810   */\n      sub\n        /* \"#utility.yul\":3793:3810   */\n      swap1\n      pop\n        /* \"#utility.yul\":3625:3816   */\n      swap3\n      swap2\n      pop\n      pop\n      jump\t// out\n        /* \"#utility.yul\":3822:3918   */\n    tag_109:\n        /* \"#utility.yul\":3859:3866   */\n      0x00\n        /* \"#utility.yul\":3888:3912   */\n      tag_111\n        /* \"#utility.yul\":3906:3911   */\n      dup3\n        /* \"#utility.yul\":3888:3912   */\n      tag_112\n      jump\t// in\n    tag_111:\n        /* \"#utility.yul\":3877:3912   */\n      swap1\n      pop\n        /* \"#utility.yul\":3822:3918   */\n      swap2\n      swap1\n      pop\n      jump\t// out\n        /* \"#utility.yul\":3924:4050   */\n    tag_112:\n        /* \"#utility.yul\":3961:3968   */\n      0x00\n        /* \"#utility.yul\":4001:4043   */\n      0xffffffffffffffffffffffffffffffffffffffff\n        /* \"#utility.yul\":3994:3999   */\n      dup3\n        /* \"#utility.yul\":3990:4044   */\n      and\n        /* \"#utility.yul\":3979:4044   */\n      swap1\n      pop\n        /* \"#utility.yul\":3924:4050   */\n      swap2\n      swap1\n      pop\n      jump\t// out\n        /* \"#utility.yul\":4056:4133   */\n    tag_87:\n        /* \"#utility.yul\":4093:4100   */\n      0x00\n        /* \"#utility.yul\":4122:4127   */\n      dup2\n        /* \"#utility.yul\":4111:4127   */\n      swap1\n      pop\n        /* \"#utility.yul\":4056:4133   */\n      swap2\n      swap1\n      pop\n      jump\t// out\n        /* \"#utility.yul\":4139:4319   */\n    tag_103:\n        /* \"#utility.yul\":4187:4264   */\n      0x4e487b7100000000000000000000000000000000000000000000000000000000\n        /* \"#utility.yul\":4184:4185   */\n      0x00\n        /* \"#utility.yul\":4177:4265   */\n      mstore\n        /* \"#utility.yul\":4284:4288   */\n      0x11\n        /* \"#utility.yul\":4281:4282   */\n      0x04\n        /* \"#utility.yul\":4274:4289   */\n      mstore\n        /* \"#utility.yul\":4308:4312   */\n      0x24\n        /* \"#utility.yul\":4305:4306   */\n      0x00\n        /* \"#utility.yul\":4298:4313   */\n      revert\n        /* \"#utility.yul\":4448:4565   */\n    tag_66:\n        /* \"#utility.yul\":4557:4558   */\n      0x00\n        /* \"#utility.yul\":4554:4555   */\n      dup1\n        /* \"#utility.yul\":4547:4559   */\n      revert\n        /* \"#utility.yul\":4571:4685   */\n    tag_77:\n      pop\n      jump\t// out\n        /* \"#utility.yul\":4691:4858   */\n    tag_83:\n        /* \"#utility.yul\":4831:4850   */\n      0x5769746864726177616c206661696c6564000000000000000000000000000000\n        /* \"#utility.yul\":4827:4828   */\n      0x00\n        /* \"#utility.yul\":4819:4825   */\n      dup3\n        /* \"#utility.yul\":4815:4829   */\n      add\n        /* \"#utility.yul\":4808:4851   */\n      mstore\n        /* \"#utility.yul\":4691:4858   */\n      pop\n      jump\t// out\n        /* \"#utility.yul\":4864:4986   */\n    tag_58:\n        /* \"#utility.yul\":4937:4961   */\n      tag_122\n        /* \"#utility.yul\":4955:4960   */\n      dup2\n        /* \"#utility.yul\":4937:4961   */\n      tag_109\n      jump\t// in\n    tag_122:\n        /* \"#utility.yul\":4930:4935   */\n      dup2\n        /* \"#utility.yul\":4927:4962   */\n      eq\n        /* \"#utility.yul\":4917:4980   */\n      tag_123\n      jumpi\n        /* \"#utility.yul\":4976:4977   */\n      0x00\n        /* \"#utility.yul\":4973:4974   */\n      dup1\n        /* \"#utility.yul\":4966:4978   */\n      revert\n        /* \"#utility.yul\":4917:4980   */\n    tag_123:\n        /* \"#utility.yul\":4864:4986   */\n      pop\n      jump\t// out\n        /* \"#utility.yul\":4992:5114   */\n    tag_62:\n        /* \"#utility.yul\":5065:5089   */\n      tag_125\n        /* \"#utility.yul\":5083:5088   */\n      dup2\n        /* \"#utility.yul\":5065:5089   */\n      tag_87\n      jump\t// in\n    tag_125:\n        /* \"#utility.yul\":5058:5063   */\n      dup2\n        /* \"#utility.yul\":5055:5090   */\n      eq\n        /* \"#utility.yul\":5045:5108   */\n      tag_126\n      jumpi\n        /* \"#utility.yul\":5104:5105   */\n      0x00\n        /* \"#utility.yul\":5101:5102   */\n      dup1\n        /* \"#utility.yul\":5094:5106   */\n      revert\n        /* \"#utility.yul\":5045:5108   */\n    tag_126:\n        /* \"#utility.yul\":4992:5114   */\n      pop\n      jump\t// out\n\n    auxdata: 0xa26469706673582212204498275fd6597a101a083571d72e9784b7ac7a9d39c41d3b50e7012b4c11d18264736f6c63430008070033\n}\n",
				"bytecode": {
					"linkReferences": {},
					"object": "60c060405234801561001057600080fd5b506040516109d33803806109d38339818101604052810190610032919061005e565b81608081815250508060a0818152505050506100c4565b600081519050610058816100ad565b92915050565b60008060408385031215610075576100746100a8565b5b600061008385828601610049565b925050602061009485828601610049565b9150509250929050565b6000819050919050565b600080fd5b6100b68161009e565b81146100c157600080fd5b50565b60805160a0516108dc6100f7600039600081816104e001526105eb01526000818161012f01526101c801526108dc6000f3fe60806040526004361061004a5760003560e01c806327e235e31461004f5780637ddfe78d1461008c578063835fc6ca146100b7578063d0e30db0146100e0578063ecbea24d146100ea575b600080fd5b34801561005b57600080fd5b5061007660048036038101906100719190610637565b610115565b604051610083919061071b565b60405180910390f35b34801561009857600080fd5b506100a161012d565b6040516100ae919061071b565b60405180910390f35b3480156100c357600080fd5b506100de60048036038101906100d99190610664565b610151565b005b6100e8610460565b005b3480156100f657600080fd5b506100ff6105e9565b60405161010c919061071b565b60405180910390f35b60006020528060005260406000206000915090505481565b7f000000000000000000000000000000000000000000000000000000000000000081565b60001515600160009054906101000a900460ff1615151461017157600080fd5b60018060006101000a81548160ff02191690831515021790555060008114156101c6576040517f2c5211c600000000000000000000000000000000000000000000000000000000815260040160405180910390fd5b7f0000000000000000000000000000000000000000000000000000000000000000811115610220576040517f4e6a369600000000000000000000000000000000000000000000000000000000815260040160405180910390fd5b6000803373ffffffffffffffffffffffffffffffffffffffff1673ffffffffffffffffffffffffffffffffffffffff16815260200190815260200160002054811115610298576040517ff4d678b800000000000000000000000000000000000000000000000000000000815260040160405180910390fd5b6000339050816000803373ffffffffffffffffffffffffffffffffffffffff1673ffffffffffffffffffffffffffffffffffffffff16815260200190815260200160002060008282546102eb91906107a8565b9250508190555060008173ffffffffffffffffffffffffffffffffffffffff1683604051610318906106e6565b60006040518083038185875af1925050503d8060008114610355576040519150601f19603f3d011682016040523d82523d6000602084013e61035a565b606091505b50509050806103f357826000803373ffffffffffffffffffffffffffffffffffffffff1673ffffffffffffffffffffffffffffffffffffffff16815260200190815260200160002060008282546103b19190610752565b925050819055506040517f08c379a00000000000000000000000000000000000000000000000000000000081526004016103ea906106fb565b60405180910390fd5b3373ffffffffffffffffffffffffffffffffffffffff167e1096078fec844c999d38c0781933b78fee8144838b20e0de2e1808397bee1c84604051610438919061071b565b60405180910390a250506000600160006101000a81548160ff02191690831515021790555050565b600034141561049b576040517f2c5211c600000000000000000000000000000000000000000000000000000000815260040160405180910390fd5b60008060003373ffffffffffffffffffffffffffffffffffffffff1673ffffffffffffffffffffffffffffffffffffffff1681526020019081526020016000205490507f0000000000000000000000000000000000000000000000000000000000000000348261050b9190610752565b1115610543576040517f448f3ca800000000000000000000000000000000000000000000000000000000815260040160405180910390fd5b346000803373ffffffffffffffffffffffffffffffffffffffff1673ffffffffffffffffffffffffffffffffffffffff16815260200190815260200160002060008282546105919190610752565b925050819055503373ffffffffffffffffffffffffffffffffffffffff167f6422818a720076fbacc37e6fe0be51494c1e5683d3173a4ad0d896f1aeb4ddbf346040516105de919061071b565b60405180910390a250565b7f000000000000000000000000000000000000000000000000000000000000000081565b60008135905061061c81610878565b92915050565b6000813590506106318161088f565b92915050565b60006020828403121561064d5761064c610847565b5b600061065b8482850161060d565b91505092915050565b60006020828403121561067a57610679610847565b5b600061068884828501610622565b91505092915050565b600061069e600083610736565b91506106a98261084c565b600082019050919050565b60006106c1601183610741565b91506106cc8261084f565b602082019050919050565b6106e08161080e565b82525050565b60006106f182610691565b9150819050919050565b60006020820190508181036000830152610714816106b4565b9050919050565b600060208201905061073060008301846106d7565b92915050565b600081905092915050565b600082825260208201905092915050565b600061075d8261080e565b91506107688361080e565b9250827fffffffffffffffffffffffffffffffffffffffffffffffffffffffffffffffff0382111561079d5761079c610818565b5b828201905092915050565b60006107b38261080e565b91506107be8361080e565b9250828210156107d1576107d0610818565b5b828203905092915050565b60006107e7826107ee565b9050919050565b600073ffffffffffffffffffffffffffffffffffffffff82169050919050565b6000819050919050565b7f4e487b7100000000000000000000000000000000000000000000000000000000600052601160045260246000fd5b600080fd5b50565b7f5769746864726177616c206661696c6564000000000000000000000000000000600082015250565b610881816107dc565b811461088c57600080fd5b50565b6108988161080e565b81146108a357600080fd5b5056fea26469706673582212204498275fd6597a101a083571d72e9784b7ac7a9d39c41d3b50e7012b4c11d18264736f6c63430008070033",
					"opcodes": "PUSH1 0xC0 PUSH1 0x40 MSTORE CALLVALUE DUP1 ISZERO PUSH2 0x10 JUMPI PUSH1 0x0 DUP1 REVERT JUMPDEST POP PUSH1 0x40 MLOAD PUSH2 0x9D3 CODESIZE SUB DUP1 PUSH2 0x9D3 DUP4 CODECOPY DUP2 DUP2 ADD PUSH1 0x40 MSTORE DUP2 ADD SWAP1 PUSH2 0x32 SWAP2 SWAP1 PUSH2 0x5E JUMP JUMPDEST DUP2 PUSH1 0x80 DUP2 DUP2 MSTORE POP POP DUP1 PUSH1 0xA0 DUP2 DUP2 MSTORE POP POP POP POP PUSH2 0xC4 JUMP JUMPDEST PUSH1 0x0 DUP2 MLOAD SWAP1 POP PUSH2 0x58 DUP2 PUSH2 0xAD JUMP JUMPDEST SWAP3 SWAP2 POP POP JUMP JUMPDEST PUSH1 0x0 DUP1 PUSH1 0x40 DUP4 DUP6 SUB SLT ISZERO PUSH2 0x75 JUMPI PUSH2 0x74 PUSH2 0xA8 JUMP JUMPDEST JUMPDEST PUSH1 0x0 PUSH2 0x83 DUP6 DUP3 DUP7 ADD PUSH2 0x49 JUMP JUMPDEST SWAP3 POP POP PUSH1 0x20 PUSH2 0x94 DUP6 DUP3 DUP7 ADD PUSH2 0x49 JUMP JUMPDEST SWAP2 POP POP SWAP3 POP SWAP3 SWAP1 POP JUMP JUMPDEST PUSH1 0x0 DUP2 SWAP1 POP SWAP2 SWAP1 POP JUMP JUMPDEST PUSH1 0x0 DUP1 REVERT JUMPDEST PUSH2 0xB6 DUP2 PUSH2 0x9E JUMP JUMPDEST DUP2 EQ PUSH2 0xC1 JUMPI PUSH1 0x0 DUP1 REVERT JUMPDEST POP JUMP JUMPDEST PUSH1 0x80 MLOAD PUSH1 0xA0 MLOAD PUSH2 0x8DC PUSH2 0xF7 PUSH1 0x0 CODECOPY PUSH1 0x0 DUP2 DUP2 PUSH2 0x4E0 ADD MSTORE PUSH2 0x5EB ADD MSTORE PUSH1 0x0 DUP2 DUP2 PUSH2 0x12F ADD MSTORE PUSH2 0x1C8 ADD MSTORE PUSH2 0x8DC PUSH1 0x0 RETURN INVALID PUSH1 0x80 PUSH1 0x40 MSTORE PUSH1 0x4 CALLDATASIZE LT PUSH2 0x4A JUMPI PUSH1 0x0 CALLDATALOAD PUSH1 0xE0 SHR DUP1 PUSH4 0x27E235E3 EQ PUSH2 0x4F JUMPI DUP1 PUSH4 0x7DDFE78D EQ PUSH2 0x8C JUMPI DUP1 PUSH4 0x835FC6CA EQ PUSH2 0xB7 JUMPI DUP1 PUSH4 0xD0E30DB0 EQ PUSH2 0xE0 JUMPI DUP1 PUSH4 0xECBEA24D EQ PUSH2 0xEA JUMPI JUMPDEST PUSH1 0x0 DUP1 REVERT JUMPDEST CALLVALUE DUP1 ISZERO PUSH2 0x5B JUMPI PUSH1 0x0 DUP1 REVERT JUMPDEST POP PUSH2 0x76 PUSH1 0x4 DUP1 CALLDATASIZE SUB DUP2 ADD SWAP1 PUSH2 0x71 SWAP2 SWAP1 PUSH2 0x637 JUMP JUMPDEST PUSH2 0x115 JUMP JUMPDEST PUSH1 0x40 MLOAD PUSH2 0x83 SWAP2 SWAP1 PUSH2 0x71B JUMP JUMPDEST PUSH1 0x40 MLOAD DUP1 SWAP2 SUB SWAP1 RETURN JUMPDEST CALLVALUE DUP1 ISZERO PUSH2 0x98 JUMPI PUSH1 0x0 DUP1 REVERT JUMPDEST POP PUSH2 0xA1 PUSH2 0x12D JUMP JUMPDEST PUSH1 0x40 MLOAD PUSH2 0xAE SWAP2 SWAP1 PUSH2 0x71B JUMP JUMPDEST PUSH1 0x40 MLOAD DUP1 SWAP2 SUB SWAP1 RETURN JUMPDEST CALLVALUE DUP1 ISZERO PUSH2 0xC3 JUMPI PUSH1 0x0 DUP1 REVERT JUMPDEST POP PUSH2 0xDE PUSH1 0x4 DUP1 CALLDATASIZE SUB DUP2 ADD SWAP1 PUSH2 0xD9 SWAP2 SWAP1 PUSH2 0x664 JUMP JUMPDEST PUSH2 0x151 JUMP JUMPDEST STOP JUMPDEST PUSH2 0xE8 PUSH2 0x460 JUMP JUMPDEST STOP JUMPDEST CALLVALUE DUP1 ISZERO PUSH2 0xF6 JUMPI PUSH1 0x0 DUP1 REVERT JUMPDEST POP PUSH2 0xFF PUSH2 0x5E9 JUMP JUMPDEST PUSH1 0x40 MLOAD PUSH2 0x10C SWAP2 SWAP1 PUSH2 0x71B JUMP JUMPDEST PUSH1 0x40 MLOAD DUP1 SWAP2 SUB SWAP1 RETURN JUMPDEST PUSH1 0x0 PUSH1 0x20 MSTORE DUP1 PUSH1 0x0 MSTORE PUSH1 0x40 PUSH1 0x0 KECCAK256 PUSH1 0x0 SWAP2 POP SWAP1 POP SLOAD DUP2 JUMP JUMPDEST PUSH32 0x0 DUP2 JUMP JUMPDEST PUSH1 0x0 ISZERO ISZERO PUSH1 0x1 PUSH1 0x0 SWAP1 SLOAD SWAP1 PUSH2 0x100 EXP SWAP1 DIV PUSH1 0xFF AND ISZERO ISZERO EQ PUSH2 0x171 JUMPI PUSH1 0x0 DUP1 REVERT JUMPDEST PUSH1 0x1 DUP1 PUSH1 0x0 PUSH2 0x100 EXP DUP2 SLOAD DUP2 PUSH1 0xFF MUL NOT AND SWAP1 DUP4 ISZERO ISZERO MUL OR SWAP1 SSTORE POP PUSH1 0x0 DUP2 EQ ISZERO PUSH2 0x1C6 JUMPI PUSH1 0x40 MLOAD PUSH32 0x2C5211C600000000000000000000000000000000000000000000000000000000 DUP2 MSTORE PUSH1 0x4 ADD PUSH1 0x40 MLOAD DUP1 SWAP2 SUB SWAP1 REVERT JUMPDEST PUSH32 0x0 DUP2 GT ISZERO PUSH2 0x220 JUMPI PUSH1 0x40 MLOAD PUSH32 0x4E6A369600000000000000000000000000000000000000000000000000000000 DUP2 MSTORE PUSH1 0x4 ADD PUSH1 0x40 MLOAD DUP1 SWAP2 SUB SWAP1 REVERT JUMPDEST PUSH1 0x0 DUP1 CALLER PUSH20 0xFFFFFFFFFFFFFFFFFFFFFFFFFFFFFFFFFFFFFFFF AND PUSH20 0xFFFFFFFFFFFFFFFFFFFFFFFFFFFFFFFFFFFFFFFF AND DUP2 MSTORE PUSH1 0x20 ADD SWAP1 DUP2 MSTORE PUSH1 0x20 ADD PUSH1 0x0 KECCAK256 SLOAD DUP2 GT ISZERO PUSH2 0x298 JUMPI PUSH1 0x40 MLOAD PUSH32 0xF4D678B800000000000000000000000000000000000000000000000000000000 DUP2 MSTORE PUSH1 0x4 ADD PUSH1 0x40 MLOAD DUP1 SWAP2 SUB SWAP1 REVERT JUMPDEST PUSH1 0x0 CALLER SWAP1 POP DUP2 PUSH1 0x0 DUP1 CALLER PUSH20 0xFFFFFFFFFFFFFFFFFFFFFFFFFFFFFFFFFFFFFFFF AND PUSH20 0xFFFFFFFFFFFFFFFFFFFFFFFFFFFFFFFFFFFFFFFF AND DUP2 MSTORE PUSH1 0x20 ADD SWAP1 DUP2 MSTORE PUSH1 0x20 ADD PUSH1 0x0 KECCAK256 PUSH1 0x0 DUP3 DUP3 SLOAD PUSH2 0x2EB SWAP2 SWAP1 PUSH2 0x7A8 JUMP JUMPDEST SWAP3 POP POP DUP2 SWAP1 SSTORE POP PUSH1 0x0 DUP2 PUSH20 0xFFFFFFFFFFFFFFFFFFFFFFFFFFFFFFFFFFFFFFFF AND DUP4 PUSH1 0x40 MLOAD PUSH2 0x318 SWAP1 PUSH2 0x6E6 JUMP JUMPDEST PUSH1 0x0 PUSH1 0x40 MLOAD DUP1 DUP4 SUB DUP2 DUP6 DUP8 GAS CALL SWAP3 POP POP POP RETURNDATASIZE DUP1 PUSH1 0x0 DUP2 EQ PUSH2 0x355 JUMPI PUSH1 0x40 MLOAD SWAP2 POP PUSH1 0x1F NOT PUSH1 0x3F RETURNDATASIZE ADD AND DUP3 ADD PUSH1 0x40 MSTORE RETURNDATASIZE DUP3 MSTORE RETURNDATASIZE PUSH1 0x0 PUSH1 0x20 DUP5 ADD RETURNDATACOPY PUSH2 0x35A JUMP JUMPDEST PUSH1 0x60 SWAP2 POP JUMPDEST POP POP SWAP1 POP DUP1 PUSH2 0x3F3 JUMPI DUP3 PUSH1 0x0 DUP1 CALLER PUSH20 0xFFFFFFFFFFFFFFFFFFFFFFFFFFFFFFFFFFFFFFFF AND PUSH20 0xFFFFFFFFFFFFFFFFFFFFFFFFFFFFFFFFFFFFFFFF AND DUP2 MSTORE PUSH1 0x20 ADD SWAP1 DUP2 MSTORE PUSH1 0x20 ADD PUSH1 0x0 KECCAK256 PUSH1 0x0 DUP3 DUP3 SLOAD PUSH2 0x3B1 SWAP2 SWAP1 PUSH2 0x752 JUMP JUMPDEST SWAP3 POP POP DUP2 SWAP1 SSTORE POP PUSH1 0x40 MLOAD PUSH32 0x8C379A000000000000000000000000000000000000000000000000000000000 DUP2 MSTORE PUSH1 0x4 ADD PUSH2 0x3EA SWAP1 PUSH2 0x6FB JUMP JUMPDEST PUSH1 0x40 MLOAD DUP1 SWAP2 SUB SWAP1 REVERT JUMPDEST CALLER PUSH20 0xFFFFFFFFFFFFFFFFFFFFFFFFFFFFFFFFFFFFFFFF AND PUSH31 0x1096078FEC844C999D38C0781933B78FEE8144838B20E0DE2E1808397BEE1C DUP5 PUSH1 0x40 MLOAD PUSH2 0x438 SWAP2 SWAP1 PUSH2 0x71B JUMP JUMPDEST PUSH1 0x40 MLOAD DUP1 SWAP2 SUB SWAP1 LOG2 POP POP PUSH1 0x0 PUSH1 0x1 PUSH1 0x0 PUSH2 0x100 EXP DUP2 SLOAD DUP2 PUSH1 0xFF MUL NOT AND SWAP1 DUP4 ISZERO ISZERO MUL OR SWAP1 SSTORE POP POP JUMP JUMPDEST PUSH1 0x0 CALLVALUE EQ ISZERO PUSH2 0x49B JUMPI PUSH1 0x40 MLOAD PUSH32 0x2C5211C600000000000000000000000000000000000000000000000000000000 DUP2 MSTORE PUSH1 0x4 ADD PUSH1 0x40 MLOAD DUP1 SWAP2 SUB SWAP1 REVERT JUMPDEST PUSH1 0x0 DUP1 PUSH1 0x0 CALLER PUSH20 0xFFFFFFFFFFFFFFFFFFFFFFFFFFFFFFFFFFFFFFFF AND PUSH20 0xFFFFFFFFFFFFFFFFFFFFFFFFFFFFFFFFFFFFFFFF AND DUP2 MSTORE PUSH1 0x20 ADD SWAP1 DUP2 MSTORE PUSH1 0x20 ADD PUSH1 0x0 KECCAK256 SLOAD SWAP1 POP PUSH32 0x0 CALLVALUE DUP3 PUSH2 0x50B SWAP2 SWAP1 PUSH2 0x752 JUMP JUMPDEST GT ISZERO PUSH2 0x543 JUMPI PUSH1 0x40 MLOAD PUSH32 0x448F3CA800000000000000000000000000000000000000000000000000000000 DUP2 MSTORE PUSH1 0x4 ADD PUSH1 0x40 MLOAD DUP1 SWAP2 SUB SWAP1 REVERT JUMPDEST CALLVALUE PUSH1 0x0 DUP1 CALLER PUSH20 0xFFFFFFFFFFFFFFFFFFFFFFFFFFFFFFFFFFFFFFFF AND PUSH20 0xFFFFFFFFFFFFFFFFFFFFFFFFFFFFFFFFFFFFFFFF AND DUP2 MSTORE PUSH1 0x20 ADD SWAP1 DUP2 MSTORE PUSH1 0x20 ADD PUSH1 0x0 KECCAK256 PUSH1 0x0 DUP3 DUP3 SLOAD PUSH2 0x591 SWAP2 SWAP1 PUSH2 0x752 JUMP JUMPDEST SWAP3 POP POP DUP2 SWAP1 SSTORE POP CALLER PUSH20 0xFFFFFFFFFFFFFFFFFFFFFFFFFFFFFFFFFFFFFFFF AND PUSH32 0x6422818A720076FBACC37E6FE0BE51494C1E5683D3173A4AD0D896F1AEB4DDBF CALLVALUE PUSH1 0x40 MLOAD PUSH2 0x5DE SWAP2 SWAP1 PUSH2 0x71B JUMP JUMPDEST PUSH1 0x40 MLOAD DUP1 SWAP2 SUB SWAP1 LOG2 POP JUMP JUMPDEST PUSH32 0x0 DUP2 JUMP JUMPDEST PUSH1 0x0 DUP2 CALLDATALOAD SWAP1 POP PUSH2 0x61C DUP2 PUSH2 0x878 JUMP JUMPDEST SWAP3 SWAP2 POP POP JUMP JUMPDEST PUSH1 0x0 DUP2 CALLDATALOAD SWAP1 POP PUSH2 0x631 DUP2 PUSH2 0x88F JUMP JUMPDEST SWAP3 SWAP2 POP POP JUMP JUMPDEST PUSH1 0x0 PUSH1 0x20 DUP3 DUP5 SUB SLT ISZERO PUSH2 0x64D JUMPI PUSH2 0x64C PUSH2 0x847 JUMP JUMPDEST JUMPDEST PUSH1 0x0 PUSH2 0x65B DUP5 DUP3 DUP6 ADD PUSH2 0x60D JUMP JUMPDEST SWAP2 POP POP SWAP3 SWAP2 POP POP JUMP JUMPDEST PUSH1 0x0 PUSH1 0x20 DUP3 DUP5 SUB SLT ISZERO PUSH2 0x67A JUMPI PUSH2 0x679 PUSH2 0x847 JUMP JUMPDEST JUMPDEST PUSH1 0x0 PUSH2 0x688 DUP5 DUP3 DUP6 ADD PUSH2 0x622 JUMP JUMPDEST SWAP2 POP POP SWAP3 SWAP2 POP POP JUMP JUMPDEST PUSH1 0x0 PUSH2 0x69E PUSH1 0x0 DUP4 PUSH2 0x736 JUMP JUMPDEST SWAP2 POP PUSH2 0x6A9 DUP3 PUSH2 0x84C JUMP JUMPDEST PUSH1 0x0 DUP3 ADD SWAP1 POP SWAP2 SWAP1 POP JUMP JUMPDEST PUSH1 0x0 PUSH2 0x6C1 PUSH1 0x11 DUP4 PUSH2 0x741 JUMP JUMPDEST SWAP2 POP PUSH2 0x6CC DUP3 PUSH2 0x84F JUMP JUMPDEST PUSH1 0x20 DUP3 ADD SWAP1 POP SWAP2 SWAP1 POP JUMP JUMPDEST PUSH2 0x6E0 DUP2 PUSH2 0x80E JUMP JUMPDEST DUP3 MSTORE POP POP JUMP JUMPDEST PUSH1 0x0 PUSH2 0x6F1 DUP3 PUSH2 0x691 JUMP JUMPDEST SWAP2 POP DUP2 SWAP1 POP SWAP2 SWAP1 POP JUMP JUMPDEST PUSH1 0x0 PUSH1 0x20 DUP3 ADD SWAP1 POP DUP2 DUP2 SUB PUSH1 0x0 DUP4 ADD MSTORE PUSH2 0x714 DUP2 PUSH2 0x6B4 JUMP JUMPDEST SWAP1 POP SWAP2 SWAP1 POP JUMP JUMPDEST PUSH1 0x0 PUSH1 0x20 DUP3 ADD SWAP1 POP PUSH2 0x730 PUSH1 0x0 DUP4 ADD DUP5 PUSH2 0x6D7 JUMP JUMPDEST SWAP3 SWAP2 POP POP JUMP JUMPDEST PUSH1 0x0 DUP2 SWAP1 POP SWAP3 SWAP2 POP POP JUMP JUMPDEST PUSH1 0x0 DUP3 DUP3 MSTORE PUSH1 0x20 DUP3 ADD SWAP1 POP SWAP3 SWAP2 POP POP JUMP JUMPDEST PUSH1 0x0 PUSH2 0x75D DUP3 PUSH2 0x80E JUMP JUMPDEST SWAP2 POP PUSH2 0x768 DUP4 PUSH2 0x80E JUMP JUMPDEST SWAP3 POP DUP3 PUSH32 0xFFFFFFFFFFFFFFFFFFFFFFFFFFFFFFFFFFFFFFFFFFFFFFFFFFFFFFFFFFFFFFFF SUB DUP3 GT ISZERO PUSH2 0x79D JUMPI PUSH2 0x79C PUSH2 0x818 JUMP JUMPDEST JUMPDEST DUP3 DUP3 ADD SWAP1 POP SWAP3 SWAP2 POP POP JUMP JUMPDEST PUSH1 0x0 PUSH2 0x7B3 DUP3 PUSH2 0x80E JUMP JUMPDEST SWAP2 POP PUSH2 0x7BE DUP4 PUSH2 0x80E JUMP JUMPDEST SWAP3 POP DUP3 DUP3 LT ISZERO PUSH2 0x7D1 JUMPI PUSH2 0x7D0 PUSH2 0x818 JUMP JUMPDEST JUMPDEST DUP3 DUP3 SUB SWAP1 POP SWAP3 SWAP2 POP POP JUMP JUMPDEST PUSH1 0x0 PUSH2 0x7E7 DUP3 PUSH2 0x7EE JUMP JUMPDEST SWAP1 POP SWAP2 SWAP1 POP JUMP JUMPDEST PUSH1 0x0 PUSH20 0xFFFFFFFFFFFFFFFFFFFFFFFFFFFFFFFFFFFFFFFF DUP3 AND SWAP1 POP SWAP2 SWAP1 POP JUMP JUMPDEST PUSH1 0x0 DUP2 SWAP1 POP SWAP2 SWAP1 POP JUMP JUMPDEST PUSH32 0x4E487B7100000000000000000000000000000000000000000000000000000000 PUSH1 0x0 MSTORE PUSH1 0x11 PUSH1 0x4 MSTORE PUSH1 0x24 PUSH1 0x0 REVERT JUMPDEST PUSH1 0x0 DUP1 REVERT JUMPDEST POP JUMP JUMPDEST PUSH32 0x5769746864726177616C206661696C6564000000000000000000000000000000 PUSH1 0x0 DUP3 ADD MSTORE POP JUMP JUMPDEST PUSH2 0x881 DUP2 PUSH2 0x7DC JUMP JUMPDEST DUP2 EQ PUSH2 0x88C JUMPI PUSH1 0x0 DUP1 REVERT JUMPDEST POP JUMP JUMPDEST PUSH2 0x898 DUP2 PUSH2 0x80E JUMP JUMPDEST DUP2 EQ PUSH2 0x8A3 JUMPI PUSH1 0x0 DUP1 REVERT JUMPDEST POP JUMP INVALID LOG2 PUSH5 0x6970667358 0x22 SLT KECCAK256 DIFFICULTY SWAP9 0x27 0x5F 0xD6 MSIZE PUSH27 0x101A083571D72E9784B7AC7A9D39C41D3B50E7012B4C11D1826473 PUSH16 0x6C634300080700330000000000000000 "
				},
				"gasEstimates": {
					"creation": {
						"codeDepositCost": "453600",
						"executionCost": "infinite",
						"totalCost": "infinite"
					},
					"external": {
						"balances(address)": "2792",
						"bankCap()": "infinite",
						"deposit()": "infinite",
						"withdrawal(uint256)": "infinite",
						"withdrawalLimit()": "infinite"
					}
				},
				"methodIdentifiers": {
					"balances(address)": "27e235e3",
					"bankCap()": "ecbea24d",
					"deposit()": "d0e30db0",
					"withdrawal(uint256)": "835fc6ca",
					"withdrawalLimit()": "7ddfe78d"
				}
			},
			"storageLayout": {
				"storage": [
					{
						"astId": 18,
						"contract": "contracts/KipuBank.sol:KipuBank",
						"label": "balances",
						"offset": 0,
						"slot": "0",
						"type": "t_mapping(t_address,t_uint256)"
					},
					{
						"astId": 92,
						"contract": "contracts/KipuBank.sol:KipuBank",
						"label": "flag",
						"offset": 0,
						"slot": "1",
						"type": "t_bool"
					}
				],
				"types": {
					"t_address": {
						"encoding": "inplace",
						"label": "address",
						"numberOfBytes": "20"
					},
					"t_bool": {
						"encoding": "inplace",
						"label": "bool",
						"numberOfBytes": "1"
					},
					"t_mapping(t_address,t_uint256)": {
						"encoding": "mapping",
						"key": "t_address",
						"label": "mapping(address => uint256)",
						"numberOfBytes": "32",
						"value": "t_uint256"
					},
					"t_uint256": {
						"encoding": "inplace",
						"label": "uint256",
						"numberOfBytes": "32"
					}
				}
			},
			"userdoc": {
				"kind": "user",
				"methods": {},
				"notice": "Contrato ....",
				"version": 1
			}
		}
	}
}